:1000000004C100002FC100002DC100002BC1000061
:1000100029C1000027C1000025C1000023C1000044
:1000200021C100001FC100001DC100001BC1000054
:1000300019C1000017C1000015C1000013C1000064
:1000400011C100000C940B0B0DC100000BC100008E
:1000500009C1000007C1000005C100000C94390E61
:1000600001C100000C946E100C94B211FBC0000092
:10007000F9C00000F7C00000F5C00000F3C00000A8
:100080000C94DE0AEFC00000EDC00000EBC00000E1
:100090000C94AE100C94F111E5C000000C94750C9A
:1000A000E1C00000DFC000000C94B10ADBC000001A
:1000B000D9C00000D7C00000D5C000000C94840A4D
:1000C000D1C00000CFC00000CDC000000C94EE10E5
:1000D0000C943012C7C000000C942E110C946F12B7
:1000E000C1C0000000002100240027002A002D00CC
:1000F0003000330001010000040107010A01000083
:100100002200250028002B002E00310034000201BF
:100110000000050108010B0100002000230026005B
:1001200029002C002F00320000010000030106010D
:10013000090105050505070508080808020202026D
:100140000A0A080804040404010101010101010173
:100150000303030303030303040707070C0C0C0C3E
:100160000C0C0C0C02020202060606060606060627
:100170000B0B0B0B0B0B0B0B0102102020080810B4
:100180002040102040800201020108040201010207
:1001900004081020408080402010080402018004E0
:1001A000020180402010080402010804020101023B
:1001B0000408102040800102040810204080000044
:1001C000090A02080B0C0D070603040100000000D9
:1001D000000000000000000000000000000000001F
:1001E0000000000000000000000011100F000000DF
:1001F00000000000000000000000000000000000FF
:1002000000000000EF04720BDE1311241FBECFEFBD
:10021000D1E2DEBFCDBF00E00CBF14E0A0E0B2E051
:10022000E6E4F2E300E00BBF02C007900D92AC3BA6
:10023000B107D9F71BBE19E0ACEBB4E001C01D92C9
:10024000A132B107E1F712E0CAE0D2E004C0229780
:10025000FE010E941D19C430D107C9F70E94141570
:100260000C942119CDCEDF92EF92FF920F931F9342
:10027000CF93DF93EC011A828CE2ECD0182F85E645
:10028000E9D0F82E85E7E6D0E82ED12E10FF2FC05A
:1002900082E6E0D0082F81E6DDD0112707FD10951A
:1002A000007E107055E0159507955A95E1F799274E
:1002B00087FD909543E0880F991F4A95E1F7080F55
:1002C000191F198308838FE0F822FA8210E008C012
:1002D000812F8A59BFD0FE01E10FF11D83831F5F7B
:1002E0008A811817A8F38CE261E040E084D0D1FE47
:1002F0002FC082E7AFD0082F81E7ACD0112707FDD0
:100300001095007E107035E0159507953A95E1F748
:10031000992787FD909523E0880F991F2A95E1F78B
:10032000080F191F198308838FE0E822EA8210E082
:1003300008C0812F8A598ED0FE01E10FF11D838301
:100340001F5F8A811817A8F38CE262E040E053D067
:10035000DF91CF911F910F91FF90EF90DF90089563
:100360001F93CF93DF93EC0185E36FE04A8143D085
:1003700068816295660F607E82E357D068817981DB
:10038000E3E076956795EA95E1F781E34ED010E0DA
:1003900008C0FE01E10FF11D812F8A5C638145D009
:1003A0001F5F8A811817A8F380E36FEF48E023D01E
:1003B00085E360E00E943B1081E85DD685E361E063
:1003C0000E943B10DF91CF911F91089589E998E039
:1003D00060E072E00E94431650D08FE060EE40E093
:1003E0000AC085E360E00E943B1080EC44D685E3C0
:1003F00061E00C943B10FF920F931F93182F062F70
:10040000F42E85E360E00E943B1085E034D6812F16
:1004100032D6802F30D68F2D2ED685E361E00E9414
:100420003B101F910F91FF9008950F931F93182F6A
:10043000062F85E360E00E943B1082E01CD6812FEE
:100440001AD6802F18D685E361E00E943B101F91D9
:100450000F9108951F93182F85E360E00E943B10D1
:1004600083E009D6812F07D60BD6182F85E361E0EC
:100470000E943B10812F1F91089508D6B2DF88EEAD
:1004800093E020E931E0F9013197F1F70197D9F7CD
:100490008EE0E0DF807E803811F480E0089589E905
:1004A00098E064E172E00E94451681E00895181614
:1004B000190614F4169A089516980895CF92DF92AB
:1004C000EF92FF920F931F938A988C9884E190E0AB
:1004D0000E94E80E46E0C42E41E0D42EF6010081D1
:1004E00010E0C80185759070880F991F0A7A107006
:1004F00016950795082B192BC80183739070880FE8
:10050000991F880F991F0C7C1070169507951695EA
:100510000795082B192B7801F4E0EE0CFF1CFA95D7
:10052000E1F7FFEFEF22FF24E4E016950795EA9547
:10053000E1F78C9A84E190E00E94E80EF601808158
:1005400090E09C012A7A30703595279585759070DA
:10055000880F991F282B30E0C9018C7C90709595ED
:1005600087959595879523733070220F331F220F3F
:10057000331F822B282F22952F708295807F282B66
:100580008B988B9A8A9A0E291F29102F0027020F09
:10059000111DC8011F910F91FF90EF90DF90CF9038
:1005A00008950F931F93182F092F85EF95E068E2A8
:1005B00070E00E94380B85EF95E061E00E94B90B76
:1005C000212F302FC901BC0197FF03C070956195A1
:1005D0007F4F85EF95E00E94B90B85EF95E00E9473
:1005E000FA0B1F910F91089585EF95E00E94FC0B87
:1005F00081B18C6781B917B81298139A1498159A1B
:10060000169A84E690E0CDDF68EB7BE080E090E036
:100610000E948F0E80E090E0C4DF139888EC90E099
:100620000E94E80E139A08950F931F93182F092F15
:1006300085EF95E068E270E00E94380B85EF95E069
:1006400060E00E94B90B212F302FC901BC0197FF38
:1006500003C0709561957F4F85EF95E00E94B90BBF
:1006600085EF95E00E94FA0B1F910F910895CF92AC
:10067000DF92EF92FF920F931F936C011FDF909315
:10068000C1048093C00460917D0270917E0288272E
:1006900077FD8095982F0E948F0E10DF9C0190931C
:1006A000BF048093BE04442737FD4095542FCA01F0
:1006B000B9010E949D177B018C016091C00470916B
:1006C000C104882777FD8095982F0E949D179B0174
:1006D000AC01C801B7010E949D160E946A178827C5
:1006E00077FD8095982F0E949D177B018C0160916A
:1006F0007D0270917E02882777FD8095982F0E9459
:100700009D1720E030E040E05EE30E9429189B0145
:10071000AC01C801B7010E9402170E946A17960136
:10072000261B370B3093BD042093BC04121613060E
:1007300014F48E9A01C08E98A90137FF04C0442793
:100740005527421B530B46305105A4F0C9018D5962
:100750009F4F873C910540F4223331051CF482E31E
:1007600090E009C0CA0107C0453651051CF084E677
:1007700090E001C0C90158DF1F910F91FF90EF90E9
:10078000DF90CF90089585EF95E00E94FC0B80B339
:100790008C6780BB109207018A988B9A8C988D9AEF
:1007A0008E9A84E690E040DF68EB7BE080E090E0AA
:1007B0000E948F0E80E090E037DF8B9888EC90E00D
:1007C0000E94E80E8B9A08955F926F927F928F92AB
:1007D0009F92AF92BF92CF92DF92EF92FF920F93D0
:1007E0001F93782E6A017B01480159018DE061E079
:1007F0000E943B1060E271EA87E090E0A701960159
:100800000E94EC18522E632EC501B401A701960177
:100810000E948C1828EE33E040E050E00E94EC1873
:1008200069017A0188249924540115C0872D61E05B
:100830000E943B10852D962D0E94E80E872D60E0CA
:100840000E943B10852D962D0E94E80E0894811C75
:10085000911CA11CB11C8C149D04AE04BF0434F384
:100860008DE060E00E943B101F910F91FF90EF9090
:10087000DF90CF90BF90AF909F908F907F906F90C0
:100880005F900895CF92DF92EF92FF920F931F93A4
:10089000CF93DF93029709F044C089E998E066E4BA
:1008A00072E00E944516C0E0D0E0FE01E95DFB4F1A
:1008B0006081718188EE93E00E94B7186B01EE248D
:1008C000D7FCE094FE2CFE01E954FC4F408151819D
:1008D000662757FD6095762F8DE090E097018601A1
:1008E00073DFC701B6010E949D1726E636E646EA89
:1008F0005FE30E9429180E946A17882777FD809578
:10090000982F0E948F0E8DE090E040E050E060E074
:1009100070E09701860158DF2296C037D10529F68D
:1009200043C089E998E06AE572E00E944516C0E09C
:10093000D0E0FE01E55EFC4F6081718188EE93E0BE
:100940000E94B7186B01EE24D7FCE094FE2CFE0148
:10095000E158FD4F40815181662757FD6095762F04
:100960008DE090E0970186012FDFC701B6010E945C
:100970009D1726E636E646EA5FE30E9429180E94A4
:100980006A17882777FD8095982F0E948F0E8DE03B
:1009900090E040E050E060E070E09701860114DFF5
:1009A0002296CC39D10529F6DF91CF911F910F9175
:1009B000FF90EF90DF90CF9008956091C204709106
:1009C000C30481E090E05EDF6091C2047091C304D3
:1009D00082E090E057CF8DE061E00C94880F84ECCA
:1009E00094E066D387EC94E063C30F931F93CF9397
:1009F000DF93EC0188819981019709F062C00B8136
:100A0000112707FD10958FE696E060E070E00E94E8
:100A1000260E90E080179107FCF48FE696E061E0E7
:100A200070E00E94260E482F8FE696E062E070E0AC
:100A30000E942D0E8FE696E060E070E00E94260E88
:100A4000482F8FE696E061E070E00E942D0E8FE661
:100A500096E060E070E032C00B81112707FD109531
:100A60008FE696E061E070E00E94260E90E080172D
:100A7000910794F48FE696E061E070E00E94260E04
:100A8000482F8FE696E062E070E00E942D0E8FE620
:100A900096E061E070E012C00B81112707FD109510
:100AA0008FE696E062E070E00E94260E90E08017EC
:100AB00091073CF48FE696E062E070E04B810E9483
:100AC0002D0EDF91CF911F910F9108950F931F93DA
:100AD000DF93CF93CDB7DEB72B970FB6F894DEBF79
:100AE0000FBECDBF86E090E09A83898383E08B833D
:100AF0000FE616E0C80160E070E00E94260E8C83CD
:100B0000C80161E070E00E94260E8D83C80162E09A
:100B100070E00E94260E8E83CE01019621DC2B967A
:100B20000FB6F894DEBF0FBECDBFCF91DF911F91FE
:100B30000F9108950F931F93CF93DF93C0E0D0E000
:100B40000091CC041091CD04809199040E94540F1F
:100B5000080F191F1093CD040093CC042196C430C4
:100B6000D10571F70091CE041091CF0480919704C4
:100B70000E94540FFC018091CC049091CD0464E05C
:100B800070E00E94B7189B017093CD046093CC0471
:100B9000CF01800F911F64E070E00E94B71870933E
:100BA000CF046093CE042530310584F480919904FC
:100BB0000E94540F8D97D4F380910A0590910B05F4
:100BC000019690930B0580930A0513C0683C71054C
:100BD00084F4809197040E94540F80599140CCF383
:100BE00080910C0590910D05019690930D058093D1
:100BF0000C0580910A0590910B05039751F488E04C
:100C000090E09093E7048093E60481E08093E80409
:100C100010C080910C0590910D050397E9F488E0D0
:100C200090E09093E7048093E60481E08093E804E9
:100C300082E08093E90486EE94E092DB10920B054B
:100C400010920A0510920D0510920C0568EB7BE0DE
:100C500080E090E00E948F0EDF91CF911F910F9165
:100C600008950F931F93CF93DF93C0E0D0E00091DE
:100C7000CA041091CB04809197040E94540F800FF6
:100C8000911F9093CB048093CA042196C430D10560
:100C900071F764E070E00E94B7187093CB04609322
:100CA000CA04643671050CF048C00E94810E60933E
:100CB0000005709301058093020590930305209130
:100CC000FC043091FD044091FE045091FF04621B2E
:100CD000730B840B950B28EE33E040E050E00E944C
:100CE000CA182093060530930705C1E0D0E0D093E1
:100CF000DC04C093DB0481E08093DD042093DE04F8
:100D00008091080590910905892BB9F48BED94E049
:100D100027DB8BED94E069DED0930905C0930805CD
:100D2000109205051092040568EE73E080E090E0F3
:100D3000F6D78CE261E040E05EDBDF91CF911F915E
:100D40000F9108958CE286DB80FF71C080ED94E006
:100D50008ADA8091D0049091D1048330910531F5E5
:100D60008091D304992787FD909590930F058093E8
:100D70000E058091D404992787FD909590931105D5
:100D8000809310058091D504992787FD90959093C5
:100D90001305809312058091D604992787FD9095BD
:100DA0009093150580931405C5DE41C082309105EE
:100DB00069F58091040590910505892B99F4A1D7D7
:100DC0006093FC047093FD048093FE049093FF04F1
:100DD00081E090E090930505809304051092090549
:100DE000109208058091D304992787FD90959093E0
:100DF0000F0580930E058091D404992787FD909567
:100E000090931105809310052CDF11C0843091055B
:100E100011F45CDE0CC0099751F4CFDD8AE090E05C
:100E20009093F2048093F10481EF94E099DA609159
:100E30000E0570910F0584EC94E0BCD084E190E045
:100E4000C7D7609112057091130587EC94E056D0D6
:100E500080911005909111050ADC80911405909104
:100E6000150525DB6091140570911505882777FD20
:100E70008095982F0E949D172AE939E949E95FE397
:100E80000E9429180E946A17DC01CB018ACB0F93BC
:100E90001F9309E918E0C80140E855E260E070E0FE
:100EA0000E94AE12E3D092DAC80169E672E00E94B5
:100EB00043168EE0CFDA682F772767FD7095607E46
:100EC0007070C80140E150E00E9426165CDC8CDBAB
:100ED00084EC94E063E070E044E853E024E338E01D
:100EE000A4D187EC94E064E070E044E853E024E3AC
:100EF00038E09BD170DD1F910F910895AF92BF92A2
:100F0000CF92DF92EF92FF920F931F93CF93DF93D5
:100F1000EC019B018091160590911705AB01481BD0
:100F2000590BCA0157FF03C0909581959F4F0697B3
:100F3000B4F1309317052093160500D00F92B90134
:100F4000882777FD8095982F27E830E040E050E033
:100F5000EDB7FEB7218332834383548324E630E028
:100F600040E050E0FCE9EF2EFFEFFF2EFFEF0F2FE8
:100F7000FFEF1F2FEDE2AE2EB12CC12CD12C0E9421
:100F800056169B01AC010F900F900F900F90CE0161
:100F9000B901E4D062E370E080E090E0C0D6DF9178
:100FA000CF911F910F91FF90EF90DF90CF90BF9066
:100FB000AF900895AF92BF92CF92DF92EF92FF92DF
:100FC0000F931F93CF93DF93EC019B018091180542
:100FD00090911905AB01481B590BCA0157FF03C07B
:100FE000909581959F4F0697B4F130931905209302
:100FF000180500D00F92B901882777FD8095982FAA
:1010000027E830E040E050E0EDB7FEB721833283BF
:101010004383548324E630E040E050E0BCE9EB2E0B
:10102000BFEFFB2EBFEF0B2FBFEF1B2FADE2AA2EA2
:10103000B12CC12CD12C0E9456169B01AC010F90F3
:101040000F900F900F90CE01B90188D062E370E04D
:1010500080E090E064D6DF91CF911F910F91FF90D7
:10106000EF90DF90CF90BF90AF90089587E084B964
:1010700081E58CBD08958EBD0DB407FEFDCF0895AA
:101080001EBC0DB407FEFDCF8EB5089585E361E06B
:10109000F2D785E361E03CD78CB580618CBD8CB51F
:1010A00080648CBD84E361E033D783E361E030C7C3
:1010B000FC0180911A05803390F480838F5F8093C8
:1010C0001A05815090E0FC01EE0FFF1FE80FF91F99
:1010D000E55EFA4F88EB9BE09283818308958FEF62
:1010E00080830895FC0120812033B8F58181992700
:1010F00087FD909548E850E0481B590B440F551F59
:10110000440F551F6417750784F08281992787FD66
:10111000909548E552E0481B590B440F551F440F6A
:10112000551F641775070CF4AB0142505040CA01BB
:10113000AA2797FDA095BA2F880F991FAA1FBB1F3A
:101140004FB7F89430E0F901EE0FFF1FE20FF31FE5
:10115000E55EFA4F928381834FBF0895AF92BF92AD
:10116000CF92DF92EF92FF920F931F93CF93DF9373
:10117000EC019B0182E0603278070CF048C077FFF9
:1011800003C020E030E005C0653B710514F024EB9E
:1011900030E000D00F92B901882777FD8095982F15
:1011A0002981332727FD3095E8E8AE2EB12CA21A0D
:1011B000B30AAA0CBB1CAA0CBB1CCC24B7FCC09461
:1011C000DC2CEA81FF27E7FDF09528E532E02E1BB5
:1011D0003F0B220F331F220F331F442737FD40954B
:1011E000542FEDB7FEB7218332834383548320E02D
:1011F00030E040E050E004EBE02EF12C012D112D09
:101200000E9456169B010F900F900F900F90CE01E9
:10121000B90168DFDF91CF911F910F91FF90EF909F
:10122000DF90CF90BF90AF900895CF92DF92EF9272
:10123000FF921F93CF93DF93EC01162F7A01690180
:101240008881803308F092C0862F61E061D6888162
:1012500090E0FC01EE0FFF1FE80FF91FE55EFA4F6B
:101260001F738081807C812B808380E292E08E19C5
:101270009F0964E070E00E94B718698380E699E0F6
:101280008C199D0964E070E00E94B7186A83A881F8
:101290008A2F6CE00E94AB18682F70E0AB01440FFE
:1012A000551F460F571F440F551F440F551F20E071
:1012B00030E0C901840F951FFC01EE0FFF1FE80FFE
:1012C000F91FE55EFA4F808186FD44C02F5F3F4FD6
:1012D0002C30310571F753C01092800082E080936A
:1012E00081001092850010928400B19A80916F0065
:1012F000826080936F002EC06230710569F4109295
:10130000900082E0809391001092950010929400DA
:1013100088BB809371001EC06330710569F4109220
:10132000A00082E08093A1001092A5001092A4007A
:1013300089BB809372000EC0672B61F4109220016C
:1013400082E08093210110922501109224018ABB32
:10135000809373008A2F90E0FC01EE0FFF1FE80FCF
:10136000F91FE55EFA4F8081806480838881DF9178
:10137000CF911F91FF90EF90DF90CF900895613053
:10138000710509F0B9CFA8CFEF92FF920F931F9389
:10139000CF93DF938B017A01EC01DC01A555BA4FA5
:1013A0008C9187FF04C0FB011182108236C0AE0110
:1013B000440F551F4C0F5D1F440F551F440F551F01
:1013C0002C91332727FD3095240F351F80911A0566
:1013D00090E0281739070CF58C91992787FD909597
:1013E000840F951FFC01EE0FFF1FE80FF91FE55E4C
:1013F000FA4F808186FF11C08C91992787FD9095C7
:10140000840F951FFC01EE0FFF1FE80FF91FE55E2B
:10141000FA4F80818F7360E02ED6DE01A555BA4F5A
:101420008C918F5F8C93AE01440F551F4C0F5D1F45
:10143000440F551F440F551F2C91332727FD30951E
:10144000240F351F80911A0590E0281739070CF0FA
:101450004CC08C918C300CF048C0F8012081318157
:101460008C91992787FD9095840F951FFC01EE0FB5
:10147000FF1FE80FF91FE55EFA4F81819281280F67
:10148000391FF701318320838C91992787FD90952F
:10149000840F951FFC01EE0FFF1FE80FF91FE55E9B
:1014A000FA4F808186FF29C08C91992787FD9095FE
:1014B000840F951FFC01EE0FFF1FE80FF91FE55E7B
:1014C000FA4F80818F7361E0D6D517C080E49CE924
:1014D00004C0F801808191810496F7019183808393
:1014E000C555DA4F8FEF888308C0F801808191815C
:1014F000049680549C4950F3ECCFDF91CF911F911B
:101500000F91FF90EF9008951F920F920FB60F92D8
:101510000BB60F9211242F933F934F935F936F93CA
:101520007F938F939F93AF93BF93EF93FF9380E04D
:1015300090E064E271E048E251E026DFFF91EF9134
:10154000BF91AF919F918F917F916F915F914F91DB
:101550003F912F910F900BBE0F900FBE0F901F90D9
:1015600018951F920F920FB60F920BB60F9211247F
:101570002F933F934F935F936F937F938F939F939B
:10158000AF93BF93EF93FF9383E090E064EA70E042
:1015900048EA50E0F9DEFF91EF91BF91AF919F9142
:1015A0008F917F916F915F914F913F912F910F900C
:1015B0000BBE0F900FBE0F901F9018951F920F92A9
:1015C0000FB60F920BB60F9211242F933F934F93A8
:1015D0005F936F937F938F939F93AF93BF93EF939B
:1015E000FF9382E090E064E970E048E950E0CCDEEF
:1015F000FF91EF91BF91AF919F918F917F916F91EB
:101600005F914F913F912F910F900BBE0F900FBEA6
:101610000F901F9018951F920F920FB60F920BB656
:101620000F9211242F933F934F935F936F937F9368
:101630008F939F93AF93BF93EF93FF9381E090E0DD
:1016400064E870E048E850E09FDEFF91EF91BF91C1
:10165000AF919F918F917F916F915F914F913F914A
:101660002F910F900BBE0F900FBE0F901F901895EB
:1016700081E08093F4056093D1051092F2051092F9
:10168000F30508952091D00530E08091CF05281B07
:101690003109C90108954091CF058091D0054817BF
:1016A00018F02FEF3FEF0AC0E42FF0E0E155FA4FBA
:1016B0008081282F30E04F5F4093CF05C901089506
:1016C000E091CF058091D005E81718F0EFEFFFEF1C
:1016D00006C0F0E0E155FA4F8081E82FF0E0CF013D
:1016E000089508951092F8051092F70588EE93E09A
:1016F000A0E0B0E08093F9059093FA05A093FB0574
:10170000B093FC0580EA94E09093F6058093F5058C
:101710000895CF92DF92EF92FF920F931F93CF9392
:10172000DF937C016B018A018091F4058823A1F08D
:10173000C0E0D0E00DC0D701ED91FC91D601AC0F17
:10174000BD1F0190F081E02DC7016C911995219684
:10175000C017D10780F303C0CB01642FABD0C80101
:10176000DF91CF911F910F91FF90EF90DF90CF907D
:101770000895DF93CF930F92CDB7DEB7FC01698355
:101780008091F4058823C9F08091F305803238F008
:1017900081E090E09383828320E030E014C0809168
:1017A000F205E82FF0E0EE52FA4F998190838F5FB7
:1017B0008093F2058093F30504C0CE01019661E0A9
:1017C00079D021E030E0C9010F90CF91DF910895E9
:1017D0000F93062F8091D10562ED75E04091F305DE
:1017E00021E013D01092F2051092F3051092F40547
:1017F0000F91089561E0ECCF1092CF051092D005C3
:101800001092F2051092F30505C20F931F93582F03
:10181000122F413210F081E04AC0809101068823E6
:10182000E1F782E080930106009303068FEF809337
:101830006E061092290640932A06A9E0B6E0FB0145
:1018400002C081918D938E2F861B8417D0F3109246
:10185000020680910206550F852B80930206809127
:101860000406813041F410920406809102068093B0
:10187000BB0085EC01C085EE8093BC00112321F0F4
:10188000809101068230E1F380916E068F3F11F462
:1018900080E00DC080916E06803211F482E007C0B6
:1018A00080916E06803311F084E001C083E01F91C7
:1018B0000F910895482F613210F081E008958091D2
:1018C0000106843011F082E0089560934C06ABE28B
:1018D000B6E0842F9C01F90102C081918D938E2F77
:1018E000841B8617D0F380E008951F920F920FB6E5
:1018F0000F920BB60F9211242F933F934F935F9348
:101900006F937F938F939F93AF93BF93EF93FF93C7
:101910008091B90090E0887F90708036910509F43D
:10192000F2C081369105CCF58832910509F47BC06F
:1019300089329105B4F48031910509F46FC0813189
:1019400091053CF4009709F447C1089709F04FC18D
:1019500065C08831910509F466C0809709F047C1D8
:1019600082C08034910509F4A4C08134910544F407
:101970008033910509F482C0C89709F038C189C045
:101980008035910509F489C08835910509F496C020
:101990008834910509F02BC1AEC08839910509F44E
:1019A00013C189399105ECF48837910509F4ABC06E
:1019B000893791054CF48836910509F4A4C0803725
:1019C000910509F014C19FC08838910509F4FCC045
:1019D0008039910509F49DC08038910509F007C14F
:1019E00098C0803B910509F4C6C0813B91054CF439
:1019F000803A910509F49FC0883A910509F0F7C033
:101A0000BAC0803C910509F4E3C0883C910509F413
:101A1000DFC0883B910509F0EAC0C2C08091020690
:101A20008093BB00CFC09091290680912A06981719
:101A300068F490912906E92FF0E0E75FF94F808183
:101A40008093BB009F5F90932906BCC080910306E2
:101A5000882309F44BC085ED8093BC008091BC00C5
:101A600084FDFCCFC2C080E280936E0685ED80933A
:101A7000BC008091BC0084FDFCCFB7C080E38093A4
:101A80006E0685ED8093BC008091BC0084FDFCCF88
:101A9000ACC088E380936E069BC08091290690912C
:101AA000BB00E82FF0E0E75FF94F90838F5F8093F2
:101AB00029069091290680912A0682C080912906E4
:101AC0009091BB00E82FF0E0E75FF94F90838F5FC4
:101AD0008093290680910306882341F085ED809349
:101AE000BC008091BC0084FDFCCF7FC081E080936E
:101AF000040684EA6EC085ED8093BC008091BC0032
:101B000084FDFCCF72C083E08093010610926D06C5
:101B100059C080916D06803208F056C080916D06E4
:101B20009091BB00E82FF0E0E35BF94F90838F5F6B
:101B300080936D0647C080916D06803230F4E0914D
:101B40006D06F0E0E35BF94F108285ED8093BC00F9
:101B50008091BC0084FDFCCF1092010660916D065F
:101B6000E0910706F09108068DE496E070E0199583
:101B700010926D062DC084E08093010610924B06F2
:101B800010924C06E0910506F09106061995809199
:101B90004C06882329F481E080934C0610922B0692
:101BA00090914B06E92FF0E0E55DF94F808180933D
:101BB000BB009F5F90934B0690914B0680914C0623
:101BC000981710F485EC01C085E88093BC000FC025
:101BD00085EC8093BC0009C010926E0685ED809361
:101BE000BC008091BC0084FDFCCF10920106FF91E7
:101BF000EF91BF91AF919F918F917F916F915F9185
:101C00004F913F912F910F900BBE0F900FBE0F90F1
:101C10001F9018951092010681E0809303061092A0
:101C2000040684E161E027D285E161E024D2E9EB9A
:101C3000F0E080818E7F808380818D7F808388E447
:101C40008093B80085E48093BC000895F999FECF95
:101C500072BD61BDF89A80B50895F999FECF1FBA9B
:101C600072BD61BD40BD0FB6F894FA9AF99A0FBEE5
:101C700008951F920F920FB60F9211242F933F9346
:101C80008F939F93AF93BF93809174069091750645
:101C9000A0917606B0917706309178060196A11D45
:101CA000B11D232F2D5F2D3720F02D570196A11D3B
:101CB000B11D209378068093740690937506A093C7
:101CC0007606B09377068091700690917106A09188
:101CD0007206B09173060196A11DB11D8093700626
:101CE00090937106A0937206B0937306BF91AF9163
:101CF0009F918F913F912F910F900FBE0F901F904A
:101D000018958FB7F894209174063091750640911C
:101D10007606509177068FBFB901CA0108959B01DD
:101D2000AC017FB7F8948091700690917106A091F4
:101D30007206B091730666B5A89B05C06F3F19F097
:101D40000196A11DB11D7FBFBA2FA92F982F8827FB
:101D5000860F911DA11DB11D62E0880F991FAA1F5A
:101D6000BB1F6A95D1F7BC012DC0FFB7F8948091D5
:101D7000700690917106A0917206B0917306E6B557
:101D8000A89B05C0EF3F19F00196A11DB11DFFBF33
:101D9000BA2FA92F982F88278E0F911DA11DB11D35
:101DA000E2E0880F991FAA1FBB1FEA95D1F7861B97
:101DB000970B885E9340C8F221503040404050401D
:101DC00068517C4F211531054105510571F6089583
:101DD000019739F0880F991F880F991F0297019773
:101DE000F1F70895789484B5826084BD84B58160EC
:101DF00084BD85B5826085BD85B5816085BDEEE613
:101E0000F0E0808181608083E1E8F0E010828081F1
:101E100082608083808181608083E0E8F0E080815F
:101E200081608083E1EBF0E0808184608083E0EB7F
:101E3000F0E0808181608083E1E9F0E08081826070
:101E40008083808181608083E0E9F0E0808181602F
:101E50008083E1EAF0E0808182608083808181601C
:101E60008083E0EAF0E0808181608083E1E2F1E05C
:101E7000808182608083808181608083E0E2F1E004
:101E8000808181608083EAE7F0E0808184608083E4
:101E9000808182608083808181608083808180688E
:101EA00080831092C1000895382F863308F036538E
:101EB00020917B00832F86958695869590E0817092
:101EC000907043E0880F991F4A95E1F7277F282BF0
:101ED00020937B00377080919B048295880F880F38
:101EE000807C832B80937C0080917A008064809337
:101EF0007A0080917A0086FDFCCF20917800409195
:101F00007900942F80E030E0282B392BC901089507
:101F1000CF93DF93482F50E0CA0188589E4FFC01B1
:101F200034914E5C5E4FFA018491882369F190E010
:101F3000880F991FFC01EC51FF4FA591B491FC0152
:101F4000E250FF4FC591D491662351F42FB7F89416
:101F50008C91932F909589238C93888189230BC032
:101F6000623061F42FB7F8948C91932F9095892368
:101F70008C938881832B88832FBF06C09FB7F894EA
:101F80008C91832B8C939FBFDF91CF9108958930E3
:101F900009F449C08A30A0F4843051F1853040F40E
:101FA000823079F1833000F5813009F063C026C0BA
:101FB000873079F1883098F5863009F05BC025C00C
:101FC0008D3009F442C08E3028F48B30B1F18C3062
:101FD000C0F52DC0803109F442C0813109F445C0FB
:101FE0008F3009F047C037C0809180008F7703C0E1
:101FF000809180008F7D80938000089584B58F77D5
:1020000002C084B58F7D84BD08958091B0008F7724
:1020100003C08091B0008F7D8093B00008958091BF
:1020200090008F7707C0809190008F7D03C08091D2
:102030009000877F8093900008958091A0008F7713
:1020400007C08091A0008F7D03C08091A000877F92
:102050008093A0000895809120018F7703C0809124
:1020600020018F7D80932001089580912001877F3A
:10207000809320010895FF920F931F93F62E482F0F
:1020800050E0CA0182549E4FFC012491CA01885835
:102090009E4FFC0114914E5C5E4FFA0104910023A7
:1020A000C1F0222311F0822F72DFE02FF0E0EE0F5B
:1020B000FF1FE250FF4FA591B4919FB7F894FF2006
:1020C00021F48C911095812302C08C91812B8C93EB
:1020D0009FBF1F910F91FF90089508951F920F9237
:1020E0000FB60F920BB60F9211242F933F934F937D
:1020F0008F939F93EF93FF938091C00082FD1DC04B
:102100004091C6002091B9063091BA062F5F3F4F2B
:102110002F7330708091BB069091BC062817390749
:1021200071F0E091B906F091BA06E758F94F408393
:102130003093BA062093B90602C08091C600FF9181
:10214000EF919F918F914F913F912F910F900BBEE7
:102150000F900FBE0F901F90189508951F920F9229
:102160000FB60F920BB60F9211242F933F934F93FC
:102170008F939F93EF93FF938091C80082FD1DC0C2
:102180004091CE0020914107309142072F5F3F4F91
:102190002F733070809143079091440728173907B7
:1021A00071F0E0914107F0914207EF5FF84F4083F3
:1021B000309342072093410702C08091CE00FF91E7
:1021C000EF919F918F914F913F912F910F900BBE67
:1021D0000F900FBE0F901F90189508951F920F92A9
:1021E0000FB60F920BB60F9211242F933F934F937C
:1021F0008F939F93EF93FF938091D00082FD1DC03A
:102200004091D6002091C9073091CA072F5F3F4FF8
:102210002F7330708091CB079091CC072817390726
:1022200071F0E091C907F091CA07E757F84F408372
:102230003093CA072093C90702C08091D600FF914E
:10224000EF919F918F914F913F912F910F900BBEE6
:102250000F900FBE0F901F90189508951F920F9228
:102260000FB60F920BB60F9211242F933F934F93FB
:102270008F939F93EF93FF938091300182FD1DC058
:102280004091360120915108309152082F5F3F4F05
:102290002F73307080915308909154082817390794
:1022A00071F0E0915108F0915208EF5EF74F4083D2
:1022B000309352082093510802C080913601FF915B
:1022C000EF919F918F914F913F912F910F900BBE66
:1022D0000F900FBE0F901F901895E091A508F091F8
:1022E000A608E05CFF4F8191919120813181821B92
:1022F000930B8F739070892B09F0EFDEE091C70884
:10230000F091C808E05CFF4F81919191208131816B
:10231000821B930B8F739070892B09F01EDFE09165
:10232000E908F091EA08E05CFF4F819191912081EA
:102330003181821B930B8F739070892B09F04DDFD5
:10234000E0910B09F0910C09E05CFF4F81919191B4
:1023500020813181821B930B8F739070892B09F040
:102360007CCF08951F920F920FB60F920BB60F926B
:1023700011242F933F938F939F93EF93FF9320917B
:10238000FD063091FE068091FF0690910007281708
:10239000390731F48091C1008F7D8093C10014C052
:1023A000E091FF06F0910007E354F94F20818091FE
:1023B000FF069091000701968F739070909300072D
:1023C0008093FF062093C600FF91EF919F918F911C
:1023D0003F912F910F900BBE0F900FBE0F901F904B
:1023E00018951F920F920FB60F920BB60F921124F1
:1023F0002F933F938F939F93EF93FF9320918507A4
:1024000030918607809187079091880728173907B0
:1024100031F48091C9008F7D8093C90014C0E09190
:102420008707F0918807EB5BF84F20818091870741
:102430009091880701968F7390709093880780938E
:1024400087072093CE00FF91EF919F918F913F914D
:102450002F910F900BBE0F900FBE0F901F901895ED
:102460001F920F920FB60F920BB60F9211242F935B
:102470003F938F939F93EF93FF9320910D0830919B
:102480000E0880910F08909110082817390731F431
:102490008091D1008F7D8093D10014C0E0910F080E
:1024A000F0911008E353F84F208180910F0890912C
:1024B000100801968F7390709093100880930F0806
:1024C0002093D600FF91EF919F918F913F912F9193
:1024D0000F900BBE0F900FBE0F901F9018951F927C
:1024E0000F920FB60F920BB60F9211242F933F93BA
:1024F0008F939F93EF93FF932091950830919608C7
:1025000080919708909198082817390731F48091A5
:1025100031018F7D8093310114C0E0919708F091D3
:102520009808EB5AF74F208180919708909198086E
:1025300001968F73907090939808809397082093DA
:102540003601FF91EF919F918F913F912F910F90C5
:102550000BBE0F900FBE0F901F901895AF92BF92B9
:10256000DF92EF92FF920F931F93CF93DF93EC01D3
:102570007A018B01DD24403081EE580780E0680746
:1025800080E0780711F0DD24D39491E0A92EB12CDE
:10259000EC89FD89DD2069F0C50108A002C0880F23
:1025A000991F0A94E2F7808360E079E08DE390E080
:1025B00005C0108260E874E88EE190E0A801970100
:1025C000E9D52150304040405040569547953795C9
:1025D000279580E12030380720F0DD2011F0DD2440
:1025E000D7CFE889F9893083EA89FB89208319A24A
:1025F000EE89FF89408121E030E0C9010C8C02C0E6
:10260000880F991F0A94E2F7482B4083EE89FF89CF
:102610004081C9010D8C02C0880F991F0A94E2F70E
:10262000482B4083EE89FF894081C9010E8C02C08E
:10263000880F991F0A94E2F7482B4083EE89FF899F
:1026400080810F8C02C0220F331F0A94E2F720957D
:1026500028232083DF91CF911F910F91FF90EF905E
:10266000DF90BF90AF900895DC011C96ED91FC9136
:102670001D97E05CFF4F2191319180819181281B52
:10268000390B2F733070C9010895DC011C96ED9150
:10269000FC911D97E05CFF4F20813181E054F040B8
:1026A000DF01AE5BBF4F8D919C91119728173907C1
:1026B00019F42FEF3FEF07C08D919C91E80FF91FA0
:1026C0008081282F30E0C9010895DC011C96ED912E
:1026D000FC911D97E05CFF4F20813181E054F04078
:1026E000DF01AE5BBF4F8D919C9111972817390781
:1026F00019F42FEF3FEF10C08D919C911197E80FC7
:10270000F91F20818D919C91119701968F73907084
:1027100011969C938E9330E0C9010895DC01919647
:102720008C919197882339F05496ED91FC915597AF
:10273000808186FFF9CF91961C920895CF93DF9305
:10274000EC01EE85FF85E05CFF4F20813181E05494
:10275000F0402F5F3F4F2F733070DF01AE5BBF4FF4
:102760008D919C91119728173907D1F3E05CFF4FA9
:1027700080819181E054F040E80FF91F6083EE857D
:10278000FF85E05CFF4F31832083EE89FF89208144
:1027900081E090E00F8C02C0880F991F0A94E2F745
:1027A000282B208381E089A3EC89FD8980818064C6
:1027B000808381E090E0DF91CF9108951F93109284
:1027C0009C0810929B0828EE33E040E050E02093F4
:1027D0009D0830939E0840939F085093A00860EB9B
:1027E00074E070939A086093990889E796E0909353
:1027F000A6088093A5088DEB96E09093A808809397
:10280000A70885EC90E09093AA088093A90884EC2F
:1028100090E09093AC088093AB0880EC90E09093AC
:10282000AE088093AD0881EC90E09093B00880935F
:10283000AF0882EC90E09093B2088093B10886ECE8
:1028400090E09093B4088093B30814E01093B50817
:10285000B3E0B093B608A7E0A093B708F5E0F09313
:10286000B808E1E0E093B9081092BE081092BD08E4
:102870002093BF083093C0084093C1085093C2080A
:102880007093BC086093BB0881E097E09093C80800
:102890008093C70885E497E09093CA088093C9089D
:1028A0008DEC90E09093CC088093CB088CEC90E07A
:1028B0009093CE088093CD0888EC90E09093D00858
:1028C0008093CF0889EC90E09093D2088093D10850
:1028D0008AEC90E09093D4088093D3088EEC90E03B
:1028E0009093D6088093D5081093D708B093D80852
:1028F000A093D908F093DA08E093DB081092E0087F
:102900001092DF082093E1083093E2084093E30837
:102910005093E4087093DE086093DD0889E897E03F
:102920009093EA088093E9088DEC97E09093EC0887
:102930008093EB0885ED90E09093EE088093ED088E
:1029400084ED90E09093F0088093EF0880ED90E0A4
:102950009093F2088093F10881ED90E09093F40851
:102960008093F30882ED90E09093F6088093F50849
:1029700086ED90E09093F8088093F7081093F9089B
:10298000B093FA08A093FB08F093FC08E093FD08CD
:10299000109202091092010920930309309304094F
:1029A0004093050950930609709300096093FF084E
:1029B00081E198E090930C0980930B0985E598E0FC
:1029C00090930E0980930D0985E391E0909310098F
:1029D00080930F0984E391E0909312098093110989
:1029E00080E391E0909314098093130981E391E0CF
:1029F000909316098093150982E391E0909318094A
:102A00008093170986E391E090931A09809319093E
:102A100010931B09B0931C09A0931D09F0931E0984
:102A2000E0931F091F910895CF93DF93DBD90E9494
:102A30004707CDE6D1E10E94A2062097E1F34DDCE5
:102A4000FACFCF92DF92EF92FF920F931F93CF9323
:102A5000DF937C016B018A01C0E0D0E00FC0D6019A
:102A60006D916D01D701ED91FC910190F081E02D08
:102A7000C7011995C80FD91F015010400115110544
:102A800071F7CE01DF91CF911F910F91FF90EF90E1
:102A9000DF90CF900895EF92FF920F931F938C01D8
:102AA000DC01ED91FC910190F081E02D6DE0199534
:102AB0007C01D801ED91FC910190F081E02DC801DD
:102AC0006AE019959C012E0D3F1DC9011F910F91C0
:102AD000FF90EF900895CF93DF93EC01611571059E
:102AE00019F420E030E00FC0DB010D900020E9F781
:102AF0001197A61BB70BE881F9810280F381E02DC5
:102B0000AD0119959C01C901DF91CF9108954F92B4
:102B10005F927F928F929F92AF92BF92CF92DF92FD
:102B2000EF92FF920F931F93DF93CF93CDB7DEB752
:102B3000A1970FB6F894DEBF0FBECDBF2C01742E47
:102B4000CB01223008F42AE019A231E2C32ED12CA5
:102B5000CC0EDD1E822E9924AA24BB24672D752F4E
:102B6000A501940117D379018A01C801B701A50114
:102B70009401D2D2472D461B0894C108D1084A308F
:102B800014F4405D01C0495CF6014083E114F10496
:102B90000105110521F07E2C5F2DC801DFCFC20198
:102BA000B60199DFA1960FB6F894DEBF0FBECDBF78
:102BB000CF91DF911F910F91FF90EF90DF90CF9019
:102BC000BF90AF909F908F907F905F904F900895AF
:102BD000CF92DF92EF92FF920F931F93CF93DF93E9
:102BE000EC016A017B012115310541F4E881F9818D
:102BF0000190F081E02D642F19951DC02A30310518
:102C0000C9F477FF16C0E881F9810190F081E02DC9
:102C10006DE219958C0144275527BA014C195D09BD
:102C20006E097F09CE012AE072DF9801280F391F53
:102C300003C02AE06CDF9C01C901DF91CF911F9195
:102C40000F91FF90EF90DF90CF900895CF92DF9299
:102C5000EF92FF920F931F936C017B019A01002763
:102C6000F7FC0095102FB801A701B2DF8C01C60157
:102C700012DF080F191FC8011F910F91FF90EF90ED
:102C8000DF90CF90089527CF0895EF92FF920F9392
:102C90001F937C0120DF8C01C701FDDE080F191F87
:102CA000C8011F910F91FF90EF9008952F923F92CE
:102CB0004F925F926F927F928F929F92AF92BF924C
:102CC000CF92DF92EF92FF920F931F93DF93CF93F8
:102CD000CDB7DEB73B014C0119012A016E897F890E
:102CE000888D998D6A197B098C099D09621A730A6E
:102CF000840A950AA40193010FD2E218F30804098B
:102D00001509A801970168D22A0D3B1D4C1D5D1DB8
:102D1000B901CA01CF91DF911F910F91FF90EF9000
:102D2000DF90CF90BF90AF909F908F907F906F90EB
:102D30005F904F903F902F9008955058BB27AA273F
:102D40000ED04DC13ED130F043D120F031F49F3F41
:102D500011F41EF433C10EF4E095E7FB29C1E92F0D
:102D60004FD180F3BA17620773078407950718F0ED
:102D700071F49EF567C10EF4E0950B2EBA2FA02DCD
:102D80000B01B90190010C01CA01A0011124FF2718
:102D9000591B99F0593F50F4503E68F11A16F04013
:102DA000A22F232F342F4427585FF3CF4695379512
:102DB0002795A795F0405395C9F77EF41F16BA0BD7
:102DC000620B730B840BBAF09150A1F0FF0FBB1F85
:102DD000661F771F881FC2F70EC0BA0F621F731FCE
:102DE000841F48F4879577956795B795F7959E3F2B
:102DF00008F0B3CF9395880F08F09927EE0F9795B9
:102E0000879508950CD0EBC0E3D040F0DAD030F0D5
:102E100021F45F3F19F0CCC0511115C1CFC0F0D0E3
:102E200098F39923C9F35523B1F3951B550BBB2791
:102E3000AA2762177307840738F09F5F5F4F220F3E
:102E4000331F441FAA1FA9F333D00E2E3AF0E0E837
:102E500030D091505040E695001CCAF729D0FE2F83
:102E600027D0660F771F881FBB1F26173707480715
:102E7000AB07B0E809F0BB0B802DBF01FF279358CB
:102E80005F4F2AF09E3F510568F092C0DCC05F3F63
:102E9000ECF3983EDCF3869577956795B795F795B3
:102EA0009F5FC9F7880F911D9695879597F90895AB
:102EB000E1E0660F771F881FBB1F62177307840747
:102EC000BA0720F0621B730B840BBA0BEE1F88F756
:102ED000E095089504D06894B111B5C0089598D0D4
:102EE00088F09F5790F0B92F9927B751A0F0D1F0F3
:102EF000660F771F881F991F1AF0BA95C9F712C07D
:102F0000B13081F09FD0B1E008959CC0672F782F39
:102F10008827B85F39F0B93FCCF3869577956795E8
:102F2000B395D9F73EF490958095709561957F4F54
:102F30008F4F9F4F0895E89409C097FB3EF49095FA
:102F40008095709561957F4F8F4F9F4F9923A9F082
:102F5000F92F96E9BB279395F69587957795679511
:102F6000B795F111F8CFFAF4BB0F11F460FF1BC055
:102F70006F5F7F4F8F4F9F4F16C0882311F096E9E8
:102F800011C0772321F09EE8872F762F05C0662396
:102F900071F096E8862F70E060E02AF09A95660F4F
:102FA000771F881FDAF7880F9695879597F9089508
:102FB00097F99F6780E870E060E008959FEF80ECEC
:102FC000089500240A94161617061806090608958F
:102FD00000240A9412161306140605060895092EF5
:102FE0000394000C11F4882352F0BB0F40F4BF2B64
:102FF00011F460FF04C06F5F7F4F8F4F9F4F0895A4
:1030000057FD9058440F551F59F05F3F71F0479599
:10301000880F97FB991F61F09F3F79F0879508957E
:10302000121613061406551FF2CF4695F1DF08C09D
:10303000161617061806991FF1CF869571056105BA
:1030400008940895E894BB2766277727CB0197F962
:1030500008950BD0C4CFB5DF28F0BADF18F0952360
:1030600009F0A6CFABCF1124EECFCADFA0F3959F16
:10307000D1F3950F50E0551F629FF001729FBB275F
:10308000F00DB11D639FAA27F00DB11DAA1F649F0B
:103090006627B00DA11D661F829F2227B00DA11DBE
:1030A000621F739FB00DA11D621F839FA00D611D44
:1030B000221F749F3327A00D611D231F849F600D65
:1030C000211D822F762F6A2F11249F5750408AF09E
:1030D000E1F088234AF0EE0FFF1FBB1F661F771F2A
:1030E000881F91505040A9F79E3F510570F060CF66
:1030F000AACF5F3FECF3983EDCF386957795679512
:10310000B795F795E7959F5FC1F7FE2B880F911D47
:103110009695879597F90895629FD001739FF00166
:10312000829FE00DF11D649FE00DF11D929FF00D57
:10313000839FF00D749FF00D659FF00D9927729F8E
:10314000B00DE11DF91F639FB00DE11DF91FBD0119
:10315000CF0111240895991B79E004C0991F961797
:1031600008F0961B881F7A95C9F78095089597FBFC
:10317000092E07260AD077FD04D049D006D00020BA
:103180001AF4709561957F4F0895F6F790958195A3
:103190009F4F0895A1E21A2EAA1BBB1BFD010DC073
:1031A000AA1FBB1FEE1FFF1FA217B307E407F507F7
:1031B00020F0A21BB30BE40BF50B661F771F881FD3
:1031C000991F1A9469F760957095809590959B0169
:1031D000AC01BD01CF01089597FB092E05260ED045
:1031E00057FD04D0D7DF0AD0001C38F45095409525
:1031F000309521953F4F4F4F5F4F0895F6F79095CB
:103200008095709561957F4F8F4F9F4F0895AA1BB2
:10321000BB1B51E107C0AA1FBB1FA617B70710F0C1
:10322000A61BB70B881F991F5A95A9F780959095F3
:10323000BC01CD010895EE0FFF1F0590F491E02D24
:063240001994F894FFCF81
:10324600696E2063616E20696E6974206E6F726D9F
:10325600616C0A004D435032353135206973204E7A
:103266004F5420696E20636F6E666967757261746C
:10327600696F6E206D6F6465616674657220726534
:10328600736574210A002027556E646572776F7224
:103296006C64205468656D65270020274D6172694E
:1032A6006F205468656D652700494E495420444F88
:1032B6004E452E205354415455533A200014004D88
:1032C6000A4D0A00004D0A00002D084D0A00004074
:1032D6000C00000000000020060000000000002D89
:1032E600080000000020060000000027050000007E
:1032F60000E0060000B80700004907E006000020CD
:10330600064D0A400CC00D0000EA0A400C00004DB4
:103316000A00002D082D09B807000000002D08003E
:10332600000000200600000000270500000000E065
:10333600060000B80700004907E006000020064D19
:103346000A400CC00D0000EA0A400C00004D0A00BD
:10335600002D082D09B807000000000C000C000C19
:10336600000C000C000C000C000C000C000C000CF7
:10337600000C000C000C000C000C000C000C000CE7
:10338600000C000C000C000C000C000C000C000CD7
:10339600000C000C000C000C000C000900090009D0
:1033A600000C000C000C000C000C000C000C000CB7
:1033B600000C000C000C000C000C000C000C000CA7
:1033C600000C000C000C000C000C000C000C000C97
:1033D600000C000C000C000C000900090009000C90
:1033E600000C000C000C000C000C000C000C000C77
:1033F600000C000C000C0006010B02DC00B801E911
:1034060000D2010000000006010B02DC00B801E951
:1034160000D20100000000AF005D01930026019C70
:1034260000370100000000AF005D01930026019CFB
:10343600003701000000003701150126011501378C
:10344600013701D000C4001501060172015D01A516
:1034560000D201B8019F013701F700E900DC00D076
:10346600000000000000000C000C000C000C000C1A
:10347600000C00060003000C000C000C000C000CF5
:10348600000C00060003000C000C000C000C000CE5
:10349600000C00060003000C000C000C000C000CD5
:1034A600000C0006000600120012001200060006BC
:1034B60000060006000600060012001200120012A6
:1034C60000120012000A000A000A000A000A000A96
:1034D6000003000300030036004400010000000062
:1034E600B90B890B420B4B0B600B710B00000000F4
:0C34F6009E1321153413651345138E132B
:00000001FF
