:100000000C9438000C9455000C9455000C94550039
:100010000C9455000C9455000C9455000C9455000C
:100020000C9455000C9455000C9455000C945500FC
:100030000C9455000C9455000C9455000C945500EC
:100040000C9455000C9455000C9455000C945500DC
:100050000C9455000C9455000C9455000C945500CC
:100060000C9455000C9455000C9455000C945500BC
:1000700011241FBECFEFD4E0DEBFCDBF11E0A0E062
:10008000B1E0E0E1FEE002C005900D92A439B107B5
:10009000D9F721E0A4E9B1E001C01D92AE39B20761
:1000A000E1F70E9439010C9406070C94000087B315
:1000B00087BB8FEF88BB08950E94C70140E460EEC4
:1000C0008FE00E94A90108951F93CF93DF93EC0165
:1000D0004A816FE085E30E94A90168816295660FFD
:1000E000607E82E30E9497016881798176956795A9
:1000F000769567957695679581E30E9497018A8149
:10010000882369F010E0FE01E10FF11D638186E3B1
:10011000810F0E9497011F5F8A811817A0F348E0A2
:100120006FEF80E30E94A901DF91CF911F910895A5
:1001300080E30E9489018E7090E008958F929F92D3
:10014000AF92BF92CF92DF92EF92FF920F931F93E5
:10015000CF93DF9300D0CDB7DEB78C01FC011282C4
:100160008CE20E948901F82E85E60E948901982E72
:1001700085E70E948901F0FE68C082E60E9489013D
:100180008077E82EF12CF594E794F594E794F594B4
:10019000E794F594E794F594E79481E60E94890149
:1001A000F8E08F9F6001112497012C0D3D1D3A83CB
:1001B000298329813A81F801318320833A83298375
:1001C00029813A813F932F93DF92CF92FF92EF9252
:1001D0001F920F2EFAE28F2EF02D8F920F2EF8E045
:1001E000AF2EF1E0BF2EF02DBF92AF920E94CC0255
:1001F000F80181818F9380818F93DF92CF92FF925C
:10020000EF921F928F92BF92AF920E94CC02892DE3
:100210008F70F80182830FB6F894DEBF0FBECDBF9A
:10022000882371F0F12C86E68F0D0E948901F80178
:10023000EF0DF11D8383F394F8018281F81698F392
:1002400040E061E08CE20E94A9010F900F90DF91E5
:10025000CF911F910F91FF90EF90DF90CF90BF90C3
:10026000AF909F908F90089580E885BF80E280BF17
:100270000895CF93DF93CDB7DEB72B970FB6F894E1
:10028000DEBF0FBECDBF8FE190E00E9473020E94DF
:1002900034010E9457000E94D9010E945D020E9411
:1002A0005C008AEE93E09A83898388E08B83FE0169
:1002B000349680E081938F5F8830E1F70F2EFAE269
:1002C000FF2EF02D01E511E0CE0101960E946400A1
:1002D0000E949800892BE1F32FEF81EE94E02150EA
:1002E00080409040E1F700C00000CE0101960E94DE
:1002F0009E008F811F928F931F92FF921F930F93E7
:100300000E94CC020F900F900F900F900F900F90C3
:10031000DBCFCF93C82FC49883E00E9462028C2F5A
:100320000E9462020E946602C49ACF910895CF9300
:10033000DF93D82FC62FC49882E00E9462028D2FCF
:100340000E9462028C2F0E946202C49ADF91CF91B8
:1003500008951F93CF93DF93182FD62FC42FC498DF
:1003600085E00E946202812F0E9462028D2F0E940E
:1003700062028C2F0E946202C49ADF91CF911F917A
:100380000895C49880EC0E946202C49A08950E9465
:100390005D020E94C1018EE00E948901807E80384A
:1003A00031F083E691E00E94E00281E0089580E070
:1003B0000895E0910601F09107018EEA8083E091B3
:1003C0000601F091070181EA8083E0910601F09136
:1003D00007018AED8083E0910601F091070182E137
:1003E0008083E0910601F091070188EC8083E09121
:1003F0000601F091070188EA8083E0910601F091FF
:1004000007018FE38083E0910601F091070185EDFC
:100410008083E0910601F091070180E88083E091FC
:100420000601F091070181E88083E0910601F091D7
:10043000070180E58083E0910601F091070189EDD5
:100440008083E0910601F091070181E28083E091D1
:100450000601F091070180E28083E0910601F091AE
:10046000070182E08083E0910601F09107018BEDA6
:100470008083E0910601F091070180E38083E091A1
:100480000601F09107018DEA8083E0910601F09169
:1004900007011082E0910601F091070184EA808350
:1004A000E0910601F091070186EA8083E091060160
:1004B000F09107018FEA8083089580EB87BB81E587
:1004C0008DB908958FB9779BFECF08951FB8779B9C
:1004D000FECF8FB108955D9BFECF8CB908955F9BD1
:1004E000FECF8CB10895899A90BD89B988E18AB907
:1004F00086E880BD6FE672E08BE692E00E948102A2
:1005000008950F931F93CF93DF93EC018B01009716
:1005100031F46115710519F480E090E038C06EE0A7
:1005200070E081E090E00E94DF04FC010097A1F3FD
:1005300080E883830115110571F01387028781E834
:1005400083838091940190919501892B21F4F093FC
:100550009501E09394012097C9F0D187C0878381EA
:10056000826083838091960190919701892B71F429
:10057000F0939701E09396018091980190919901F1
:10058000892B21F4F0939901E0939801CF01DF9139
:10059000CF911F910F910895A0E0B0E0E2EDF2E05D
:1005A0000C94DF06FE01359661917191AF01809147
:1005B0009601909197010E940D03E2E00C94FB06D6
:1005C0000F931F93CF93DF93E0919601F0919701E2
:1005D000238121FF1BC0EC0100E010E089916091B4
:1005E000960170919701DB011896ED91FC91199796
:1005F000882331F00995892B89F30FEF1FEFEECF98
:100600008AE00995892B11F4C80102C08FEF9FEF92
:10061000DF91CF911F910F910895ACE0B0E0E3E13D
:10062000F3E00C94CF067C016B018A01FC01178278
:100630001682838181FFBDC1CE0101964C01F70175
:100640009381F60193FD859193FF81916F0188233A
:1006500009F4ABC1853239F493FD859193FF819103
:100660006F01853229F4B70190E00E943F06E7CF81
:10067000512C312C20E02032A0F48B3269F030F480
:10068000803259F0833269F420612CC08D3239F008
:10069000803339F4216026C02260246023C02860A2
:1006A00021C027FD27C030ED380F3A3078F426FFFF
:1006B00006C0FAE05F9E300D1124532E13C08AE06D
:1006C000389E300D1124332E20620CC08E3221F45E
:1006D00026FD6BC1206406C08C3611F4206802C070
:1006E000883641F4F60193FD859193FF81916F0166
:1006F0008111C1CF982F9F7D9554933028F40C5FC2
:100700001F4FFFE3F9830DC0833631F0833771F05B
:10071000833509F05BC022C0F801808189830E5FB8
:100720001F4F44244394512C540115C03801F2E06A
:100730006F0E711CF801A080B18026FF03C0652DEB
:1007400070E002C06FEF7FEFC5012C870E94340676
:100750002C0183012C852F77222E17C03801F2E05F
:100760006F0E711CF801A080B18026FF03C0652DBB
:1007700070E002C06FEF7FEFC5012C870E94220658
:100780002C012C852068222E830123FC1BC0832D85
:1007900090E048165906B0F4B70180E290E00E945C
:1007A0003F063A94F4CFF50127FC859127FE81910D
:1007B0005F01B70190E00E943F0631103A94F1E0EA
:1007C0004F1A51084114510471F7E5C0843611F0F5
:1007D000893639F5F80127FF07C060817181828170
:1007E00093810C5F1F4F08C060817181882777FD5E
:1007F0008095982F0E5F1F4F2F76B22E97FF09C05E
:1008000090958095709561957F4F8F4F9F4F206891
:10081000B22E2AE030E0A4010E947106A82EA8188A
:1008200044C0853729F42F7EB22E2AE030E025C05F
:10083000F22FF97FBF2E8F36C1F018F4883579F08A
:10084000B4C0803719F0883721F0AFC02F2F206156
:10085000B22EB4FE0DC08B2D8460B82E09C024FFCB
:100860000AC09F2F9660B92E06C028E030E005C070
:1008700020E130E002C020E132E0F801B7FE07C01D
:1008800060817181828193810C5F1F4F06C06081FE
:10089000718180E090E00E5F1F4FA4010E947106FD
:1008A000A82EA818FB2DFF77BF2EB6FE0BC02B2D50
:1008B0002E7FA51450F4B4FE0AC0B2FC08C02B2D44
:1008C0002E7E05C07A2C2B2D03C07A2C01C0752CEE
:1008D00024FF0DC0FE01EA0DF11D8081803311F46B
:1008E000297E09C022FF06C07394739404C0822F2E
:1008F000867809F0739423FD13C020FF06C05A2C9C
:10090000731418F4530C5718732C731468F4B7014C
:1009100080E290E02C870E943F0673942C85F5CFEF
:10092000731410F4371801C0312C24FF12C0B70122
:1009300080E390E02C870E943F062C8522FF17C0A1
:1009400021FF03C088E590E002C088E790E0B7018E
:100950000CC0822F867859F021FD02C080E201C0D0
:100960008BE227FD8DE2B70190E00E943F06A514BF
:1009700038F4B70180E390E00E943F065A94F7CF25
:10098000AA94F401EA0DF11D8081B70190E00E9464
:100990003F06A110F5CF332009F451CEB70180E214
:1009A00090E00E943F063A94F6CFF7018681978146
:1009B00002C08FEF9FEF2C96E2E10C94EB060F93B1
:1009C0001F93CF93DF93869F8001879F100D969F83
:1009D000100D1124C8010E94FB04EC01009729F0BE
:1009E000A80160E070E00E942D06CE01DF91CF915A
:1009F0001F910F910895CF93DF938230910510F4EA
:100A000082E090E0E0919C01F0919D0120E030E0D7
:100A1000A0E0B0E0309739F1408151814817590783
:100A2000B8F04817590771F482819381109729F023
:100A300013969C938E9312972CC090939D01809354
:100A40009C0127C02115310531F04217530718F0DA
:100A5000A901DB0101C0EF019A01BD01DF010280A4
:100A6000F381E02DD7CF21153105F9F0281B390B83
:100A70002430310580F48A819B816115710521F054
:100A8000FB019383828304C090939D0180939C011A
:100A9000FE01329644C0FE01E20FF31F8193919351
:100AA00022503109398328833AC020919A0130912C
:100AB0009B01232B41F420910201309103013093DB
:100AC0009B0120939A012091000130910101211591
:100AD000310541F42DB73EB7409104015091050115
:100AE000241B350BE0919A01F0919B01E217F3076B
:100AF000A0F42E1B3F0B2817390778F0AC014E5F8E
:100B00005F4F2417350748F04E0F5F1F50939B012E
:100B100040939A018193919302C0E0E0F0E0CF010D
:100B2000DF91CF910895CF93DF93009709F487C0A9
:100B3000FC01329713821282C0919C01D0919D01D9
:100B4000209781F420813181280F391F80919A01EB
:100B500090919B018217930779F5F0939B01E093A5
:100B60009A016DC0DE0120E030E0AE17BF0750F4FF
:100B700012964D915C9113979D014115510509F114
:100B8000DA01F3CFB383A28340815181840F951F93
:100B90008A179B0771F48D919C911197840F951F73
:100BA00002969183808312968D919C9113979383E3
:100BB00082832115310529F4F0939D01E0939C0176
:100BC0003EC0D9011396FC93EE9312974D915D911F
:100BD000A40FB51FEA17FB0779F480819181840F78
:100BE000951F0296D90111969C938E9382819381D1
:100BF00013969C938E931297E0E0F0E08A819B819C
:100C0000009719F0FE01EC01F9CFCE010296288180
:100C10003981820F931F20919A0130919B012817EF
:100C2000390769F4309729F410929D0110929C01C4
:100C300002C013821282D0939B01C0939A01DF916C
:100C4000CF910895FC010590615070400110D8F7D4
:100C5000809590958E0F9F1F0895DC0101C06D93C4
:100C600041505040E0F70895FC0161507040019000
:100C70000110D8F7809590958E0F9F1F08950F93C0
:100C80001F93CF93DF93182F092FEB018B8181FDE9
:100C900003C08FEF9FEF20C082FF10C04E815F81A5
:100CA0002C813D81421753077CF4E881F9819F0133
:100CB0002F5F3F4F39832883108306C0E885F9856D
:100CC000812F0995892B29F72E813F812F5F3F4F77
:100CD0003F832E83812F902FDF91CF911F910F9112
:100CE0000895FA01AA27283051F1203181F1E894C2
:100CF0006F936E7F6E5F7F4F8F4F9F4FAF4FB1E00F
:100D00003ED0B4E03CD0670F781F891F9A1FA11D09
:100D1000680F791F8A1F911DA11D6A0F711D811D0A
:100D2000911DA11D20D009F468943F912AE0269FCF
:100D300011243019305D3193DEF6CF010895462F2E
:100D40004770405D4193B3E00FD0C9F7F6CF462F0F
:100D50004F70405D4A3318F0495D31FD4052419378
:100D600002D0A9F7EACFB4E0A69597958795779535
:100D70006795BA95C9F700976105710508959B01BC
:100D8000AC010A2E06945795479537952795BA9545
:100D9000C9F7620F731F841F951FA01D08952F921E
:100DA0003F924F925F926F927F928F929F92AF92FB
:100DB000BF92CF92DF92EF92FF920F931F93CF9348
:100DC000DF93CDB7DEB7CA1BDB0B0FB6F894DEBFDF
:100DD0000FBECDBF09942A88398848885F846E8405
:100DE0007D848C849B84AA84B984C884DF80EE804F
:100DF000FD800C811B81AA81B981CE0FD11D0FB658
:100E0000F894DEBF0FBECDBFED010895F894FFCF7B
:100E100000009E0120000010626F676F20766172F3
:100E20006961626C652025642C206C656173742097
:100E30002564202B206D6F7374202575203D207351
:100E4000756D20257520200A0A005374617274693B
:100E50006E67205352414D20746573742E2E2E0DF3
:100E600000626F676F3A2025642C2069643A202560
:100E7000640A004D435032353135206973204E4F9E
:100E80005420696E636F6E66696775726174696F0D
:100E90006E206D6F6465616674657220726573653E
:040EA00074210000B9
:00000001FF
