:100000000C94B4010C94D1010C94D1010C94D10145
:100010000C94D1010C94D1010C94D1010C94D10118
:100020000C94D1010C94D1010C94D1010C94D10108
:100030000C94D1010C94D1010C94D1010C94D101F8
:100040000C94D1010C94D1010C94D1010C94D101E8
:100050000C94D1010C94D1010C94D1010C94D101D8
:100060000C94D1010C94D1010C94D1010C94D101C8
:10007000000000000000000000065F5F06000000B6
:100080000007070007070000147F7F147F7F14001C
:10009000242E6B6B3A120000466630180C66620024
:1000A000307A4F5D377A48000407030000000000F3
:1000B000001C3E63410000000041633E1C00000044
:1000C000082A3E1C1C3E2A0808083E3E080800007C
:1000D00000A0E06000000000080808080808000010
:1000E00000006060000000006030180C0603010092
:1000F0003E7F594D7F3E000042427F7F40400000DE
:10010000627359496F660000226349497F360000D7
:10011000181C16137F7F1000276745457D390000A6
:100120003C7E4B4979300000036371190F070000D2
:10013000367F49497F360000064F49693F1E00005F
:1001400000006C6C0000000000A0EC6C00000000DF
:10015000081C366341000000141414141414000029
:10016000004163361C080000020351590F060000CD
:100170003E7F415D5D1F1E007C7E13137E7C000070
:10018000417F7F49497F36001C3E63414163220025
:10019000417F7F41637F1C00417F7F495D41630058
:1001A000417F7F491D0103001C3E63415173720072
:1001B0007F7F08087F7F000000417F7F41000000B3
:1001C000307040417F3F0100417F7F081C77630012
:1001D000417F7F41406070007F7F060C067F7F007B
:1001E0007F7F060C187F7F001C3E6341633E1C002E
:1001F000417F7F49090F06001E3F21717F5E00008D
:10020000417F7F19396F460026674D597B320000C8
:1002100003417F7F410300007F7F40407F7F0000DC
:100220001F3F60603F1F00007F7F3018307F7F00DE
:1002300063771C081C776300074F78784F0700002E
:100240006773594D47637100007F7F414100000093
:100250000103060C183060000041417F7F00000060
:10026000080C0603060C0800808080808080808057
:100270000000030704000000207454543C78400040
:10028000413F7F44447C3800387C44446C28000063
:10029000307848493F7F4000387C54545C18000057
:1002A000487E7F490302000098BCA4A4F87C0400A7
:1002B000417F7F08047C780000447D7D4000000081
:1002C00040C484FD7D000000417F7F10386C4400F5
:1002D00000417F7F400000007C7C0C180C7C780083
:1002E0007C7C04047C780000387C44447C3800002A
:1002F00084FCF8A4243C1800183C24A4F8FC8400D6
:10030000447C78441C180000485C54547424000059
:1003100000043E7F442400003C7C40403C7C400084
:100320001C3C60603C1C00003C7C6030607C3C00FD
:10033000446C3810386C44009CBCA0A0FC7C0000CD
:100340004C64745C4C64000008083E774141000036
:1003500000000077770000004141773E0808000068
:10036000020301030203010011241FBECFEFD4E0FA
:10037000DEBFCDBF11E0A0E0B1E0E8E3FDE002C0E8
:1003800005900D92AA37B107D9F721E0AAE7B1E0AD
:1003900001C01D92A438B207E1F70E94F5010C9448
:1003A0009A060C940000E0910601F09107018D5F20
:1003B000808383ED90E30197F1F700C00000E091A6
:1003C0000601F0910701808108955D9BFECF8CB9F5
:1003D00008955F9BFECF8CB10895899A90BD89B92D
:1003E00088E18AB986E880BD08958FE190E00E9497
:1003F000ED0180E885BF80E280BF69EE71E085EEA7
:1004000091E00E9405050E94CA020E94B1020E946A
:100410001A020E9495030E94A10381E40E94A60390
:100420002FEF81EE94E0215080409040E1F700C032
:100430000000F3CF8F929F92AF92BF92CF92DF9244
:10044000EF92FF92CF93DF93CAE0D0E0C12CD12C82
:1004500076014601570182E090E00E94D301BC0181
:10046000882777FD8095982F0E9479049B01AC0125
:10047000C501B4010E94AB034B015C0181E090E037
:100480000E94D301BC01882777FD8095982F0E9498
:1004900079049B01AC01C701B6010E94AB036B015B
:1004A0007C0121972097B9F620E030E040E251E44A
:1004B000C501B4010E940F0460930C0170930D01FB
:1004C00080930E0190930F0120E030E040E251E470
:1004D000C701B6010E940F046093080170930901DF
:1004E00080930A0190930B01DF91CF91FF90EF90E1
:1004F000DF90CF90BF90AF909F908F90089528E0AD
:10050000829FC00111248059904020E030E0FC011E
:1005100045915491E0911201F09113014083E3EC75
:10052000F9E03197F1F700C000002F5F3F4F0196CF
:100530002830310561F70895E0911401F09115011B
:100540001082E0911401F091150180E180830895FB
:100550008055E0911401F091150180830E949C0266
:100560000895CF93DF93C0E0D0E08C2F0E94A802C3
:100570009D2FE0911201F091130110829F5F90383E
:10058000C1F7CF5FC83089F780E00E94A802DF91F1
:10059000CF910895E0911401F09115018EEA8083C6
:1005A000E0911401F091150181EA8083E09114013A
:1005B000F09115018AED8083E0911401F09115010D
:1005C00082E18083E0911401F091150188EC808331
:1005D000E0911401F091150188EA8083E091140103
:1005E000F09115018FE38083E0911401F0911501E2
:1005F00085ED8083E0911401F091150180E88083FE
:10060000E0911401F091150181E88083E0911401DB
:10061000F091150180E58083E0911401F0911501BE
:1006200089ED8083E0911401F091150181E28083CE
:10063000E0911401F091150180E28083E0911401B2
:10064000F091150182E08083E0911401F091150191
:100650008BED8083E0911401F091150180E380839C
:10066000E0911401F09115018DEA8083E09114016D
:10067000F09115011082E0911401F091150184EAC6
:100680008083E0911401F091150186EA8083E09166
:100690001401F09115018FEA8083E0911401F0912B
:1006A000150180E48083E0911401F09115018083AD
:1006B0000895CF93DF93EC018881882331F0219650
:1006C0000E947F0289918111FBCFDF91CF91089524
:1006D0000F931F93CF93DF930E94B10206E111E0C5
:1006E000C0E0D0E08C2F880F0E94A8022196809154
:1006F000100190911101C817D90729F48EE191E0FA
:100700000E94590304C081E291E00E945903F8015C
:10071000819191918F010E945903C330D10511F746
:10072000DF91CF911F910F9108950E9468030E945D
:100730009C0280E00E94A8028EE191E00E94590391
:10074000089580EB87BB81E58DB908958FB9779BBC
:10075000FECF08955058BB27AA270ED01CC10DD13B
:1007600030F012D120F031F49F3F11F41EF402C199
:100770000EF4E095E7FBF8C0E92F1ED180F3BA171D
:10078000620773078407950718F071F49EF536C168
:100790000EF4E0950B2EBA2FA02D0B01B90190019C
:1007A0000C01CA01A0011124FF27591B99F0593FE0
:1007B00050F4503E68F11A16F040A22F232F342F28
:1007C0004427585FF3CF469537952795A795F04076
:1007D0005395C9F77EF41F16BA0B620B730B840B8B
:1007E000BAF09150A1F0FF0FBB1F661F771F881F43
:1007F000C2F70EC0BA0F621F731F841F48F487959B
:1008000077956795B795F7959E3F08F0B3CF939589
:10081000880F08F09927EE0F9795879508950CD0CB
:10082000BAC0B2D040F0A9D030F021F45F3F19F047
:100830009BC05111E4C09EC0BFD098F39923C9F367
:100840005523B1F3951B550BBB27AA2762177307D6
:10085000840738F09F5F5F4F220F331F441FAA1F8A
:10086000A9F333D00E2E3AF0E0E830D0915050404A
:10087000E695001CCAF729D0FE2F27D0660F771FF8
:10088000881FBB1F261737074807AB07B0E809F0DA
:10089000BB0B802DBF01FF2793585F4F2AF09E3F6F
:1008A000510568F061C0ABC05F3FECF3983EDCF3EC
:1008B000869577956795B795F7959F5FC9F7880FE8
:1008C000911D9695879597F90895E1E0660F771F3A
:1008D000881FBB1F621773078407BA0720F0621BCB
:1008E000730B840BBA0BEE1F88F7E0950895E8941C
:1008F00009C097FB3EF490958095709561957F4F68
:100900008F4F9F4F9923A9F0F92F96E9BB27939515
:10091000F695879577956795B795F111F8CFFAF425
:10092000BB0F11F460FF1BC06F5F7F4F8F4F9F4F56
:1009300016C0882311F096E911C0772321F09EE8B4
:10094000872F762F05C0662371F096E8862F70E01A
:1009500060E02AF09A95660F771F881FDAF7880FF4
:100960009695879597F9089597F99F6780E870E0C5
:1009700060E008959FEF80EC089500240A94161615
:10098000170618060906089500240A94121613067D
:10099000140605060895092E0394000C11F488230B
:1009A00052F0BB0F40F4BF2B11F460FF04C06F5F27
:1009B0007F4F8F4F9F4F089557FD9058440F551FFD
:1009C00059F05F3F71F04795880F97FB991F61F0D1
:1009D0009F3F79F087950895121613061406551F48
:1009E000F2CF4695F1DF08C0161617061806991FB4
:1009F000F1CF86957105610508940895E894BB27A9
:100A000066277727CB0197F908950F931F93CF930C
:100A1000DF93EC018B01009731F46115710519F436
:100A200080E090E038C06EE070E081E090E00E94ED
:100A30005005FC010097A1F380E88383011511059F
:100A400071F01387028781E8838380917A01909106
:100A50007B01892B21F4F0937B01E0937A012097AD
:100A6000C9F0D187C08783818260838380917C01B4
:100A700090917D01892B71F4F0937D01E0937C01CD
:100A800080917E0190917F01892B21F4F0937F0169
:100A9000E0937E01CF01DF91CF911F910F910895D7
:100AA0000F931F93CF93DF93869F8001879F100D35
:100AB000969F100D1124C8010E946C05EC0100974F
:100AC00029F0A80160E070E00E949306CE01DF915A
:100AD000CF911F910F910895CF93DF9382309105AD
:100AE00010F482E090E0E0918201F091830120E037
:100AF00030E0A0E0B0E0309739F1408151814817F3
:100B00005907B8F04817590771F4828193811097FB
:100B100029F013969C938E9312972CC09093830187
:100B20008093820127C02115310531F04217530708
:100B300018F0A901DB0101C0EF019A01BD01DF013D
:100B40000280F381E02DD7CF21153105F9F0281B64
:100B5000390B2430310580F48A819B816115710540
:100B600021F0FB019383828304C0909383018093DF
:100B70008201FE01329644C0FE01E20FF31F819311
:100B8000919322503109398328833AC02091800102
:100B900030918101232B41F4209102013091030116
:100BA0003093810120938001209100013091010157
:100BB0002115310541F42DB73EB740910401509104
:100BC0000501241B350BE0918001F0918101E217B2
:100BD000F307A0F42E1B3F0B2817390778F0AC0160
:100BE0004E5F5F4F2417350748F04E0F5F1F50933D
:100BF0008101409380018193919302C0E0E0F0E095
:100C0000CF01DF91CF910895CF93DF93009709F43F
:100C100087C0FC01329713821282C0918201D09169
:100C20008301209781F420813181280F391F809121
:100C30008001909181018217930779F5F0938101EA
:100C4000E09380016DC0DE0120E030E0AE17BF0709
:100C500050F412964D915C9113979D0141155105E9
:100C600009F1DA01F3CFB383A28340815181840F6C
:100C7000951F8A179B0771F48D919C911197840F92
:100C8000951F02969183808312968D919C91139764
:100C9000938382832115310529F4F0938301E09336
:100CA00082013EC0D9011396FC93EE9312974D91A9
:100CB0005D91A40FB51FEA17FB0779F4808191813C
:100CC000840F951F0296D90111969C938E93828171
:100CD000938113969C938E931297E0E0F0E08A81C3
:100CE0009B81009719F0FE01EC01F9CFCE0102962D
:100CF00028813981820F931F2091800130918101D9
:100D00002817390769F4309729F41092830110925B
:100D1000820102C013821282D0938101C0938001AC
:100D2000DF91CF910895DC0101C06D934150504097
:080D3000E0F70895F894FFCFED
:100D3800000084012000001400000043000000436C
:100D48000100001200106B015C014D013E013E00E4
:100D5800202000650063757272656E74203D202541
:100D6800640970726576203D2025640A0A0009200E
:100D7800556E6465726D656E792073690020202058
:100D88004D656E75204974656D2033002020204D17
:100D9800656E75204974656D2032002020204D65F0
:0A0DA8006E75204974656D2031005E
:00000001FF
