:1000000004C100002FC100002DC100002BC1000061
:1000100029C1000027C1000025C1000023C1000044
:1000200021C100001FC100001DC100001BC1000054
:1000300019C1000017C1000015C1000013C1000064
:1000400011C100000C9481090DC100000BC100001A
:1000500009C1000007C1000005C100000C949C0C00
:1000600001C100000C94C30E0C940710FBC00000EB
:10007000F9C00000F7C00000F5C00000F3C00000A8
:100080000C945409EFC00000EDC00000EBC000006C
:100090000C94030F0C944610E5C000000C94EB0A7E
:1000A000E1C00000DFC000000C942709DBC00000A5
:1000B000D9C00000D7C00000D5C000000C94FA08D9
:1000C000D1C00000CFC00000CDC000000C94430F91
:1000D0000C948510C7C000000C94830F0C94C410BE
:1000E000C1C0000000002100240027002A002D00CC
:1000F0003000330001010000040107010A01000083
:100100002200250028002B002E00310034000201BF
:100110000000050108010B0100002000230026005B
:1001200029002C002F00320000010000030106010D
:10013000090105050505070508080808020202026D
:100140000A0A080804040404010101010101010173
:100150000303030303030303040707070C0C0C0C3E
:100160000C0C0C0C02020202060606060606060627
:100170000B0B0B0B0B0B0B0B0102102020080810B4
:100180002040102040800201020108040201010207
:1001900004081020408080402010080402018004E0
:1001A000020180402010080402010804020101023B
:1001B0000408102040800102040810204080000044
:1001C000090A02080B0C0D070603040100000000D9
:1001D000000000000000000000000000000000001F
:1001E0000000000000000000000011100F000000DF
:1001F00000000000000000000000000000000000FF
:10020000000000005706E809331211241FBECFEF8B
:10021000D1E2DEBFCDBF00E00CBF13E0A0E0B2E052
:10022000E0EFFEE200E00BBF02C007900D92AA389B
:10023000B107D9F71BBE17E0AAE8B3E001C01D92D1
:10024000AD3CB107E1F712E0CAE0D2E004C022976A
:10025000FE010E947217C430D107C9F70E946913CA
:100260000C947617CDCE80918C0390918D030895D8
:1002700085E497E00E948911892B41F085E497E09D
:100280000E94BA1190938B0380938A0380918A0312
:1002900090918B030895892B21F08091640261E095
:1002A00003C08091640260E00C94900EDF93CF93C2
:1002B000CDB7DEB7888999898230910520F4909373
:1002C0008D0380938C0380918C0390918D038130FA
:1002D000910519F481E090E004C0892B19F480E0C5
:1002E00090E0D9DFCF91DF9108958091640261E0C1
:1002F0000E94DD0D8091640260E00C94900E1092DB
:100300008F0310928E030895DF93CF93CDB7DEB79E
:100310008A859B8590938F0380938E03CF91DF9185
:10032000089580918E0390918F0308951092910308
:1003300010929003109297031092960310929903D3
:100340001092980387E090E0909395038093940334
:10035000109293031092920385E090E090939B0398
:1003600080939A0381E090E090939D0380939C0397
:1003700010929F0310929E030895809192030E9411
:10038000A90D909391038093900308950F931F9369
:10039000CF93DF9300E010E0C0E0D0E0EEDF080F85
:1003A000191F2196CA30D105C9F7C8016AE070E06B
:1003B0000E940C17709391036093900385E497E07B
:1003C00060E072E00E949814609190037091910334
:1003D00085E497E04AE050E00E947B14209190036E
:1003E00030919103C9014597C197D8F02531310566
:1003F00094F485E497E06BE072E00E9498146091B9
:1004000090037091910385E497E04AE050E00E94E8
:100410007B1481E007C085E497E064E172E00E940C
:10042000981480E0DF91CF911F910F910895AEDF76
:100430008823A9F08091960390919703892B19F551
:10044000109299031092980381E090E090939703A3
:100450008093960390939F0380939E0314C0809192
:10046000980390919903892B71F481E090E0909327
:100470009903809398031092970310929603109219
:100480009F0310929E038DB79EB744970FB6F894C2
:100490009EBF0FBE8DBFADB7BEB71196EAE9F3E0C0
:1004A00084E101900D928150E1F7ECD08DB79EB7B9
:1004B00044960FB6F8949EBF0FBE8DBF08958091ED
:1004C000AE039091AF030895DF93CF93CDB7DEB71E
:1004D0008E859F858130910519F482E090E004C0FB
:1004E000892B31F481E090E09093AF038093AE03C9
:1004F000CF91DF910895DF93CF93CDB7DEB78A8593
:100500009B854A895B892C853D853093B103209377
:10051000B0039093B3038093B2038091AE039091A4
:10052000AF03019721F45093B5034093B403CF91E7
:10053000DF910895883729F0893741F0833781F4B6
:100540000AC08091B0039091B10308958091B203E5
:100550009091B30308958091B4039091B5030895E9
:1005600008958091B4039091B503892B21F0809177
:10057000660260E003C08091660261E00C94900E18
:100580008091660260E00E94900E64E670E080E078
:1005900090E00E94E40C8091660261E00C94900E61
:1005A00082E390E09093B1038093B0039093B30300
:1005B0008093B2031092B5031092B40382E090E0EE
:1005C0009093AF038093AE038091660261E00E9436
:1005D000DD0D8091660261E00C94900EFF920F9306
:1005E0001F93182F062FF42E85E360E00E94900ED3
:1005F00085E08EBD0DB407FEFDCF8EB51EBD0DB4DA
:1006000007FEFDCF8EB50EBD0DB407FEFDCF8EB536
:10061000FEBC0DB407FEFDCF8EB585E361E00E9400
:10062000900E1F910F91FF90089585E360E00E9466
:10063000900E81E88EBD0DB407FEFDCF8EB585E32B
:1006400061E00C94900E0F931F93082F162F85E3F3
:1006500060E00E94900E82E08EBD0DB407FEFDCFDB
:100660008EB51EBD0DB407FEFDCF8EB50EBD0DB40B
:1006700007FEFDCF8EB585E361E00E94900E1F91CD
:100680000F910895CF92DF92EF92FF920F931F93F5
:10069000DF93CF93CDB7DEB70E851F858C859D8503
:1006A00061E370E0D0DFC80165E370E0CCDF90E18A
:1006B000C92ED12CCC0EDD1E86E3E82EF12C0A5C6F
:1006C0001F4F09C0F601819191916F01B701BBDF06
:1006D0000894E11CF11CE016F106A1F781E090E01E
:1006E000A4DFCF91DF911F910F91FF90EF90DF90EA
:1006F000CF9008951F93182F85E360E00E94900E1D
:1007000083E08EBD0DB407FEFDCF8EB51EBD0DB4CA
:1007100007FEFDCF8EB51EBC0DB407FEFDCF1EB586
:1007200085E361E00E94900E812F90E01F91089573
:10073000EF92FF920F931F93CF93DF937C018CE294
:1007400090E0D8DF81E690E0D5DFF70191838083E8
:1007500085E690E0CFDFF701938382838701C0E0D5
:10076000D0E008C0CE018A599F4FC4DFF8019383BF
:10077000828321960E5F1F4FF70182819381C817F4
:10078000D90780F38CE290E061E070E040E050E057
:1007900025DFDF91CF911F910F91FF90EF9008958A
:1007A0000F931F93DF93CF93CDB7DEB764970FB648
:1007B000F894DEBF0FBECDBF8E010F5F1F4FC80183
:1007C000B7DF89819A818F30910509F450C080315B
:1007D000910538F48130910551F1029709F077C005
:1007E0005CC08431910529F08B37910509F06FC009
:1007F00034C08DB79EB744970FB6F8949EBF0FBE16
:100800008DBFADB7BEB71196F80184E101900D928E
:100810008150E1F74BDDADB7BEB71196FE013196C1
:1008200084E101900D928150E1F74EDE48C047DE31
:10083000019709F04CC08DB79EB744970FB6F89456
:100840009EBF0FBE8DBFADB7BEB71196F80184E154
:1008500001900D928150E1F71EC085E497E06FE2B0
:1008600072E00E949A148D819E8193D030C027DE61
:10087000029769F58DB79EB744970FB6F8949EBF5F
:100880000FBE8DBFADB7BEB71196F80184E10190E0
:100890000D928150E1F72FDE12C08DB79EB74497BD
:1008A0000FB6F8949EBF0FBE8DBFADB7BEB7119601
:1008B000F80184E101900D928150E1F725DD8DB7BB
:1008C0009EB744960FB6F8949EBF0FBE8DBF649638
:1008D0000FB6F894DEBF0FBECDBFCF91DF911F9151
:1008E0000F91089544D285E360E00E94900E8FE05E
:1008F00090E060EE70E040E850E070DE80EC8EBD8D
:100900000DB407FEFDCF8EB580E690E068E670E09E
:100910004FEF50E063DE8FE090E060EE70E040E08B
:1009200050E05CDE8BE290E061E070E04FEF50E081
:1009300055DE85E361E00C94900E0F931F93CF93E7
:10094000DF938A988C9884E190E00E943D0D06E048
:1009500011E0F8018081C82FD0E08C9A84E190E00A
:100960000E943D0DF80120818B988B9A8A9AE9E6C6
:10097000F2E0CE0FDF1F988180E0E20FF11D2081B1
:1009800030E0282B392BC901DF91CF911F910F91B6
:1009900008950F931F939093C1038093C00305E4C0
:1009A00017E0C8016BE372E00E9498146091C003E5
:1009B0007091C103C8014AE050E00E947B141F916E
:1009C0000F910895892B11F08E9A08958E980895AD
:1009D000CF93DF93EC01873991054CF497FF09C061
:1009E00085E497E062E572E00E949A1412C0C6E9BD
:1009F000D0E082EA94E068E270E0B0D482EA94E069
:100A000060E02DD582EA94E06C2F29D582EA94E04B
:100A100067D5DF91CF910895AF92BF92CF92DF92C9
:100A2000EF92FF920F931F93CF93DF937C0185DFAB
:100A3000AA2797FDA095BA2FBC01CD010E94F215FF
:100A400020E030E048EC52E40E947E165B016C012D
:100A50006091BE037091BF03882777FD8095982F22
:100A60000E94F2159B01AC01C601B5010E94571509
:100A70005B016C010027F7FC0095102FC801B7013E
:100A80000E94F2159B01AC01C601B5010E94F2144F
:100A90000E94BF159B01AC01EB01CB0104960997A5
:100AA00018F480E090E026C037FF14C08D9A80E0F3
:100AB00090E088DF8091C0039091C1039C01C29FA8
:100AC000C001C39F900DD29F900D112490958195E8
:100AD0009F4F10C08D9A81E090E074DF8091C00339
:100AE0009091C1039C01C29FC001C39F900DD29FF2
:100AF000900D11246DDFDF91CF911F910F91FF9029
:100B0000EF90DF90CF90BF90AF900895B1DB9C0144
:100B100086549040419728F43093B9032093B8034A
:100B200012C02337310511F42BDD0DC086EF9FEF86
:100B3000AC01249FC001259F900D349F900D11247E
:100B400088539F4F69DF8091B8039091B903BCC06F
:100B500088E7F0DC24E630E0A901481B590BCA0104
:100B6000D8D089E7E7DC880F991F56DFFACCD9DBAC
:100B7000019749F478DB892B09F0C8CFA0DC0297F4
:100B800009F4E6CFE5CF08950F931F938D9A81E086
:100B900090E018DF84EF91E01BDF60ED77E080E00C
:100BA00090E012D78D9864EF71E080E090E00CD770
:100BB0008B9864E670E080E090E006D78B9ABDDE0B
:100BC0009093BB038093BA038D9A80E090E0FADEA5
:100BD00084EF91E0FDDE60ED77E080E090E0F4D618
:100BE0008D9864E670E080E090E0EED6A6DE90930B
:100BF000BD038093BC0305E417E06091BA037091D4
:100C0000BB03C8014AE050E00E947B146091BC0322
:100C10007091BD03C8014AE050E00E947B148091AE
:100C2000BC039091BD032091BA033091BB03821B9A
:100C3000930B62E070E00E940C176093BE03709308
:100C4000BF03C8014AE050E00E947B141F910F913E
:100C5000089582EA94E046D48CED95E09093B90330
:100C60008093B80382E090E09093C1038093C00327
:100C700084E690E09093B7038093B6038CE780BB43
:100C80008B9A82DF8D9A0895D2DB6BDC89DD6FCF82
:100C900085E497E040E855E260E070E00E940311CF
:100CA00021DE60D02CDB42DBD4DF7ADC1ECB82EC91
:100CB00093E06FC0BC0184589340815B944018F46A
:100CC00082EC93E0BCC0089586549040AA2797FD1B
:100CD000A095BA2FBC01CD010E94F21529E939E98E
:100CE00049E95DE30E947E1626E636E646E65FE3C6
:100CF0000E94F31420E030E04AE754E40E947E169C
:100D00000E94C415DC01CB019093C6038093C503F8
:100D1000D1CFAA2797FDA095BA2FBC01CD010E9483
:100D2000F21529E939E949E95FE30E947E1620E0DE
:100D300030E048EC52E40E94571526E636E646E6D7
:100D40005FE30E94F31420E030E04AE754E40E949D
:100D50007E160E94C415DC01CB019093C6038093DC
:100D6000C503A8CF82EC93E063E070E07EC185E329
:100D700061E0D6D785E361E020D78CB580618CBD7A
:100D80008CB580648CBD84E361E017D783E361E0B8
:100D900014C7FC018091C703803390F480838F5F78
:100DA0008093C703815090E0FC01EE0FFF1FE80F16
:100DB000F91FE853FC4F88EB9BE0928381830895F1
:100DC0008FEF80830895FC0120812033B8F5818165
:100DD000992787FD909548E850E0481B590B440F30
:100DE000551F440F551F6417750784F0828199279A
:100DF00087FD909548E552E0481B590B440F551F5D
:100E0000440F551F641775070CF4AB014250504056
:100E1000CA01AA2797FDA095BA2F880F991FAA1F6C
:100E2000BB1F4FB7F89430E0F901EE0FFF1FE20F40
:100E3000F31FE853FC4F928381834FBF0895AF9215
:100E4000BF92CF92DF92EF92FF920F931F93CF93B7
:100E5000DF93EC019B0182E0603278070CF048C020
:100E600077FF03C020E030E005C0653B710514F05A
:100E700024EB30E000D00F92B901882777FD8095F0
:100E8000982F2981332727FD3095E8E8AE2EB12C25
:100E9000A21AB30AAA0CBB1CAA0CBB1CCC24B7FC1C
:100EA000C094DC2CEA81FF27E7FDF09528E532E0CD
:100EB0002E1B3F0B220F331F220F331F442737FDFA
:100EC0004095542FEDB7FEB721833283438354837B
:100ED00020E030E040E050E004EBE02EF12C012D6A
:100EE000112D0E94AB149B010F900F900F900F904B
:100EF000CE01B90168DFDF91CF911F910F91FF9073
:100F0000EF90DF90CF90BF90AF900895CF92DF9297
:100F1000EF92FF921F93CF93DF93EC01162F7A018C
:100F200069018881803308F092C0862F61E045D640
:100F3000888190E0FC01EE0FFF1FE80FF91FE853D6
:100F4000FC4F1F738081807C812B808380E292E044
:100F50008E199F0964E070E00E940C17698380E697
:100F600099E08C199D0964E070E00E940C176A8377
:100F7000A8818A2F6CE00E940017682F70E0AB01F7
:100F8000440F551F460F571F440F551F440F551F41
:100F900020E030E0C901840F951FFC01EE0FFF1F18
:100FA000E80FF91FE853FC4F808186FD44C02F5F96
:100FB0003F4F2C30310571F753C01092800082E012
:100FC000809381001092850010928400B19A8091E4
:100FD0006F00826080936F002EC06230710569F4EB
:100FE0001092900082E080939100109295001092F0
:100FF000940088BB809371001EC06330710569F452
:101000001092A00082E08093A1001092A50010929F
:10101000A40089BB809372000EC0672B61F410920C
:10102000200182E080932101109225011092240179
:101030008ABB809373008A2F90E0FC01EE0FFF1FA4
:10104000E80FF91FE853FC4F80818064808388811A
:10105000DF91CF911F91FF90EF90DF90CF90089597
:101060006130710509F0B9CFA8CF40E252E020E627
:1010700039E04CCFEF92FF920F931F93CF93DF9302
:101080008B017A01EC01DC01A85ABB4F8C9187FFE0
:1010900004C0FB011182108236C0AE01440F551FFF
:1010A0004C0F5D1F440F551F440F551F2C913327C4
:1010B00027FD3095240F351F8091C70390E0281736
:1010C00039070CF58C91992787FD9095840F951F12
:1010D000FC01EE0FFF1FE80FF91FE853FC4F808162
:1010E00086FF11C08C91992787FD9095840F951FDD
:1010F000FC01EE0FFF1FE80FF91FE853FC4F808142
:101100008F7360E00DD6DE01A85ABB4F8C918F5FC4
:101110008C93AE01440F551F4C0F5D1F440F551F9C
:10112000440F551F2C91332727FD3095240F351F71
:101130008091C70390E0281739070CF04CC08C91C0
:101140008C300CF048C0F801208131818C919927B6
:1011500087FD9095840F951FFC01EE0FFF1FE80F90
:10116000F91FE853FC4F81819281280F391FF70145
:10117000318320838C91992787FD9095840F951F4B
:10118000FC01EE0FFF1FE80FF91FE853FC4F8081B1
:1011900086FF29C08C91992787FD9095840F951F14
:1011A000FC01EE0FFF1FE80FF91FE853FC4F808191
:1011B0008F7361E0B5D517C080E49CE904C0F801E5
:1011C000808191810496F70191838083C85ADB4F17
:1011D0008FEF888308C0F801808191810496805444
:1011E0009C4950F3ECCFDF91CF911F910F91FF906D
:1011F000EF9008951F920F920FB60F920BB60F92B9
:1012000011242F933F934F935F936F937F938F930B
:101210009F93AF93BF93EF93FF9380E090E064E2DE
:1012200071E048E251E026DFFF91EF91BF91AF916D
:101230009F918F917F916F915F914F913F912F91EE
:101240000F900BBE0F900FBE0F901F9018951F921E
:101250000F920FB60F920BB60F9211242F933F935C
:101260004F935F936F937F938F939F93AF93BF93AE
:10127000EF93FF9383E090E064EA70E048EA50E087
:10128000F9DEFF91EF91BF91AF919F918F917F9187
:101290006F915F914F913F912F910F900BBE0F90E7
:1012A0000FBE0F901F9018951F920F920FB60F92BE
:1012B0000BB60F9211242F933F934F935F936F932D
:1012C0007F938F939F93AF93BF93EF93FF9382E0AE
:1012D00090E064E970E048E950E0CCDEFF91EF91E6
:1012E000BF91AF919F918F917F916F915F914F913E
:1012F0003F912F910F900BBE0F900FBE0F901F903C
:1013000018951F920F920FB60F920BB60F921124E1
:101310002F933F934F935F936F937F938F939F93FD
:10132000AF93BF93EF93FF9381E090E064E870E0A8
:1013300048E850E09FDEFF91EF91BF91AF919F9100
:101340008F917F916F915F914F913F912F910F906E
:101350000BBE0F900FBE0F901F90189581E08093E9
:10136000A10460937E0410929F041092A00408953B
:1013700020917D0430E080917C04281B3109C90153
:10138000089540917C0480917D04481718F02FEF58
:101390003FEF0AC0E42FF0E0E45AFB4F8081282F92
:1013A00030E04F5F40937C04C9010895E0917C04D4
:1013B00080917D04E81718F0EFEFFFEF06C0F0E032
:1013C000E45AFB4F8081E82FF0E0CF0108950895A3
:1013D0001092A5041092A40488EE93E0A0E0B0E07F
:1013E0008093A6049093A704A093A804B093A904A3
:1013F0008DE693E09093A3048093A2040895CF9286
:10140000DF92EF92FF920F931F93CF93DF937C01B4
:101410006B018A018091A1048823A1F0C0E0D0E093
:101420000DC0D701ED91FC91D601AC0FBD1F01900D
:10143000F081E02DC7016C9119952196C017D10755
:1014400080F303C0CB01642FABD0C801DF91CF91F3
:101450001F910F91FF90EF90DF90CF900895DF9351
:10146000CF930F92CDB7DEB7FC0169838091A104C1
:101470008823C9F08091A004803238F081E090E0A8
:101480009383828320E030E014C080919F04E82F92
:10149000F0E0E158FB4F998190838F5F80939F0428
:1014A0008093A00404C0CE01019661E079D021E0D0
:1014B00030E0C9010F90CF91DF9108950F93062F6F
:1014C00080917E046FE774E04091A00421E013D086
:1014D00010929F041092A0041092A1040F910895FD
:1014E00061E0ECCF10927C0410927D0410929F0476
:1014F0001092A00405C20F931F93582F122F413250
:1015000010F081E04AC08091AE048823E1F782E0C8
:101510008093AE040093B0048FEF80931B0510926C
:10152000D6044093D704A6EBB4E0FB0102C081913E
:101530008D938E2F861B8417D0F31092AF04809169
:10154000AF04550F852B8093AF048091B104813097
:1015500041F41092B1048091AF048093BB0085ECFC
:1015600001C085EE8093BC00112321F08091AE0470
:101570008230E1F380911B058F3F11F480E00DC0B4
:1015800080911B05803211F482E007C080911B0519
:10159000803311F084E001C083E01F910F91089522
:1015A000482F613210F081E008958091AE048430BC
:1015B00011F082E008956093F904A8EDB4E0842F5F
:1015C0009C01F90102C081918D938E2F841B861797
:1015D000D0F380E008951F920F920FB60F920BB6D2
:1015E0000F9211242F933F934F935F936F937F93A9
:1015F0008F939F93AF93BF93EF93FF938091B90025
:1016000090E0887F90708036910509F4F2C08136B1
:101610009105CCF58832910509F47BC0893291059A
:10162000B4F48031910509F46FC0813191053CF427
:10163000009709F447C1089709F04FC165C0883188
:10164000910509F466C0809709F047C182C08034D3
:10165000910509F4A4C08134910544F480339105C7
:1016600009F482C0C89709F038C189C08035910556
:1016700009F489C08835910509F496C0883491052C
:1016800009F02BC1AEC08839910509F413C189391D
:101690009105ECF48837910509F4ABC089379105C1
:1016A0004CF48836910509F4A4C08037910509F0FF
:1016B00014C19FC08838910509F4FCC08039910598
:1016C00009F49DC08038910509F007C198C0803B9E
:1016D000910509F4C6C0813B91054CF4803A91050F
:1016E00009F49FC0883A910509F0F7C0BAC0803C60
:1016F000910509F4E3C0883C910509F4DFC0883BFB
:10170000910509F0EAC0C2C08091AF048093BB008C
:10171000CFC09091D6048091D704981768F4909127
:10172000D604E92FF0E0EA54FB4F80818093BB00A0
:101730009F5F9093D604BCC08091B004882309F4C5
:101740004BC085ED8093BC008091BC0084FDFCCF34
:10175000C2C080E280931B0585ED8093BC00809120
:10176000BC0084FDFCCFB7C080E380931B0585EDF2
:101770008093BC008091BC0084FDFCCFACC088E3AA
:1017800080931B059BC08091D6049091BB00E82FED
:10179000F0E0EA54FB4F90838F5F8093D6049091E2
:1017A000D6048091D70482C08091D6049091BB006A
:1017B000E82FF0E0EA54FB4F90838F5F8093D604CC
:1017C0008091B004882341F085ED8093BC00809126
:1017D000BC0084FDFCCF7FC081E08093B10484EA2B
:1017E0006EC085ED8093BC008091BC0084FDFCCF71
:1017F00072C083E08093AE0410921A0559C08091A4
:101800001A05803208F056C080911A059091BB00ED
:10181000E82FF0E0E650FB4F90838F5F80931A052E
:1018200047C080911A05803230F4E0911A05F0E04B
:10183000E650FB4F108285ED8093BC008091BC0088
:1018400084FDFCCF1092AE0460911A05E091B404BF
:10185000F091B5048AEF94E070E0199510921A05A2
:101860002DC084E08093AE041092F8041092F90425
:10187000E091B204F091B30419958091F9048823A2
:1018800029F481E08093F9041092D8049091F8042F
:10189000E92FF0E0E852FB4F80818093BB009F5F0F
:1018A0009093F8049091F8048091F904981710F43B
:1018B00085EC01C085E88093BC000FC085EC809367
:1018C000BC0009C010921B0585ED8093BC0080917F
:1018D000BC0084FDFCCF1092AE04FF91EF91BF914C
:1018E000AF919F918F917F916F915F914F913F91B8
:1018F0002F910F900BBE0F900FBE0F901F90189559
:101900001092AE0481E08093B0041092B10484E19F
:1019100061E006D285E161E003D2E9EBF0E080818D
:101920008E7F808380818D7F808388E48093B80060
:1019300085E48093BC0008951F920F920FB60F921A
:1019400011242F933F938F939F93AF93BF938091D5
:10195000200590912105A0912205B0912305309199
:1019600024050196A11DB11D232F2D5F2D3720F0D9
:101970002D570196A11DB11D2093240580932005AC
:1019800090932105A0932205B093230580911C0517
:1019900090911D05A0911E05B0911F050196A11DF6
:1019A000B11D80931C0590931D05A0931E05B09357
:1019B0001F05BF91AF919F918F913F912F910F90F4
:1019C0000FBE0F901F9018959B01AC017FB7F89444
:1019D00080911C0590911D05A0911E05B0911F05D9
:1019E00066B5A89B05C06F3F19F00196A11DB11DFA
:1019F0007FBFBA2FA92F982F8827860F911DA11D71
:101A0000B11D62E0880F991FAA1FBB1F6A95D1F70D
:101A1000BC012DC0FFB7F89480911C0590911D0565
:101A2000A0911E05B0911F05E6B5A89B05C0EF3F2C
:101A300019F00196A11DB11DFFBFBA2FA92F982F34
:101A400088278E0F911DA11DB11DE2E0880F991FFF
:101A5000AA1FBB1FEA95D1F7861B970B885E9340A0
:101A6000C8F2215030404040504068517C4F211511
:101A700031054105510571F60895019739F0880F38
:101A8000991F880F991F02970197F1F7089578948D
:101A900084B5826084BD84B5816084BD85B5826073
:101AA00085BD85B5816085BDEEE6F0E08081816011
:101AB0008083E1E8F0E01082808182608083808111
:101AC00081608083E0E8F0E0808181608083E1EBE9
:101AD000F0E0808184608083E0EBF0E080818160D1
:101AE0008083E1E9F0E08081826080838081816091
:101AF0008083E0E9F0E0808181608083E1EAF0E0CA
:101B0000808182608083808181608083E0EAF0E070
:101B1000808181608083E1E2F1E080818260808366
:101B2000808181608083E0E2F1E080818160808358
:101B3000EAE7F0E080818460808380818260808336
:101B40008081816080838081806880831092C10061
:101B50000895382F863308F0365320917B00832F69
:101B600086958695869590E08170907043E0880F09
:101B7000991F4A95E1F7277F282B20937B00377028
:101B8000809168028295880F880F807C832B8093D8
:101B90007C0080917A00806480937A0080917A0042
:101BA00086FDFCCF2091780040917900942F80E051
:101BB00030E0282B392BC9010895CF93DF93482FAC
:101BC00050E0CA0188589E4FFC0134914E5C5E4F34
:101BD000FA018491882369F190E0880F991FFC0134
:101BE000EC51FF4FA591B491FC01E250FF4FC5911C
:101BF000D491662351F42FB7F8948C91932F90953C
:101C000089238C93888189230BC0623061F42FB7BC
:101C1000F8948C91932F909589238C938881832BB2
:101C200088832FBF06C09FB7F8948C91832B8C9329
:101C30009FBFDF91CF910895893009F449C08A3060
:101C4000A0F4843051F1853040F4823079F1833052
:101C500000F5813009F063C026C0873079F1883003
:101C600098F5863009F05BC025C08D3009F442C07C
:101C70008E3028F48B30B1F18C30C0F52DC080311E
:101C800009F442C0813109F445C08F3009F047C0E2
:101C900037C0809180008F7703C0809180008F7D56
:101CA00080938000089584B58F7702C084B58F7DBE
:101CB00084BD08958091B0008F7703C08091B000FB
:101CC0008F7D8093B0000895809190008F7707C03A
:101CD000809190008F7D03C080919000877F8093DA
:101CE000900008958091A0008F7707C08091A00098
:101CF0008F7D03C08091A000877F8093A00008950E
:101D0000809120018F7703C0809120018F7D809387
:101D10002001089580912001877F809320010895FC
:101D2000FF920F931F93F62E482F50E0CA01825462
:101D30009E4FFC012491CA0188589E4FFC011491CA
:101D40004E5C5E4FFA0104910023C1F0222311F092
:101D5000822F72DFE02FF0E0EE0FFF1FE250FF4F07
:101D6000A591B4919FB7F894FF2021F48C91109520
:101D7000812302C08C91812B8C939FBF1F910F9167
:101D8000FF90089508951F920F920FB60F920BB611
:101D90000F9211242F933F934F938F939F93EF9321
:101DA000FF938091C00082FD1DC04091C60020912C
:101DB0006505309166052F5F3F4F2F73307080911E
:101DC0006705909168052817390771F0E09165055E
:101DD000F0916605EB5DFA4F4083309366052093E2
:101DE000650502C08091C600FF91EF919F918F9190
:101DF0004F913F912F910F900BBE0F900FBE0F9000
:101E00001F90189508951F920F920FB60F920BB660
:101E10000F9211242F933F934F938F939F93EF93A0
:101E2000FF938091C80082FD1DC04091CE0020919B
:101E3000ED053091EE052F5F3F4F2F73307080918D
:101E4000EF059091F0052817390771F0E091ED0545
:101E5000F091EE05E355FA4F40833093EE05209361
:101E6000ED0502C08091CE00FF91EF919F918F917F
:101E70004F913F912F910F900BBE0F900FBE0F907F
:101E80001F90189508951F920F920FB60F920BB6E0
:101E90000F9211242F933F934F938F939F93EF9320
:101EA000FF938091D00082FD1DC04091D60020910B
:101EB0007506309176062F5F3F4F2F7330708091FB
:101EC0007706909178062817390771F0E09175062A
:101ED000F0917606EB5CF94F4083309376062093C1
:101EE000750602C08091D600FF91EF919F918F916E
:101EF0004F913F912F910F900BBE0F900FBE0F90FF
:101F00001F90189508951F920F920FB60F920BB65F
:101F10000F9211242F933F934F938F939F93EF939F
:101F2000FF938091300182FD1DC0409136012091C8
:101F3000FD063091FE062F5F3F4F2F73307080916A
:101F4000FF06909100072817390771F0E091FD0610
:101F5000F091FE06E354F94F40833093FE06209340
:101F6000FD0602C080913601FF91EF919F918F9104
:101F70004F913F912F910F900BBE0F900FBE0F907E
:101F80001F901895E0915107F0915207E05CFF4FC8
:101F90008191919120813181821B930B8F7390707D
:101FA000892B09F0EFDEE0917307F0917407E05C94
:101FB000FF4F8191919120813181821B930B8F730F
:101FC0009070892B09F01EDFE0919507F09196073C
:101FD000E05CFF4F8191919120813181821B930BB5
:101FE0008F739070892B09F04DDFE091B707F09166
:101FF000B807E05CFF4F8191919120813181821B74
:10200000930B8F739070892B09F07CCF08951F92EA
:102010000F920FB60F920BB60F9211242F933F938E
:102020008F939F93EF93FF932091A9053091AA0579
:102030008091AB059091AC052817390731F4809158
:10204000C1008F7D8093C10014C0E091AB05F09179
:10205000AC05E759FA4F20818091AB059091AC0512
:1020600001968F7390709093AC058093AB0520938D
:10207000C600FF91EF919F918F913F912F910F900B
:102080000BBE0F900FBE0F901F9018951F920F92CE
:102090000FB60F920BB60F9211242F933F938F938D
:1020A0009F93EF93FF9320913106309132068091F8
:1020B0003306909134062817390731F48091C9000E
:1020C0008F7D8093C90014C0E0913306F0913406EF
:1020D000EF50FA4F2081809133069091340601969B
:1020E0008F73907090933406809333062093CE00C4
:1020F000FF91EF919F918F913F912F910F900BBE88
:102100000F900FBE0F901F9018951F920F920FB651
:102110000F920BB60F9211242F933F938F939F939F
:10212000EF93FF932091B9063091BA068091BB06D8
:102130009091BC062817390731F48091D1008F7D2A
:102140008093D10014C0E091BB06F091BC06E75823
:10215000F94F20818091BB069091BC0601968F7348
:1021600090709093BC068093BB062093D600FF919D
:10217000EF919F918F913F912F910F900BBE0F90F8
:102180000FBE0F901F9018951F920F920FB60F92CF
:102190000BB60F9211242F933F938F939F93EF933E
:1021A000FF9320914107309142078091430790911E
:1021B00044072817390731F4809131018F7D8093CE
:1021C000310114C0E0914307F0914407EF5FF84FED
:1021D0002081809143079091440701968F739070FE
:1021E000909344078093430720933601FF91EF912A
:1021F0009F918F913F912F910F900BBE0F900FBE2B
:102200000F901F901895AF92BF92DF92EF92FF92BE
:102210000F931F93CF93DF93EC017A018B01DD24A1
:10222000403081EE580780E0680780E0780711F0C1
:10223000DD24D39491E0A92EB12CEC89FD89DD2019
:1022400069F0C50108A002C0880F991F0A94E2F73F
:10225000808360E079E08DE390E005C0108260E863
:1022600074E88EE190E0A8019701E9D52150304053
:1022700040405040569547953795279580E120304E
:10228000380720F0DD2011F0DD24D7CFE889F98967
:102290003083EA89FB89208319A2EE89FF89408176
:1022A00021E030E0C9010C8C02C0880F991F0A940C
:1022B000E2F7482B4083EE89FF894081C9010D8CEC
:1022C00002C0880F991F0A94E2F7482B4083EE89D9
:1022D000FF894081C9010E8C02C0880F991F0A94A2
:1022E000E2F7482B4083EE89FF8980810F8C02C082
:1022F000220F331F0A94E2F7209528232083DF91D1
:10230000CF911F910F91FF90EF90DF90BF90AF9012
:102310000895DC011C96ED91FC911D97E05CFF4F48
:102320002191319180819181281B390B2F7330705D
:10233000C9010895DC011C96ED91FC911D97E05CAC
:10234000FF4F20813181E054F040DF01AE5BBF4F91
:102350008D919C9111972817390719F42FEF3FEFB2
:1023600007C08D919C91E80FF91F8081282F30E0E4
:10237000C9010895DC011C96ED91FC911D97E05C6C
:10238000FF4F20813181E054F040DF01AE5BBF4F51
:102390008D919C9111972817390719F42FEF3FEF72
:1023A00010C08D919C911197E80FF91F20818D919C
:1023B0009C91119701968F73907011969C938E93B8
:1023C00030E0C9010895DC0191968C9191978823A2
:1023D00039F05496ED91FC915597808186FFF9CFA5
:1023E00091961C920895CF93DF93EC01EE85FF85C3
:1023F000E05CFF4F20813181E054F0402F5F3F4F80
:102400002F733070DF01AE5BBF4F8D919C911197A0
:1024100028173907D1F3E05CFF4F80819181E054A8
:10242000F040E80FF91F6083EE85FF85E05CFF4F09
:1024300031832083EE89FF89208181E090E00F8C39
:1024400002C0880F991F0A94E2F7282B208381E0AD
:1024500089A3EC89FD8980818064808381E090E09C
:10246000DF91CF9108951F9310924807109247076C
:1024700028EE33E040E050E02093490730934A07CC
:1024800040934B0750934C076DE773E070934607FA
:102490006093450785E295E090935207809351073A
:1024A00089E695E0909354078093530785EC90E07C
:1024B000909356078093550784EC90E090935807CB
:1024C0008093570780EC90E090935A0780935907C8
:1024D00081EC90E090935C0780935B0782EC90E046
:1024E00090935E0780935D0786EC90E09093600781
:1024F00080935F0714E010936107B3E0B093620725
:10250000A7E0A0936307F5E0F0936407E1E0E093B0
:10251000650710926A071092690720936B07309342
:102520006C0740936D0750936E0770936807609334
:1025300067078DEA95E0909374078093730781EFA6
:1025400095E090937607809375078DEC90E09093DB
:102550007807809377078CEC90E090937A078093CC
:10256000790788EC90E090937C0780937B0789EC57
:1025700090E090937E0780937D078AEC90E09093A3
:10258000800780937F078EEC90E090938207809382
:10259000810710938307B0938407A0938507F09376
:1025A0008607E093870710928C0710928B07209381
:1025B0008D0730938E0740938F0750939007709349
:1025C0008A076093890785E396E090939607809346
:1025D000950789E796E0909398078093970785ED94
:1025E00090E090939A078093990784ED90E0909300
:1025F0009C0780939B0780ED90E090939E078093CB
:102600009D0781ED90E09093A00780939F0782ED56
:1026100090E09093A2078093A10786ED90E09093BD
:10262000A4078093A3071093A507B093A607A093D0
:10263000A707F093A807E093A9071092AE0710929E
:10264000AD072093AF073093B0074093B107509385
:10265000B2077093AC076093AB078DEB96E0909355
:10266000B8078093B70781E097E09093BA0780930B
:10267000B90785E391E09093BC078093BB0784E39F
:1026800091E09093BE078093BD0780E391E0909323
:10269000C0078093BF0781E391E09093C2078093C6
:1026A000C10782E391E09093C4078093C30786E358
:1026B00091E09093C6078093C5071093C707B09326
:1026C000C807A093C907F093CA07E093CB071F91EF
:1026D0000895CF93DF93DBD90E944806C2ECDFE078
:1026E0000E9444062097E1F34DDCFACFCF92DF92AF
:1026F000EF92FF920F931F93CF93DF937C016B01B7
:102700008A01C0E0D0E00FC0D6016D916D01D70104
:10271000ED91FC910190F081E02DC7011995C80F52
:10272000D91F015010400115110571F7CE01DF913D
:10273000CF911F910F91FF90EF90DF90CF90089570
:10274000EF92FF920F931F938C01DC01ED91FC91AE
:102750000190F081E02D6DE019957C01D801ED919B
:10276000FC910190F081E02DC8016AE019959C016F
:102770002E0D3F1DC9011F910F91FF90EF900895FD
:10278000CF93DF93EC016115710519F420E030E07F
:102790000FC0DB010D900020E9F71197A61BB70BC6
:1027A000E881F9810280F381E02DAD0119959C014A
:1027B000C901DF91CF9108954F925F927F928F92DE
:1027C0009F92AF92BF92CF92DF92EF92FF920F93C0
:1027D0001F93DF93CF93CDB7DEB7A1970FB6F894D1
:1027E000DEBF0FBECDBF2C01742ECB01223008F40A
:1027F0002AE019A231E2C32ED12CCC0EDD1E822E8E
:102800009924AA24BB24672D752FA501940117D301
:1028100079018A01C801B701A5019401D2D2472DDF
:10282000461B0894C108D1084A3014F4405D01C029
:10283000495CF6014083E114F1040105110521F022
:102840007E2C5F2DC801DFCFC201B60199DFA196B2
:102850000FB6F894DEBF0FBECDBFCF91DF911F91B1
:102860000F91FF90EF90DF90CF90BF90AF909F902F
:102870008F907F905F904F900895CF92DF92EF926C
:10288000FF920F931F93CF93DF93EC016A017B01BB
:102890002115310541F4E881F9810190F081E02DA5
:1028A000642F19951DC02A303105C9F477FF16C071
:1028B000E881F9810190F081E02D6DE219958C019C
:1028C00044275527BA014C195D096E097F09CE01CD
:1028D0002AE072DF9801280F391F03C02AE06CDF5D
:1028E0009C01C901DF91CF911F910F91FF90EF9053
:1028F000DF90CF900895CF92DF92EF92FF920F93E7
:102900001F936C017B019A010027F7FC0095102FA3
:10291000B801A701B2DF8C01C60112DF080F191F31
:10292000C8011F910F91FF90EF90DF90CF90089515
:1029300027CF0895EF92FF920F931F937C0120DF22
:102940008C01C701FDDE080F191FC8011F910F91EF
:10295000FF90EF9008952F923F924F925F926F9267
:102960007F928F929F92AF92BF92CF92DF92EF921F
:10297000FF920F931F93DF93CF93CDB7DEB73B0149
:102980004C0119012A016E897F89888D998D6A19F8
:102990007B098C099D09621A730A840A950AA401AD
:1029A00093010FD2E218F30804091509A801970151
:1029B00068D22A0D3B1D4C1D5D1DB901CA01CF9186
:1029C000DF911F910F91FF90EF90DF90CF90BF901C
:1029D000AF909F908F907F906F905F904F903F90BF
:1029E0002F9008955058BB27AA270ED04DC13ED135
:1029F00030F043D120F031F49F3F11F41EF433C185
:102A00000EF4E095E7FB29C1E92F4FD180F3BA1707
:102A1000620773078407950718F071F49EF567C184
:102A20000EF4E0950B2EBA2FA02D0B01B9019001E9
:102A30000C01CA01A0011124FF27591B99F0593F2D
:102A400050F4503E68F11A16F040A22F232F342F75
:102A50004427585FF3CF469537952795A795F040C3
:102A60005395C9F77EF41F16BA0B620B730B840BD8
:102A7000BAF09150A1F0FF0FBB1F661F771F881F90
:102A8000C2F70EC0BA0F621F731F841F48F48795E8
:102A900077956795B795F7959E3F08F0B3CF9395D7
:102AA000880F08F09927EE0F9795879508950CD019
:102AB000EBC0E3D040F0DAD030F021F45F3F19F002
:102AC000CCC0511115C1CFC0F0D098F39923C9F3F0
:102AD0005523B1F3951B550BBB27AA276217730724
:102AE000840738F09F5F5F4F220F331F441FAA1FD8
:102AF000A9F333D00E2E3AF0E0E830D09150504098
:102B0000E695001CCAF729D0FE2F27D0660F771F45
:102B1000881FBB1F261737074807AB07B0E809F027
:102B2000BB0B802DBF01FF2793585F4F2AF09E3FBC
:102B3000510568F092C0DCC05F3FECF3983EDCF3D7
:102B4000869577956795B795F7959F5FC9F7880F35
:102B5000911D9695879597F90895E1E0660F771F87
:102B6000881FBB1F621773078407BA0720F0621B18
:102B7000730B840BBA0BEE1F88F7E095089504D011
:102B80006894B111B5C0089598D088F09F5790F01F
:102B9000B92F9927B751A0F0D1F0660F771F881F82
:102BA000991F1AF0BA95C9F712C0B13081F09FD0C1
:102BB000B1E008959CC0672F782F8827B85F39F05F
:102BC000B93FCCF3869577956795B395D9F73EF4E1
:102BD00090958095709561957F4F8F4F9F4F089589
:102BE000E89409C097FB3EF49095809570956195A7
:102BF0007F4F8F4F9F4F9923A9F0F92F96E9BB275D
:102C00009395F695879577956795B795F111F8CFD8
:102C1000FAF4BB0F11F460FF1BC06F5F7F4F8F4F43
:102C20009F4F16C0882311F096E911C0772321F039
:102C30009EE8872F762F05C0662371F096E8862FD1
:102C400070E060E02AF09A95660F771F881FDAF728
:102C5000880F9695879597F9089597F99F6780E86B
:102C600070E060E008959FEF80EC089500240A94DE
:102C70001616170618060906089500240A94121657
:102C80001306140605060895092E0394000C11F48A
:102C9000882352F0BB0F40F4BF2B11F460FF04C037
:102CA0006F5F7F4F8F4F9F4F089557FD9058440F90
:102CB000551F59F05F3F71F04795880F97FB991F9B
:102CC00061F09F3F79F08795089512161306140658
:102CD000551FF2CF4695F1DF08C0161617061806E5
:102CE000991FF1CF86957105610508940895E894C0
:102CF000BB2766277727CB0197F908950BD0C4CF60
:102D0000B5DF28F0BADF18F0952309F0A6CFABCFD6
:102D10001124EECFCADFA0F3959FD1F3950F50E0B9
:102D2000551F629FF001729FBB27F00DB11D639F7D
:102D3000AA27F00DB11DAA1F649F6627B00DA11D23
:102D4000661F829F2227B00DA11D621F739FB00DC9
:102D5000A11D621F839FA00D611D221F749F332739
:102D6000A00D611D231F849F600D211D822F762FD2
:102D70006A2F11249F5750408AF0E1F088234AF0CF
:102D8000EE0FFF1FBB1F661F771F881F915050401B
:102D9000A9F79E3F510570F060CFAACF5F3FECF3DB
:102DA000983EDCF3869577956795B795F795E79507
:102DB0009F5FC1F7FE2B880F911D9695879597F918
:102DC0000895629FD001739FF001829FE00DF11D75
:102DD000649FE00DF11D929FF00D839FF00D749F95
:102DE000F00D659FF00D9927729FB00DE11DF91F41
:102DF000639FB00DE11DF91FBD01CF01112408959E
:102E0000991B79E004C0991F961708F0961B881F3C
:102E10007A95C9F78095089597FB092E07260AD061
:102E200077FD04D049D006D000201AF47095619542
:102E30007F4F0895F6F7909581959F4F0895A1E2F1
:102E40001A2EAA1BBB1BFD010DC0AA1FBB1FEE1F24
:102E5000FF1FA217B307E407F50720F0A21BB30B6F
:102E6000E40BF50B661F771F881F991F1A9469F7EB
:102E700060957095809590959B01AC01BD01CF0147
:102E8000089597FB092E05260ED057FD04D0D7DFF5
:102E90000AD0001C38F450954095309521953F4F4D
:102EA0004F4F5F4F0895F6F7909580957095619517
:102EB0007F4F8F4F9F4F0895AA1BBB1B51E107C047
:102EC000AA1FBB1FA617B70710F0A61BB70B881FBA
:102ED000991F5A95A9F780959095BC01CD01089549
:102EE000EE0FFF1F0590F491E02D1994F894FFCF99
:102EF00049522076616C75653A200042616C6C2005
:102F0000486974004552524F523A204952206E6F20
:102F1000742066756E6374696F6E696E67210063F5
:102F200068616E67696E67206B70004B7020766118
:102F30006C7565206368616E67656420746F2564D5
:102F4000200057726F6E6720737065656420676933
:102F500076656E000200070001008040C020A0607E
:102F6000E0109050D030B070F0088848C828A868A9
:102F7000E8189858D838B878F8048444C424A4646D
:102F8000E4149454D434B474F40C8C4CCC2CAC6C49
:102F9000EC1C9C5CDC3CBC7CFC028242C222A26237
:102FA000E2129252D232B272F20A8A4ACA2AAA6A49
:102FB000EA1A9A5ADA3ABA7AFA068646C626A6660D
:102FC000E6169656D636B676F60E8E4ECE2EAE6EE9
:102FD000EE1E9E5EDE3EBE7EFE018141C121A161EC
:102FE000E1119151D131B171F1098949C929A96919
:102FF000E9199959D939B979F9058545C525A565DD
:10300000E5159555D535B575F50D8D4DCD2DAD6DB8
:10301000ED1D9D5DDD3DBD7DFD038343C323A363A6
:10302000E3139353D333B373F30B8B4BCB2BAB6BB8
:10303000EB1B9B5BDB3BBB7BFB078747C727A7677C
:10304000E7179757D737B777F70F8F4FCF2FAF6F58
:10305000EF1F9F5FDF3FBF7FFF000000002F0AFFD1
:1030600009B809C109D609E70900000000F3117683
:0A307000138911BA119A11E311003F
:00000001FF
