S00E00004E6F646520312E737265633F
S11300000C9426010C9443010C9443010C94430179
S11300100C9443010C9443010C9443010C9443014C
S11300200C9443010C9443010C9443010C9443013C
S11300300C9443010C9443010C9443010C9443012C
S11300400C9443010C9443010C9443010C9443011C
S11300500C9443010C9443010C9443010C9443010C
S11300600C9443010C9443010C9443010C944301FC
S1130070000000000000005E0000000E000E0028DA
S11300807C287C2808547C542026100864002854BA
S113009028400000000E0000003C42000000423CEA
S11300A00000005438540010107C101000806020B0
S11300B00010101010000060600000201008040000
S11300C0003C423C0000447E40004462524C00220A
S11300D04A4A360018147E10002E4A4A32003C4A1E
S11300E04A300002621A0600344A4A34000C525262
S11300F03C00006C6C0000806C2C00000010284454
S113010000282828280000442810000004520C006D
S11301103C425A1C007C12127C007E4A4A34003C49
S1130120424224007E42423C007E4A4A42007E0A09
S11301300A02003C425274007E08087E0000427E9F
S113014042002040403E007E182442007E40404051
S1130150007E0C0C7E007E0C307E003C42423C0053
S11301607E12120C003C6242BC007E12324C00240F
S11301704A52240000027E02003E40403E001E60BF
S1130180601E007E30307E006618186600000E7017
S11301900E0062524A4600007E42420004081020CB
S11301A0000042427E00000402040040404040003F
S11301B0000204000030482878007E4848300030AF
S11301C0484800003048487E003068581000107CD1
S11301D012040050A8A898007E0808700000487A0D
S11301E040000040807A007E1028400000427E409B
S11301F00078101870007808087000304848300003
S1130200F848483000304848F80078080810005092
S113021058682800083E48400038404078000038BC
S11302204038007860607800483030480018A040BA
S11302303800486858480000083C420000007E002E
S11302400000423C080004020402000011241FBE06
S1130250CFEFD4E0DEBFCDBF13E0A0E0B1E0E8E42F
S1130260F4E202C005900D92A231B107D9F723E060
S1130270A2E1B3E001C01D92AB34B207E1F70E94E2
S1130280DA040C9422120C94000087B387BB8FEF1E
S113029088BB0895E0910601F09107018D5F80838A
S11302A083ED90E30197F1F700C00000E0910601AF
S11302B0F0910701808108950E94950540E060EE69
S11302C08FE00E94770508951F93CF93DF93EC018D
S11302D04A816FE085E30E94770568816295660F25
S11302E0607E82E30E9465056881798176956795D1
S11302F0769567957695679581E30E9465058A8171
S1130300882369F010E0FE01E10FF11D638186E3AB
S1130310810F0E9465051F5F8A811817A0F348E0CA
S11303206FEF80E30E947705C49881E80E94EF0A8A
S1130330C49ADF91CF911F910895DF92EF92FF92BB
S11303400F931F93CF93DF9300D000D0CDB7DEB7C8
S11303508C01FC0112828CE20E945705F82E85E67E
S11303600E945705E82E85E70E945705D82EF0FE17
S113037035C082E60E945705F82E81E60E94570593
S1130380F694F694F694F694F6942F2D30E0F8E073
S11303908F9F200D311D11243C832B832B813C81A5
S11303A0F801318320833C832B838E2D8F708283CD
S11303B0882371F0F12C86E68F0D0E945705F80111
S11303C0EF0DF11D8383F394F8018281F81698F3FD
S11303D040E061E08CE20E9477053CC0F1FE3AC047
S11303E082E70E945705F82E81E70E9457052F2DBA
S11303F0207730E0359527953595279535952795C0
S11304003595279535952795F8E08F9F200D311D5B
S113041011243A83298329813A81F8013183208385
S11304203A8329838D2D8F708283882371F0F12C78
S113043086E68F0D0E945705F801EF0DF11D8383A9
S1130440F394F8018281F81698F340E062E08CE2BC
S11304500E9477050F900F900F900F90DF91CF912E
S11304601F910F91FF90EF90DF9008950F931F93CA
S1130470CF93DF93CDB7DEB7A1970FB6F894DEBF65
S11304800FBECDBF8C01CB010E9482060E94DA050B
S113049082E090E00E94D1058AE291E00E949806F1
S11304A084E090E00E94D105F80183814AE050E0A5
S11304B0BE016F5F7F4F992787FD90950E945D0D68
S11304C0CE0101960E9481070E949D04892BE1F3CD
S11304D00E94A706A1960FB6F894DEBF0FBECDBF4B
S11304E0DF91CF911F910F9108954F925F926F9278
S11304F07F928F929F92AF92BF92CF92DF92EF92B0
S1130500FF920F931F93CF93DF9300D000D0CDB70A
S1130510DEB7BB9AC39A329A3A9A0AE010E019827B
S11305201A821B821C82C12CD12C760146015701F0
S11305302601370181E090E00E944A01BC0188272E
S113054077FD8095982F0E946E0C9B01AC01C5012C
S1130550B4010E946F0B4B015C0182E090E00E94A9
S11305604A01BC01882777FD8095982F0E946E0C64
S11305709B01AC01C301B2010E946F0B2B013C0132
S113058087E893E10197F1F700C0000083E090E071
S11305900E944A01BC01882777FD8095982F0E940C
S11305A06E0C9B01AC0169817A818B819C810E94D4
S11305B06F0B69837A838B839C8384E090E00E9431
S11305C04A01BC01882777FD8095982F0E946E0C04
S11305D09B01AC01C701B6010E946F0B6B017C014A
S11305E0015011090115110509F0A4CF20E030E0F4
S11305F040E251E4C301B2010E94D30B60931401A1
S113060070931501809316019093170120E030E058
S113061040E251E4C501B4010E94D30B6093100180
S113062070931101809312019093130120E030E044
S113063040E251E4C701B6010E94D30B60930C0160
S113064070930D0180930E0190930F0120E030E030
S113065040E251E469817A818B819C810E94D30BB1
S1130660609308017093090180930A0190930B0130
S11306700F900F900F900F90DF91CF911F910F91DA
S1130680FF90EF90DF90CF90BF90AF909F908F90AE
S11306907F906F905F904F900895CF93DF93CDB785
S11306A0DEB728970FB6F894DEBF0FBECDBF2983FF
S11306B03A834B835C8329813A818B819C812B30E3
S11306C031057CF0AC01992324F444275527481BB9
S11306D0590B421753073CF11816190634F582E0FA
S11306E02DC0263F4FEF3407B4F4A901332324F47B
S11306F044275527421B530B9C01992324F422279A
S11307003327281B390B241735078CF018161906C4
S113071084F482E013C08B3091056CF4863F9F4FC4
S113072064F483E00BC081E009C083E007C080E08B
S113073005C083E003C082E001C084E028960FB6C0
S1130740F894DEBF0FBECDBFDF91CF9108952F92F5
S11307503F924F925F926F927F928F929F92AF924D
S1130760BF92CF92DF92EF92FF920F931F93CF939A
S1130770DF93CDB7DEB760970FB6F894DEBF0FBE38
S1130780CDBF81E090E00E944A011C0180901001DD
S113079090901101A0901201B090130182E090E0BA
S11307A00E944A018C014090140150901501609000
S11307B016017090170183E090E00E944A019E8721
S11307C08D878091080190910901A0910A01B0914F
S11307D00B0189879A87AB87BC8784E090E00E94ED
S11307E04A01988B8F87C0900C01D0900D01E09046
S11307F00E01F0900F01AFE4B3EC1197F1F700C0D4
S11308000000B801882777FD8095982F0E946E0C10
S1130810A30192010E946E0B20E030E048EC52E408
S11308200E94FA0CA30192010E94D30B0E943B0C7C
S1130830162F862F972F9A838983B101882777FDF6
S11308408095982F0E946E0CA50194010E946E0B56
S113085020E030E048EC52E40E94FA0CA501940137
S11308600E94D30B0E943B0C062F862F972F9C834C
S11308708B832F853889B901882777FD8095982F38
S11308800E946E0CA70196010E946E0B20E030E0DE
S113089048EC52E40E94FA0CA70196010E94D30B83
S11308A00E943B0CF62E862F972F9E838D83AD8559
S11308B0BE85BD01882777FD8095982F0E946E0C18
S11308C029853A854B855C850E946E0B20E030E0DB
S11308D048EC52E40E94FA0C29853A854B855C85E4
S11308E00E94D30B0E943B0C862F262F372F38876C
S11308F02F83212F3A81402F5C816F2D7E81988533
S113090060960FB6F894DEBF0FBECDBFDF91CF91D6
S11309101F910F91FF90EF90DF90CF90BF90AF9019
S11309209F908F907F906F905F904F903F902F900B
S1130930089586B3827090E0089586B3847090E041
S1130940089586B3817090E008950F931F93CF9319
S1130950DF93CDB7DEB728970FB6F894DEBF0FBE8E
S1130960CDBF8C010E94A7036D838F83F801808122
S113097091818230910529F42383448382E0828328
S11309800BC0039749F4F801238344838D81858345
S11309908F81868384E08283C8010E946401289643
S11309A00FB6F894DEBF0FBECDBFDF91CF911F917C
S11309B00F9108958FE190E00E94600B0E94F80A65
S11309C00E9445010E94F3050E9475020E94570788
S11309D00E945C018EE00E9457051F928F9382E370
S11309E091E09F938F930E94D80D0F900F900F90DA
S11309F00F90CBE2D3E00C2F1D2F0E949904029795
S1130A0011F4C39806C00E94A104181619060CF428
S1130A103A9868E173E08AE193E00E94EB07209141
S1130A201A0330911B03232B51F0209118033091AA
S1130A30190339832883802F912F0E94A504C39A18
S1130A403A9A8CE20E94570580FFD7CF86E393E061
S1130A500E949D01209136033091370321303105E6
S1130A6039F46AE173E086E393E00E943602C5CF6D
S1130A702630310559F466E373E082E193E00E9485
S1130A80AA0A82E193E00E941E0AB7CF28303105FA
S1130A9039F48AE193E00E9482060E947E0AADCF77
S1130AA02A30310509F0A9CF0E94A706A6CFCF931B
S1130AB0C82FC49883E00E94EF0A8C2F0E94EF0A8B
S1130AC00E94F30AC49ACF910895CF93DF93D82F4D
S1130AD0C62FC49882E00E94EF0A8D2F0E94EF0A6D
S1130AE08C2F0E94EF0AC49ADF91CF9108951F932F
S1130AF0CF93DF93182FD62FC42FC49885E00E947C
S1130B00EF0A812F0E94EF0A8D2F0E94EF0A8C2F8B
S1130B100E94EF0AC49ADF91CF911F910895C4985F
S1130B2080EC0E94EF0AC49A08950E94E90A0E9488
S1130B308F058EE00E945705807E803831F084E472
S1130B4091E00E94EC0D81E0089580E00895282F43
S1130B5030E020523109C901880F991F880F991F6D
S1130B60280F391F20593F4F80E090E0F90145914B
S1130B705491E0911C01F0911D01408301962F5F77
S1130B803F4F8530910591F70895E0911E01F09152
S1130B901F011082E0911E01F0911F0180E180830A
S1130BA008958055E0911E01F0911F0180830E94F9
S1130BB0C5050895CF93DF93C0E0D0E08C2F0E9449
S1130BC0D1059D2FE0911C01F0911D0110829F5FC2
S1130BD09038C1F7CF5FC83089F780E00E94D10513
S1130BE0DF91CF910895E0911E01F0911F018EEAEB
S1130BF08083E0911E01F0911F0181EA8083E091DE
S1130C001E01F0911F018AED8083E0911E01F09195
S1130C101F0182E18083E0911E01F0911F0188ECA5
S1130C208083E0911E01F0911F0188EA8083E091A6
S1130C301E01F0911F018FE38083E0911E01F0916A
S1130C401F0185ED8083E0911E01F0911F0180E872
S1130C508083E0911E01F0911F0181E88083E0917F
S1130C601E01F0911F0180E58083E0911E01F09147
S1130C701F0189ED8083E0911E01F0911F0181E243
S1130C808083E0911E01F0911F0180E28083E09156
S1130C901E01F0911F0182E08083E0911E01F0911A
S1130CA01F018BED8083E0911E01F0911F0180E311
S1130CB08083E0911E01F0911F018DEA8083E09111
S1130CC01E01F0911F011082E0911E01F0911F019D
S1130CD084EA8083E0911E01F0911F0186EA8083FB
S1130CE0E0911E01F0911F018FEA808380E00E9451
S1130CF0D105E0911E01F0911F0180E480830E94E0
S1130D00DA050895FC011182108210921D031092DD
S1130D101C0310921F0310921E0381E090E0909335
S1130D2019018093180190931B0180931A0108956F
S1130D30CF93DF93EC018881882331F021960E94C0
S1130D40A70589918111FBCFDF91CF9108950F936E
S1130D501F93CF93DF930E94DA0580911E03909135
S1130D601F03892BB9F580911C0390911D03892BD6
S1130D7009F07EC000E211E0C0E0D0E08C2F880FC3
S1130D800E94D10521968091180190911901C817EC
S1130D90D90729F486E791E00E94980604C084E309
S1130DA092E00E94980680911E0390911F03892B64
S1130DB059F480911C0390911D03892B29F4F801A7
S1130DC0808191810E9498060E5F1F4FC330D10528
S1130DD0A9F668C080911C0390911D03892B09F02A
S1130DE047C080E00E94D10588E791E00E94980600
S1130DF082E00E94D10586E891E00E94980684E092
S1130E000E94D1058DE991E00E94980686E00E9437
S1130E10D10584EB91E00E949806C1E0D0E007EC94
S1130E2011E08C2F880F0E94D105809119018F93B6
S1130E30809118018F931F930F930E94D80D0F90E8
S1130E400F900F900F9080911801909119018C17B9
S1130E509D0729F486E791E00E94980604C084E384
S1130E6092E00E9498062196C430D105D1F61AC0AA
S1130E7080911801909119018130910551F40E94DB
S1130E80DA0580E00E94D10588ED91E00E94980681
S1130E9009C0029739F480E00E94D1058EED91E0FB
S1130EA00E949806DF91CF911F910F9108950E949F
S1130EB0A7060E94C50580E00E94D10586E791E05F
S1130EC00E9498060895282F30E020523109C90164
S1130ED0880F991F880F991F280F391F20593F4FDA
S1130EE080E090E0F90145915491E0911C01F0916A
S1130EF01D01408301962F5F3F4F8530910591F787
S1130F000895CF93DF93EC018881882331F02196F3
S1130F100E94630789918111FBCFDF91CF910895DE
S1130F20CF93DF93CDB7DEB7C654D1090FB6F8948B
S1130F30DEBF0FBECDBF0E94DA0580E00E94D1055E
S1130F408EEE91E00E949806CE0101960E94310B2C
S1130F502FEF88E09DE3215080409040E1F700C0EE
S1130F6000004AE050E0BE016B5F7F4F89819A81A7
S1130F700E945D0D4AE050E0BE016A5D7F4F8B81A7
S1130F809C810E945D0D82E00E94D10580E092E088
S1130F900E949806CE0105960E94810785E00E9472
S1130FA0D10581E192E00E949806CE0186960E94C6
S1130FB081070E94FD0A0E949D04892BE1F30E948F
S1130FC0A706CA5BDF4F0FB6F894DEBF0FBECDBFD6
S1130FD0DF91CF910895CF92DF92EF92FF920F931A
S1130FE01F93CF93DF93CDB7DEB7C057D1090FB6A8
S1130FF0F894DEBF0FBECDBF8C017B0180911E0330
S113100090911F03892B31F480911C0390911D034F
S1131010892B11F10E949D04892BF1F080911C030E
S113102090911D03892B41F010921D0310921C0313
S1131030F8011182108204C010921F0310921E0343
S113104081E090E0909319018093180190931B0123
S113105080931A010E94A706F80180819181892B4F
S113106009F0DCC10E94A703AA962FAFAA97AB96FA
S11310703FAFAB97AC964FAFAC97AD965FAFAD9724
S1131080AE966FAFAE97AF967FAFAF97E0968FAF48
S1131090E097E1969FAFE1970E944D03833089F575
S11310A080911801909119018330910551F1909329
S11310B01B0180931A0101969093190180931801E2
S11310C00E94A7060E94A703A2962FAFA297A396F9
S11310D03FAFA397A4964FAFA497A5965FAFA597EC
S11310E0A6966FAFA697A7967FAFA797A8968FAF40
S11310F0A897A9969FAFA9970E944D03843011F732
S1131100DAC00E94A7036A962FAF6A976B963FAF27
S11311106B976C964FAF6C976D965FAF6D976E96AD
S11311206FAF6E976F967FAF6F97A0968FAFA097B4
S1131130A1969FAFA1970E944D03823089F58091BB
S11311401801909119018130910551F190931B017F
S113115080931A01019790931901809318010E94BA
S1131160A7060E94A70362962FAF629763963FAFCC
S1131170639764964FAF649765965FAF659766967D
S11311806FAF669767967FAF679768968FAF6897DC
S113119069969FAF69970E944D03843011F78BC005
S11311A00E94A7032A962FAF2A972B963FAF2B971F
S11311B02C964FAF2C972D965FAF2D972E966FAF31
S11311C02E972F967FAF2F9760968FAF609761967B
S11311D09FAF61970E944D038230D9F58091180129
S11311E0909119010197A9F581E090E090931B017A
S11311F080931A0183E090E0909319018093180181
S11312000E94A7060E94A70322962FAF2297239637
S11312103FAF2397B42F24964FAF2497A52F25963D
S11312205FAF2597F62F26966FAF2697E72F279661
S11312307FAF279728968FAF289729969FAF299736
S11312404B2F5A2F6F2F7E2F0E944D038430D1F6DF
S113125032C00E94A70329AF3AAF4BAF5CAF6DAF6A
S11312607EAF8FAF21969FAF21970E944D038330AD
S113127011F580911801909119010397E1F483E02D
S113128090E090931B0180931A0181E090E0909389
S11312901901809318010E94A7060E94A70329AB95
S11312A03AAB4BAB5CAB6DAB7EAB8FAB98AF0E94F4
S11312B04D03843091F70E94A70329A73AA74BA7AF
S11312C05CA76DA77EA78FA798AB0E944D038130C2
S11312D0E9F480911801909119010197B9F4809172
S11312E01E0390911F03892B89F481E090E0909371
S11312F01F0380931E030E94A706FFED23E984E0E9
S1131300F15020408040E1F700C000000E94A70394
S11313100E944D038130E9F48091180190911901E4
S11313200197B9F480911E0390911F03892B89F0D2
S1131330CC24C394D12CD0921D03C0921C030E94D0
S1131340A706F801D182C08282E090E0F701918380
S113135080830E94A7030E944D038130E9F48091A9
S11313601801909119010297B9F480911E0390918C
S11313701F03892B89F0CC24C394D12CD0921D0354
S1131380C0921C030E94A706F801D182C08283E0A8
S113139090E0F701918380830E94A7030E944D038C
S11313A08130A1F48091180190911901039771F48F
S11313B080911E0390911F03892B41F081E090E0FE
S11313C090931D0380931C030E948E0A0E94A7031E
S11313D00E944D03813071F480911801909119019C
S11313E0029741F480911E0390911F03892B11F4FD
S11313F00E9490070E94A7030E944D03813071F45C
S11314008091180190911901039741F480911E0372
S113141090911F03892B11F40E94C40AC059DF4F15
S11314200FB6F894DEBF0FBECDBFDF91CF911F91F1
S11314300F91FF90EF90DF90CF9008950F931F933B
S1131440CF93DF93CDB7DEB7A1970FB6F894DEBF85
S11314500FBECDBF8C010E94DA0580E00E94D10549
S113146081E292E00E94980682E00E94D10582E324
S113147092E00E9498064AE050E0BE016F5F7F4F01
S1131480F801808191810E945D0DCE0101960E9438
S1131490810784E00E94D10586E392E00E949806C9
S11314A04AE050E0BE016F5F7F4FF8018281938173
S11314B00E945D0DCE0101960E94980686E00E946E
S11314C0D1058AE392E00E9498064AE050E0BE010A
S11314D06F5F7F4FF801848195810E945D0DCE017D
S11314E001960E949806A1960FB6F894DEBF0FBE2F
S11314F0CDBFDF91CF911F910F9108950E94DA051E
S113150082E00E94D1058EE392E00E9498060E9438
S11315109D04892BE1F30E94A7060895CF93DF93DE
S1131520CDB7DEB72B970FB6F894DEBF0FBECDBF95
S113153084E090E09A8389831B82CE0101960E9405
S113154064012B960FB6F894DEBF0FBECDBFDF91BA
S1131550CF910895FC01DB0113968C911397992781
S113156087FD90959183808314968C911497992785
S113157087FD90959383828315968C91992787FD97
S11315809095958384830895CF93DF93CDB7DEB789
S11315902B970FB6F894DEBF0FBECDBF89E090E065
S11315A09A838983CE0101960E9464010E94DA0520
S11315B082E090E00E94D1058BE992E00E949806B7
S11315C02B960FB6F894DEBF0FBECDBFDF91CF913F
S11315D0089587B3806B87BB81E58DB908958FB972
S11315E0779BFECF08951FB8779BFECF8FB10895E8
S11315F080E885BF80E280BF08958AEA92E00E9475
S1131600EC0DE0E0F8E180E090E02E2F20952083BF
S11316103081321301963196E11520E2F207A9F7E1
S1131620E0E0F8E120E030E040815E2F509554176F
S113163011F02F5F3F4F3196E11540E2F407A1F717
S11316403F932F939F938F9381EC92E09F938F937B
S11316500E94D80D0F900F900F900F900F900F9045
S11316600895E0E0F8E120E030E04E2F409540831B
S11316705081541711F02F5F3F4F3196E11540E22E
S1131680F40799F7E0E0F8E140E050E060817E2F54
S11316907095761711F04F5F5F4F3196E11560E258
S11316A0F607A1F7FC013183208353834283089515
S11316B05D9BFECF8CB908955F9BFECF8CB10895DE
S11316C0899A90BD89B988E18AB986E880BD6CE5BC
S11316D07BE088E59BE00E948D0D08955058BB2760
S11316E0AA270ED04DC13ED130F043D120F031F4C1
S11316F09F3F11F41EF433C10EF4E095E7FB29C1BA
S1131700E92F4FD180F3BA1762077307840795074F
S113171018F071F49EF567C10EF4E0950B2EBA2F04
S1131720A02D0B01B90190010C01CA01A0011124E3
S1131730FF27591B99F0593F50F4503E68F11A168F
S1131740F040A22F232F342F4427585FF3CF469520
S113175037952795A795F0405395C9F77EF41F1642
S1131760BA0B620B730B840BBAF09150A1F0FF0F0C
S1131770BB1F661F771F881FC2F70EC0BA0F621FF8
S1131780731F841F48F4879577956795B795F795E8
S11317909E3F08F0B3CF9395880F08F09927EE0F7A
S11317A09795879508950CD0EBC0E3D040F0DAD03C
S11317B030F021F45F3F19F0CCC0511115C1CFC0F6
S11317C0F0D098F39923C9F35523B1F3951B550B26
S11317D0BB27AA2762177307840738F09F5F5F4F00
S11317E0220F331F441FAA1FA9F333D00E2E3AF041
S11317F0E0E830D091505040E695001CCAF729D05B
S1131800FE2F27D0660F771F881FBB1F26173707A9
S11318104807AB07B0E809F0BB0B802DBF01FF27D9
S113182093585F4F2AF09E3F510568F092C0DCC088
S11318305F3FECF3983EDCF3869577956795B79513
S1131840F7959F5FC9F7880F911D9695879597F92E
S11318500895E1E0660F771F881FBB1F62177307A7
S11318608407BA0720F0621B730B840BBA0BEE1FBC
S113187088F7E095089504D06894B111B5C008952F
S113188098D088F09F5790F0B92F9927B751A0F0BE
S1131890D1F0660F771F881F991F1AF0BA95C9F700
S11318A012C0B13081F09FD0B1E008959CC0672F81
S11318B0782F8827B85F39F0B93FCCF386957795B0
S11318C06795B395D9F73EF4909580957095619599
S11318D07F4F8F4F9F4F0895E89409C097FB3EF4C4
S11318E090958095709561957F4F8F4F9F4F992369
S11318F0A9F0F92F96E9BB279395F69587957795E7
S11319006795B795F111F8CFFAF4BB0F11F460FFA6
S11319101BC06F5F7F4F8F4F9F4F16C0882311F0FE
S113192096E911C0772321F09EE8872F762F05C012
S1131930662371F096E8862F70E060E02AF09A95AD
S1131940660F771F881FDAF7880F9695879597F9A2
S1131950089597F99F6780E870E060E008959FEF2D
S113196080EC089500240A94161617061806090632
S1131970089500240A941216130614060506089501
S1131980092E0394000C11F4882352F0BB0F40F489
S1131990BF2B11F460FF04C06F5F7F4F8F4F9F4FC9
S11319A0089557FD9058440F551F59F05F3F71F04B
S11319B04795880F97FB991F61F09F3F79F08795B2
S11319C00895121613061406551FF2CF4695F1DF3B
S11319D008C0161617061806991FF1CF86957105CB
S11319E0610508940895E894BB2766277727CB01FF
S11319F097F908950BD0C4CFB5DF28F0BADF18F0FB
S1131A00952309F0A6CFABCF1124EECFCADFA0F304
S1131A10959FD1F3950F50E0551F629FF001729F7F
S1131A20BB27F00DB11D639FAA27F00DB11DAA1F9E
S1131A30649F6627B00DA11D661F829F2227B00DEB
S1131A40A11D621F739FB00DA11D621F839FA00D76
S1131A50611D221F749F3327A00D611D231F849FC6
S1131A60600D211D822F762F6A2F11249F5750401D
S1131A708AF0E1F088234AF0EE0FFF1FBB1F661FB8
S1131A80771F881F91505040A9F79E3F510570F071
S1131A9060CFAACF5F3FECF3983EDCF38695779551
S1131AA06795B795F795E7959F5FC1F7FE2B880F6C
S1131AB0911D9695879597F908954532510520F41F
S1131AC0423010F00C94680DFB011082CB01089594
S1131AD0BB274A3031F4992322F4BDE290958195D5
S1131AE09F4F0C94740DBB27FB015527AA27880F21
S1131AF0991FAA1FA41710F0A41B83955051B9F77E
S1131B00A05DAA3308F0A95DA193009779F7B111FC
S1131B10B1931192CB010C944B110F931F93CF935C
S1131B20DF93EC018B01009731F46115710519F411
S1131B3080E090E038C06EE070E081E090E00E94C8
S1131B40EB0FFC010097A1F380E8838301151105D5
S1131B5071F01387028781E8838380914103909118
S1131B604203892B21F4F0934203E093410320972D
S1131B70C9F0D187C08783818260838380914303C6
S1131B8090914403892B71F4F0934403E09343034D
S1131B908091450390914603892B21F4F0934603E9
S1131BA0E0934503CF01DF91CF911F910F910895E9
S1131BB0A0E0B0E0EEEDFDE00C94FB11FE013596E3
S1131BC061917191AF0180914303909144030E940C
S1131BD0190EE2E00C9417120F931F93CF93DF9327
S1131BE0E0914303F0914403238121FF1BC0EC01E6
S1131BF000E010E089916091430370914403DB019C
S1131C001896ED91FC911997882331F00995892B49
S1131C1089F30FEF1FEFEECF8AE00995892B11F4BA
S1131C20C80102C08FEF9FEFDF91CF911F910F91F9
S1131C300895ACE0B0E0EFE1FEE00C94EB117C0120
S1131C406B018A01FC0117821682838181FFBDC169
S1131C50CE0101964C01F7019381F60193FD859124
S1131C6093FF81916F01882309F4ABC1853239F464
S1131C7093FD859193FF81916F01853229F4B7011A
S1131C8090E00E945B11E7CF512C312C20E02032F0
S1131C90A0F48B3269F030F4803259F0833269F465
S1131CA020612CC08D3239F0803339F4216026C094
S1131CB02260246023C0286021C027FD27C030EDA6
S1131CC0380F3A3078F426FF06C0FAE05F9E300DF4
S1131CD01124532E13C08AE0389E300D1124332E64
S1131CE020620CC08E3221F426FD6BC1206406C034
S1131CF08C3611F4206802C0883641F4F60193FD55
S1131D00859193FF81916F018111C1CF982F9F7DA0
S1131D109554933028F40C5F1F4FFFE3F9830DC0F3
S1131D20833631F0833771F0833509F05BC022C00C
S1131D30F801808189830E5F1F4F44244394512C02
S1131D40540115C03801F2E06F0E711CF801A08037
S1131D50B18026FF03C0652D70E002C06FEF7FEFF6
S1131D60C5012C870E9440112C0183012C852F77FB
S1131D70222E17C03801F2E06F0E711CF801A0800A
S1131D80B18026FF03C0652D70E002C06FEF7FEFC6
S1131D90C5012C870E942E112C012C852068222E2F
S1131DA0830123FC1BC0832D90E048165906B0F430
S1131DB0B70180E290E00E945B113A94F4CFF50100
S1131DC027FC859127FE81915F01B70190E00E9475
S1131DD05B1131103A94F1E04F1A51084114510447
S1131DE071F7E5C0843611F0893639F5F80127FF1B
S1131DF007C060817181828193810C5F1F4F08C08D
S1131E0060817181882777FD8095982F0E5F1F4F21
S1131E102F76B22E97FF09C09095809570956195A5
S1131E207F4F8F4F9F4F2068B22E2AE030E0A401ED
S1131E300E948D11A82EA81844C0853729F42F7E3E
S1131E40B22E2AE030E025C0F22FF97FBF2E8F3664
S1131E50C1F018F4883579F0B4C0803719F08837A8
S1131E6021F0AFC02F2F2061B22EB4FE0DC08B2DF8
S1131E708460B82E09C024FF0AC09F2F9660B92E33
S1131E8006C028E030E005C020E130E002C020E1D7
S1131E9032E0F801B7FE07C06081718182819381CD
S1131EA00C5F1F4F06C06081718180E090E00E5F7F
S1131EB01F4FA4010E948D11A82EA818FB2DFF7797
S1131EC0BF2EB6FE0BC02B2D2E7FA51450F4B4FEEE
S1131ED00AC0B2FC08C02B2D2E7E05C07A2C2B2DF7
S1131EE003C07A2C01C0752C24FF0DC0FE01EA0D3D
S1131EF0F11D8081803311F4297E09C022FF06C0C0
S1131F007394739404C0822F867809F0739423FD2C
S1131F1013C020FF06C05A2C731418F4530C57181E
S1131F20732C731468F4B70180E290E02C870E944C
S1131F305B1173942C85F5CF731410F4371801C01A
S1131F40312C24FF12C0B70180E390E02C870E945B
S1131F505B112C8522FF17C021FF03C088E590E0A8
S1131F6002C088E790E0B7010CC0822F867859F050
S1131F7021FD02C080E201C08BE227FD8DE2B701A2
S1131F8090E00E945B11A51438F4B70180E390E05F
S1131F900E945B115A94F7CFAA94F401EA0DF11D43
S1131FA08081B70190E00E945B11A110F5CF33202E
S1131FB009F451CEB70180E290E00E945B113A949B
S1131FC0F6CFF7018681978102C08FEF9FEF2C96A1
S1131FD0E2E10C9407120F931F93CF93DF93869F34
S1131FE08001879F100D969F100D1124C8010E9437
S1131FF00710EC01009729F0A80160E070E00E944E
S11320003911CE01DF91CF911F910F910895CF9394
S1132010DF938230910510F482E090E0E09149036F
S1132020F0914A0320E030E0A0E0B0E0309739F1CD
S11320304081518148175907B8F04817590771F47E
S113204082819381109729F013969C938E93129713
S11320502CC090934A038093490327C0211531056E
S113206031F04217530718F0A901DB0101C0EF0159
S11320709A01BD01DF010280F381E02DD7CF211544
S11320803105F9F0281B390B2430310580F48A819D
S11320909B816115710521F0FB019383828304C048
S11320A090934A0380934903FE01329644C0FE0193
S11320B0E20FF31F819391932250310939832883CE
S11320C03AC02091470330914803232B41F42091D7
S11320D00201309103013093480320934703209178
S11320E00001309101012115310541F42DB73EB7AE
S11320F04091040150910501241B350BE0914703E5
S1132100F0914803E217F307A0F42E1B3F0B2817A6
S1132110390778F0AC014E5F5F4F2417350748F05C
S11321204E0F5F1F5093480340934703819391934D
S113213002C0E0E0F0E0CF01DF91CF910895CF93AA
S1132140DF93009709F487C0FC013297138212824F
S1132150C0914903D0914A03209781F420813181B1
S1132160280F391F809147039091480382179307E2
S113217079F5F0934803E09347036DC0DE0120E056
S113218030E0AE17BF0750F412964D915C9113974F
S11321909D014115510509F1DA01F3CFB383A283FF
S11321A040815181840F951F8A179B0771F48D918B
S11321B09C911197840F951F0296918380831296A8
S11321C08D919C911397938382832115310529F472
S11321D0F0934A03E09349033EC0D9011396FC935C
S11321E0EE9312974D915D91A40FB51FEA17FB076B
S11321F079F480819181840F951F0296D9011196FB
S11322009C938E938281938113969C938E931297C1
S1132210E0E0F0E08A819B81009719F0FE01EC0177
S1132220F9CFCE01029628813981820F931F209124
S11322304703309148032817390769F4309729F484
S113224010924A031092490302C013821282D0935F
S11322504803C0934703DF91CF910895FC01059093
S1132260615070400110D8F7809590958E0F9F1F94
S11322700895DC0101C06D9341505040E0F708958A
S1132280FC016150704001900110D8F78095909541
S11322908E0F9F1F0895DC01FC01672F7191772336
S11322A0E1F7329704C07C916D9370836291AE170D
S11322B0BF07C8F308950F931F93CF93DF93182F8D
S11322C0092FEB018B8181FD03C08FEF9FEF20C0AD
S11322D082FF10C04E815F812C813D8142175307DC
S11322E07CF4E881F9819F012F5F3F4F3983288374
S11322F0108306C0E885F985812F0995892B29F774
S11323002E813F812F5F3F4F3F832E83812F902F5C
S1132310DF91CF911F910F910895FA01AA272830D8
S113232051F1203181F1E8946F936E7F6E5F7F4F9E
S11323308F4F9F4FAF4FB1E03ED0B4E03CD0670F1A
S1132340781F891F9A1FA11D680F791F8A1F911D6D
S1132350A11D6A0F711D811D911DA11D20D009F4BD
S113236068943F912AE0269F11243019305D3193FF
S1132370DEF6CF010895462F4770405D4193B3E0E8
S11323800FD0C9F7F6CF462F4F70405D4A3318F08F
S1132390495D31FD4052419302D0A9F7EACFB4E040
S11323A0A6959795879577956795BA95C9F70097F8
S11323B06105710508959B01AC010A2E0694579599
S11323C0479537952795BA95C9F7620F731F841FF0
S11323D0951FA01D08952F923F924F925F926F9286
S11323E07F928F929F92AF92BF92CF92DF92EF92A1
S11323F0FF920F931F93CF93DF93CDB7DEB7CA1B22
S1132400DB0B0FB6F894DEBF0FBECDBF09942A884C
S1132410398848885F846E847D848C849B84AA84F4
S1132420B984C884DF80EE80FD800C811B81AA8181
S1132430B981CE0FD11D0FB6F894DEBF0FBECDBF4C
S10B2440ED010895F894FFCFAB
S113244800004B0320000014000005430000024371
S113245800000043000000430100010000120010C6
S11324688E02810273026402510253636F72653AE9
S1132478200043414E535441542069732030782539
S1132488780A0D004D435032353135206973204E9A
S11324984F5420696E20636F6E6669677572617444
S11324A8696F6E206D6F6465206166746572207251
S11324B86573657421003E002020202047616D6506
S11324C8204D6F64650020204F6E6520506C617943
S11324D865722050696E6720506F6E670020203245
S11324E820502050656E616C74792053686F6F7446
S11324F86F757400202056696577204869676820DD
S113250853636F7265730043757272656E746C6998
S11325186E653A2025640A00202020202020506C73
S11325286179696E672047616D652E2E2E0052759C
S11325386E6E696E67207372616D207465737400C2
S113254820205772697465206572726F72733A201D
S113255800202052656164206572726F72733A209C
S113256800202020484947482053434F5245533AB6
S11325782000312E2000322E2000332E2000594F07
S11325885520574F4E205448452047414D45212159
S11325980052756E6E696E67205352414D2D7465F5
S11325A873742E000920506C6179696E6720476145
S11325B86D6500202020506C6179204D7573696326
S11325C8002020205372616D2D54657374002020FF
S11325D820506C61792047616D6500504C41594920
S11325E84E47204D55534943210053746172746911
S11325F86E67205352414D20746573742E2E2E0D30
S1132608005352414D207465737420636F6D706C70
S1132618657465642077697468202564206572721E
S11326286F727320696E20777269746520706861AF
S1132638736520616E64202564206572726F7273FD
S113264820696E20726561642070686173650D0A83
S105265800007C
S9030000FC
