:100000000C9426050C9443050C9443050C9483062C
:100010000C9443050C9443050C9443050C94430540
:100020000C9443050C9443050C9443050C94430530
:100030000C9443050C9443050C9443050C94430520
:100040000C9443050C9443050C9443050C94430510
:100050000C9443050C9443050C9443050C94430500
:100060000C9443050C9443050C9443050C944305F0
:100070000000000000000000000000C0C040406020
:100080006060E08080781818181CD8D8D8F8F8E09C
:10009000C08000000000C0FC040404043C3C0404D4
:1000A0000404041C7CF8E0A19B9B1F1E1EDCDCDF0B
:1000B000DF9F3860E0E0981C1C04061E387C7C7CC6
:1000C00004040484FCFCF8F8C000000000C0C0E098
:1000D00038181C1C9C8484848404141C18181C1854
:1000E0001C1838A0E0E080000000000000000000C4
:1000F000000000000000000000000003030F3EE0CD
:100100008000030F0F0000C0007EDFDF830101319C
:1001100031311D1D03028FFFF00000E0E080E0F0B0
:1001200000000000003FFFFFE3E3EFEECECDC1C1D2
:10013000C1416070301F0F8F8F8E8ECCE0E00000C9
:100140000000F09F0F036363637232020E0F0F1FF4
:10015000F0FEEECF8303030301000080C0C0FCFC6F
:10016000FC3C3E7F0F0F0F0300000000000000006A
:1001700000000000000000000000C0404040C047F8
:10018000CF7EF0C0C0C0C0FFFFF0F0F0F9FFFE7EF0
:100190003E1E1E1E1EFFF9F9F8F8F8FF3F1F3F7FB5
:1001A00067FEFEDF1F1F0F0F0F0F010107171F5FF5
:1001B0005F783E3E1E1E1F1F1F0F0F071F1F787800
:1001C00078787FFFFFFE383838787878787E7E7FC1
:1001D0007FFFFFC7C18080C0E0F0FEFF7F7F3F014F
:1001E000000000000000000000000000000000000F
:1001F00000000000000000000000000000000300FC
:1002000000000003030703030303000000000000D5
:10021000000000002078BF9F3F3F3F7F1B3BFC74E6
:10022000E868685F070000000000000000000000B0
:1002300000000000000000000000000000000000BE
:1002400000000000000000000000000000000000AE
:1002500000000003070707070F0F0300000000005E
:10026000000000000000000000000000000000008E
:10027000000000000000000000000000000000007E
:10028000000000000000000000000000000000006E
:100290000000E0E010E0291926F2F2EEECFCCF3489
:1002A00019101010E00000000000F0F8F478F000E1
:1002B000000000000000000000000000000000003E
:1002C000000000000000000000000000000000002E
:1002D000000000000000000000000000000000001E
:1002E000000000000000000000000000000000000E
:1002F00000000000000000000000000000000000FE
:1003000000000000000000000000000000000000ED
:10031000E09F88887E7F9CFEFFFFFFFFFFFBFC9E27
:10032000FC0C0C0E11120E1E1F1F1F0D0F030100DF
:1003300000000000808080808080E0E0E0F6FDFD2D
:10034000FDFAFBFDFFFB76767C80000000000000DC
:10035000000000000000000000000000000000009D
:10036000000000000000000000000000000000008D
:10037000000000000000000000000000000000007D
:1003800000000000000000000000000000000C3F22
:100390007F3F0D0D80F07FFFFFFFFF0F7FFF7FF995
:1003A000C000000000000000000000000000000885
:1003B000083E3575D7CACACACACBFFFFFF7F36765B
:1003C00039078200C103C7C73900000000000000E0
:1003D000000000000000000000000000000000001D
:1003E000000000000000000000000000000000000D
:1003F00000000000000000000000000000000000FD
:1004000000000000000000000000000000000000EC
:1004100000000000000000000000000000000000DC
:1004200000000000000000000000000000000000CC
:1004300000000000000000000000000000000000BC
:1004400000000000000000000000000000000000AC
:10045000000000000000000000000000000000009C
:10046000000000000000000000000000000000008C
:10047000000000000000000000000000000000007C
:10048000000000000000000000000000000000006C
:10049000000000000000000000000000000000005C
:1004A000000000000000000000000000000000004C
:1004B000000000000000000000000000000000003C
:1004C000000000000000000000000000000000002C
:1004D000000000000000000000000000000000001C
:1004E000000000000000000000000000000000000C
:1004F00000000000000000000000000000000000FC
:1005000000000000000000000000000000000000EB
:1005100000000000000000000000000000000000DB
:10052000000000000000008080808080808080804B
:1005300000000000000000000000000000000000BB
:1005400000000000000000000000000000000000AB
:1005500000000000E0E0E0E0E0000000000000C07B
:10056000C0C0C0C0C0C0C0C0C000000000000000CB
:1005700000000000000000007030F0E0F0F070704B
:10058000E0C0800000000000F0F0F07060C080F07B
:10059000F0F07000000080C0E0F07070F0E0C0C0CB
:1005A000800000FCFFFFFF03010FFFFFFFFFF101D1
:1005B00000000000000000387C3CF0F0F03030F02B
:1005C000F0E08000000000F0F0F07070E0C0F0F0AB
:1005D000F0F0300000F1F3F3F1F03000FCFFFFFF2A
:1005E0008300003FFFFFFFF000000000000000005C
:1005F000000000000000000000030F3F3F7FF0E01C
:10060000FFFFFFBF00000000FFFFFFF0000003FF3F
:10061000FFFFC00000007FFFFFF1C0000007FFFFE9
:10062000FFF8000003070F0E0C0C0F3FFFFFFFFE4B
:10063000C00000000000000000002F1F3F3070309D
:100640003FFFCF0000000007FFFFF0000001077F21
:10065000FFFFFE0000003FFFFFFFFE000001030759
:100660000F0F0E0E0FFFFFFFFFE000000000000065
:1006700000000000000000000000F0F8FCFC7C3CE2
:100680003E1E3F3FE0E0CC9C7F1F1F0F0300000099
:100690001F1F1F1C00001000030F0F1C1C1C1F1F1E
:1006A0000F0300000000080000081C1C1F0F0F0FA4
:1006B0000F0C0000000000000000F8FCFE3F1F1FB0
:1006C0001F1F1F37F0F0E70E0F0F07030000000099
:1006D0000F0F0F0C070E0E0F0F0F0F000000000082
:1006E0000000000C0C0F0F0F0F0F0C00000000009B
:1006F00000000000000000000000000303170E0CC3
:100700000C0C0C0C0F0F0301000000000000000493
:1007100000000000000001000000000000000000D8
:1007200000000000000000000000000000000000C9
:1007300000000000000000000000000103070E0F91
:100740000E0E060707030300000000000000000073
:100750000000000000000000000000000000000099
:100760000000000000000800000000000000000081
:100770000000000000000000000000000000000079
:100780000000000000000000000000000000000069
:100790000000000000000000000000000000000059
:1007A0000000000000000000000000000000000049
:1007B0000000000000000000000000000000000039
:1007C0000000000000000000000000000000000029
:1007D0000000000000000000000000000000000019
:1007E0000000000000000000000000000000000009
:1007F00000000000000000000000000000000000F9
:1008000000000000000000000000000000000000E8
:1008100000000000000000000000000000000000D8
:1008200000000000000000000000000000000000C8
:1008300000000000000000000000000000000000B8
:1008400000000000000000000000000000000000A8
:100850000000000000000000000000000000000098
:100860000000000000000000000000000000000088
:10087000000000000000005E0000000E000E0028D6
:100880007C287C2808547C542026100864002854B6
:1008900028400000000E0000003C42000000423CE6
:1008A0000000005438540010107C101000806020AC
:1008B00000101010100000606000002010080400FC
:1008C000003C423C0000447E40004462524C002206
:1008D0004A4A360018147E10002E4A4A32003C4A1A
:1008E0004A300002621A0600344A4A34000C52525E
:1008F0003C00006C6C0000806C2C00000010284450
:1009000000282828280000442810000004520C0069
:100910003C425A1C007C12127C007E4A4A34003C45
:10092000424224007E42423C007E4A4A42007E0A05
:100930000A02003C425274007E08087E0000427E9B
:1009400042002040403E007E182442007E4040404D
:10095000007E0C0C7E007E0C307E003C42423C004F
:100960007E12120C003C6242BC007E12324C00240B
:100970004A52240000027E02003E40403E001E60BB
:10098000601E007E30307E006618186600000E7013
:100990000E0062524A4600007E42420004081020C7
:1009A000000042427E00000402040040404040003B
:1009B000000204000030482878007E4848300030AB
:1009C000484800003048487E003068581000107CCD
:1009D00012040050A8A898007E0808700000487A09
:1009E00040000040807A007E1028400000427E4097
:1009F00000781018700078080870003048483000FF
:100A0000F848483000304848F8007808081000508E
:100A100058682800083E48400038404078000038B8
:100A20004038007860607800483030480018A040B6
:100A30003800486858480000083C420000007E002A
:100A40000000423C080004020402000011241FBE02
:100A5000CFEFD4E0DEBFCDBF13E0A0E0B1E0E2E72E
:100A6000F0E302C005900D92A83AB107D9F724E04F
:100A7000A8EAB3E001C01D92A936B207E1F70E94CF
:100A8000A7060C9437180C94000082E390E0909332
:100A9000B1038093B0039093AD038093AC030895AA
:100AA000CF93DF93883719F08937C9F031C084E0DC
:100AB000809304148CEC94E00197F1F700C00000DF
:100AC000C09104148091AA039091AB03D0E0C81B9D
:100AD000D90B1816190624F5CF57D10921C085E086
:100AE000809305148CEC94E00197F1F700C00000AE
:100AF000C09105148091A8039091A903D0E0C81B70
:100B0000D90B181619060CF047C0CF57D1090FC0E2
:100B10008AE091E09F938F930E94FD130F900F90B6
:100B20008091A8039091A90318161906ACF580913D
:100B3000AA039091AB031816190674F51C161D062E
:100B4000B4F484E68C9FB0018D9F700D112488272A
:100B500077FD8095982F0E94FE1220E030E046EF4E
:100B600052E40E9463120E94CB12EB0115C084E68E
:100B70008C9FB0018D9F700D1124882777FD809583
:100B8000982F0E94FE1220E030E043E053E40E94E0
:100B900063120E94CB12EB01CE01DF91CF91089539
:100BA000CF93DF93883719F08937C9F038C084E0D4
:100BB000809304148CEC94E00197F1F700C00000DE
:100BC0008091041424E6829FC00111246FEF70E02D
:100BD0000E948A13C4E6D0E0C61BD70B28C085E06C
:100BE000809305148CEC94E00197F1F700C00000AD
:100BF000809105142091A8033091A903280F311D7D
:100C000044E6429FC001439F900D11246FEF70E0B6
:100C10000E948A13C4E6D0E0C61BD70B08C08AE046
:100C200091E09F938F930E94FD130F900F90CE0140
:100C3000DF91CF91089588E70E9450058F57910961
:100C40009093AB038093AA0389E70E9450058F57C6
:100C500091099093A9038093A8039F938F93809108
:100C6000AB038F938091AA038F9380E191E09F93D0
:100C70008F930E94FD130F900F900F900F900F9085
:100C80000F9008958091B0039091AC038A3044F0A6
:100C90008B3544F49A3044F09B3544F082E008955B
:100CA00081E0089580E0089583E0089584E0089548
:100CB00086B386958695869591E08927817090E028
:100CC00008950F931F93CF93DF93CDB7DEB72A9785
:100CD0000FB6F894DEBF0FBECDBF832F30E0309348
:100CE000B1032093B00390E09093AD038093AC03E5
:100CF0002A960FB6F894DEBF0FBECDBFDF91CF911D
:100D00001F910F9108951F920F920FB60F92112409
:100D10002F933F934F935F936F937F938F939F9303
:100D2000AF93BF93EF93FF930E946907FF91EF91F9
:100D3000BF91AF919F918F917F916F915F914F91F3
:100D40003F912F910F900FBE0F901F90189581E04B
:100D500087BB88BB8FE190E00E9456120E944B1225
:100D60000E94D6070E9445050E944E0D0E944B121C
:100D70000E9458070E94F20C80E691E09F938F93A7
:100D80000E94FD130E941B060F900F900E94700797
:100D90008091AE039091AF030E94630C892B11F0F8
:100DA0000E94B80F0E942712F1CFEF92FF920F938B
:100DB0001F93CF93DF93CDB7DEB72A970FB6F89482
:100DC000DEBF0FBECDBF0983E12E1A832B833C8388
:100DD0004D835E836F83788789879A872091B203DA
:100DE0003091B303232B31F161E3802F0E948C0CEF
:100DF00065E3812F0E948C0C112391F08E010D5F11
:100E00001F4F86E3E80E0F2EF6E3FF2EF02D6F2D19
:100E1000F80181918F010E948C0CF394FE10F7CFA2
:100E200081E00E94B00C1092B3031092B20381E0F3
:100E300090E002C080E090E02A960FB6F894DEBF02
:100E40000FBECDBFDF91CF911F910F91FF90EF901B
:100E500008951F93CF93DF93EC0181E60E94760CF7
:100E6000888385E60E94760C8983882369F010E0E8
:100E700086E6810F0E94760CFE01E10FF11D828350
:100E80001F5F89811817A0F340E064E08CE20E94A4
:100E9000C00C40E061E08CE20E94C00CDF91CF9179
:100EA0001F91089581E086BF80E28BBF78940895FA
:100EB00081E090E09093B3038093B2038FE090E0E1
:100EC0009093B5038093B4030E94DE0C0E945207F6
:100ED000089581E090E09093B3038093B203089566
:100EE0000F931F93CF93DF93CDB7DEB72A970FB63B
:100EF000F894DEBF0FBECDBFCE0101960E94290738
:100F000089818F3079F118F48530C9F144C084317A
:100F100081F0843609F03FC009811A812B813C8120
:100F20004D815E816F81788589859A850E94DE0971
:100F300032C009811A812B813C814D815E816F8194
:100F4000788589859A850E940C0909811A812B81EF
:100F50003C814D815E816F81788589859A850E946B
:100F6000E60819C009811A812B813C814D815E817F
:100F70006F81788589859A850E9461060CC00981F8
:100F80001A812B813C814D815E816F8178858985B5
:100F90009A850E94C2092A960FB6F894DEBF0FBE4A
:100FA000CDBFDF91CF911F910F9108951092BB0398
:100FB0001092BA031092E0031092DF031092CA035A
:100FC0001092C9031092E2031092E10382E090E0D4
:100FD0009093BD038093BC0385E08093C80382E0B7
:100FE0008093D50381E08093D6038093D70385E473
:100FF0008093CB031092CD031092AF031092AE03F7
:101000001092B9031092B8030895CF93DF9360E074
:1010100070E080E090E00E948710C0E0D0E0BE0168
:10102000CE010E948E1081E090E00E94A20E2196D7
:10103000C236D105A1F760E070E080E090E00E9448
:101040008E10C0E0D0E0BE01CE010E9487108FEF6D
:1010500090E00E94A20E2196C830D105A1F767E06A
:1010600070E087E090E00E948710C1E0D0E0BE0110
:10107000CE010E948E1080E890E00E94A20E219680
:10108000C236D105A1F760E070E080E090E00E94F8
:101090008E108FEF90E00E94A20E61E670E081E674
:1010A00090E00E948E10C0E0D0E0BE01CE010E9410
:1010B00087108FEF90E00E94A20E2196C830D105D4
:1010C000A1F7DF91CF9108950F931F93CF93DF93F3
:1010D000EC0161E070E081E090E00E94871061E641
:1010E00070E081E090E00E948E1001E610E0209711
:1010F00029F08FEF90E00E94A20E04C080E090E003
:101100000E94A20E015011090115110581F763E03B
:1011100070E083E090E00E94871061E670E081E07B
:1011200090E00E948E1001E610E0209729F08FEFEA
:1011300090E00E94A20E04C080E090E00E94A20E07
:10114000015011090115110581F764E070E084E098
:1011500090E00E94871061E670E081E090E00E94DC
:101160008E1001E610E0209729F08FEF90E00E94AA
:10117000A20E04C080E090E00E94A20E015011096E
:101180000115110581F766E070E086E090E00E94AD
:10119000871061E670E081E090E00E948E1001E629
:1011A00010E0209729F08FEF90E00E94A20E04C07B
:1011B00080E090E00E94A20E015011090115110576
:1011C00081F7DF91CF911F910F9108950F931F9396
:1011D000CF93DF93CDB7DEB72A970FB6F894DEBF73
:1011E0000FBECDBF442339F082E090E09093BD0361
:1011F0008093BC0306C081E090E09093BD03809390
:10120000BC032A960FB6F894DEBF0FBECDBFDF91A8
:10121000CF911F910F9108950F931F93CF93DF9359
:10122000CDB7DEB72A970FB6F894DEBF0FBECDBF9D
:10123000852F223030F4622F70E07093BB036093EF
:10124000BA03323030F4232F30E03093E0032093A0
:10125000DF03423028F450E05093CA034093C9039F
:10126000823028F490E09093E2038093E1032A9681
:101270000FB6F894DEBF0FBECDBFDF91CF911F91A7
:101280000F910895CF93DF9360E070E080E090E0ED
:101290000E94871068E770E084E690E00E948E105C
:1012A0008091E1039091E203892B29F086E791E098
:1012B0000E94F40E04C086E791E00E94BD0E62E039
:1012C00070E082E090E00E94871068E770E084E6BA
:1012D00090E00E948E108091C9039091CA03892BDF
:1012E00029F089E791E00E94F40E04C089E791E0BB
:1012F0000E94BD0E64E070E084E090E00E948710E0
:1013000068E770E084E690E00E948E108091DF0331
:101310009091E003892B29F08CE791E00E94F40E74
:1013200004C08CE791E00E94BD0E66E070E086E0AC
:1013300090E00E94871068E770E084E690E00E94E9
:101340008E108091BA039091BB03892B21F480E821
:1013500091E00E94BD0E62E670E082E690E00E949D
:101360008E10C0E0D0E0BE01CE010E9487108FEF4A
:1013700090E00E94A20E2196C830D105A1F7DF911E
:10138000CF9108950F931F93CF93DF93CDB7DEB71F
:101390002A970FB6F894DEBF0FBECDBF30E0309372
:1013A000B9032093B8032A960FB6F894DEBF0FBE98
:1013B000CDBFDF91CF911F910F9108950F931F9390
:1013C000CF93DF93CDB7DEB72A970FB6F894DEBF81
:1013D0000FBECDBF09831A832B833C834D835E836D
:1013E0006F83788789879A87222359F0FE01339685
:1013F000CF01820F911D2191A20FB11DE817F907AE
:10140000D1F7CD012A960FB6F894DEBF0FBECDBF3F
:10141000DF91CF911F910F910895CF93DF939B019F
:101420002150310912161306A4F4DC01A60FB71FD0
:10143000C0E0D0E0FC0140E050E08E9189939081C3
:101440009C9381934F5F5F4F21503109421753079F
:10145000A4F3DF91CF910895CF92DF92EF92FF92A4
:101460000F931F93CF93DF939C017B01EA010097B9
:1014700031F480E3DB018C9311961C923FC09923D9
:101480006CF0C12CD12C06C0C12CD12C03C0CC24B3
:10149000C394D12C8701E0E0F0E00AC04A30510546
:1014A00099F731952195310991F7E0E0F0E018C006
:1014B000C901BE010E948A1331968A30910514F049
:1014C000895A01C0805DD8018D938D01C901BE018B
:1014D0000E948A139B016115710551F7CD2831F0E7
:1014E000D701AE0FBF1F8DE28C933196D701AE0F9F
:1014F000BF1F1C92BF01C7010E940D0AC701DF91E7
:10150000CF911F910F91FF90EF90DF90CF900895B2
:101510001092BB031092BA031092E0031092DF0303
:101520001092CA031092C9031092E2031092E103D1
:1015300008950F931F930091D5031091D603209126
:10154000D7033091D8034091D9035091DA036091C9
:10155000DB037091DC038091DD039091DE030E9438
:10156000D506892B41F71F910F9108950E947007AE
:1015700083E090E00E94E6100E94271208954F92A7
:101580005F926F927F928F929F92AF92BF92CF9213
:10159000DF92EF92FF920F931F93CF93DF93CDB71C
:1015A000DEB764970FB6F894DEBF0FBECDBF81E003
:1015B00090E00E94120F81E08093D7030E94700791
:1015C0000E94990A0E942E0D0E9405080E9442095D
:1015D00062E070E082E090E00E94871066E470E0D4
:1015E0008AE090E00E948E1085E891E00E94BD0E96
:1015F00065E070E085E090E00E94871066E470E0AE
:101600008AE090E00E948E1082E991E00E94BD0E77
:101610008091BA039091BB03019709F4BFC0812C5C
:10162000912CA12CB12C0F2EF9E0CF2ED12CF02D26
:101630000F2EF4E66F2E712CF02D8091DF03909128
:10164000E0030197B1F50E942E0D8091DF03909188
:10165000E003892B41F00E94B60A8091DF0390914C
:10166000E003892BC1F70E942E0D0E9405080E94FD
:10167000420962E070E082E090E00E94871066E438
:1016800070E08AE090E00E948E1085E891E00E9470
:10169000BD0E65E070E085E090E00E94871066E492
:1016A00070E08AE090E00E948E1082E991E00E9452
:1016B000BD0E0091B8031091B9030815190531F05A
:1016C0000130110519F481E0C81AD10862E070E018
:1016D00082E090E00E94871060E570E086E490E090
:1016E0000E948E104AE050E0BE016F5F7F4FC6013E
:1016F0000E942C0A0E94BD0E8FEFA81AB80AC501DD
:10170000B3010E948A13862F972F462E572E4AE048
:1017100050E0BE016F5F7F4F0E942C0A4C0183E0B6
:10172000C816D10484F4842D952D6AE070E00E94DF
:101730008A13892B41F481E090E00E94640880E0E4
:1017400090E00E94640865E070E085E090E00E940F
:101750008710B30186E490E00E948E10C4010E94BD
:10176000BD0E8091BC039091BD03029741F0809122
:10177000E1039091E203892B11F40E94030D0E9472
:1017800070070E9442091C141D0444F48091BA039E
:101790009091BB03019711F048014FCF8BE78B87E6
:1017A00081E08C878D870B851C852D853E854F8537
:1017B000588969897A898B899C890E94D506892BE9
:1017C00091F70E94880A0E942E0D0E94A51065E0E4
:1017D00070E085E090E00E9487106CE370E084E1A7
:1017E00090E00E948E1000E010E00F2EF4E68F2EA5
:1017F000912CF02D0F2EFAE0AF2EB12CF02D612C94
:10180000712C0F2EFFE9CF2EF1E0DF2EF02D2AC034
:101810000F5F1F4FC801B4010E948A13CB01B501AD
:101820000E948A13892B61F46CE370E084E190E0FC
:101830000E948E10C7010E94D4108FEFE81AF80A98
:1018400086E0E816F10421F4062D172DE62CF72C7E
:10185000FF92EF92DF92CF920E94FD130F900F90B4
:101860000F900F900E945806892B91F2C7010E9499
:10187000DE10AC0162E070E081E090E00E94951023
:101880000E942E0D1092AF031092AE030E94880AA0
:101890000E9470070E94990A64960FB6F894DEBF02
:1018A0000FBECDBFDF91CF911F910F91FF90EF90B1
:1018B000DF90CF90BF90AF909F908F907F906F9070
:1018C0005F904F900895892B49F00E94BF0A1092B3
:1018D000AF031092AE0381E090E0089580E090E0C5
:1018E00008958091DF039091E0030895CF93C82F6E
:1018F00081E090E00E94421283E00E9438128C2F17
:101900000E9438120E943C12C82F80E090E00E9492
:1019100042128C2FCF910895CF93DF93C82FD62FEB
:1019200081E090E00E94421282E00E9438128D2FE6
:101930000E9438128C2F0E94381280E090E00E94A2
:101940004212DF91CF91089581E090E00E9442120F
:1019500080EC0E94381280E090E00E9442120895CC
:10196000CF93C82F81E090E00E94421280E88C0F54
:101970000E94381280E090E00E944212CF910895B8
:101980001F93CF93DF93182FD62FC42F81E090E0C1
:101990000E94421285E00E943812812F0E94381264
:1019A0008D2F0E9438128C2F0E94381280E090E018
:1019B0000E944212DF91CF911F9108950E9431122F
:1019C0000E94A40C4FEF60E680E60E94C00C40E04D
:1019D00060EE8FE00E94C00C4FEF64E08BE20E944B
:1019E000C00C089581E08093E30385E08093E403D5
:1019F0001092E5031092E6031092E7031092E803B9
:101A00001092E90308950F931F93CF9388E70E94E4
:101A1000D005C82F89E70E94D005C093E5038093C5
:101A2000E6030E945806682F8093E9030091E303C0
:101A30001091E4032091E5033091E6034091E70320
:101A40005091E8037091EA038091EB039091EC03CD
:101A50000E94D506CF911F910F910895E0E0F0E12B
:101A600082E28083108287E0808381E2808310821B
:101A70008FE7808328E030E050E840E0E0E0F2E1EA
:101A800009C0108201970097E1F721503109211513
:101A9000310519F0852F942FF4CF0895AF92BF929E
:101AA000CF92DF92EF92FF920F931F93CF93DF932A
:101AB0008EEA91E090932F0480932E0485EB91E0C1
:101AC00090933104809330048CEB91E09093330435
:101AD0008093320481EC91E0909335048093340438
:101AE00088EC91E0909337048093360480ED91E088
:101AF00090933904809338040F2EF2E4AF2EF4E073
:101B0000BF2EF02D8CED91E0F501918380830F2E97
:101B1000F4E4CF2EF4E0DF2EF02DF60191838083E4
:101B20000F2EF6E4EF2EF4E0FF2EF02DF701918357
:101B3000808308E414E0F80191838083CAE4D4E050
:101B4000998388831092500484E08093520493E038
:101B500090935D0498E090934E048093510410920A
:101B60005E048EED91E090934D0480934C04E0E090
:101B7000F0E18EEA808381EA80838AED808382E1CE
:101B8000808388EC808388EA80838FE3808385ED7F
:101B9000808380E8808381E8808380E5808389ED8D
:101BA000808381E2808380E2808310828BED80835A
:101BB00080E380838DEA8083108284EA808386EAD2
:101BC00080838FEA80830E942E0D8DE991E09093AF
:101BD000EF038093EE0320EE31E03093F103209386
:101BE000F0039093F3038093F20329EF31E03093F5
:101BF000F5032093F40323E032E03093F7032093BE
:101C0000F6032EE032E03093F9032093F80390932B
:101C1000FB038093FA039093FD038093FC0324E17C
:101C200032E03093FF032093FE03909301048093EE
:101C30000004F501208131813093030420930204D4
:101C4000F601208131813093050420930404F701CB
:101C5000208131813093070420930604F80120810C
:101C6000318130930904209308042881398130930D
:101C70000B0420930A0490930D0480930C0421E23A
:101C800032E030930F0420930E0425E332E03093CA
:101C9000110420931004909313048093120420E401
:101CA00032E030931504209314042FE432E0309393
:101CB00017042093160424E632E03093190420938D
:101CC000180425E732E030931B0420931A0426E819
:101CD00032E030931D0420931C0424E932E0309359
:101CE0001F0420931E0490932104809320042DE967
:101CF00032E030932304209322042DEA32E0309323
:101D00002504209324042EEB32E030932704209303
:101D1000260429EC32E03093290420932804909380
:101D20002B0480932A0490932D0480932C04DF913C
:101D3000CF911F910F91FF90EF90DF90CF90BF90C8
:101D4000AF900895809300120895E82FF0E0B097C7
:101D5000CF01880F991F880F991FE80FF91FE059CD
:101D6000F74F80E090E0A0E0B2E124912C9301963F
:101D7000319685309105C9F708950F931F93CF933E
:101D8000DF93FC018081882371F08F010F5F1F4F6B
:101D9000C0E0D0E00E94A50E2196F80181918F014C
:101DA0008111F8CF02C0C0E0D0E0CE01DF91CF9129
:101DB0001F910F910895E82FF0E0B097CF01880FA1
:101DC000991F880F991FE80FF91FE059F74F80E01E
:101DD00090E0A0E0B2E1249120952C9301963196F9
:101DE00085309105C1F708950F931F93CF93DF932B
:101DF000FC018081882371F08F010F5F1F4FC0E0CD
:101E0000D0E00E94DB0E2196F80181918F018111B3
:101E1000F8CF02C0C0E0D0E0CE01DF91CF911F919A
:101E20000F9108950F931F93CF93DF938130910506
:101E300021F0029709F44CC092C0C0E0D0E00FE757
:101E400010E0A0E0B2E160E774E00EC09B01FA018F
:101E5000E80FF91FE491EC930197C0F7C058DF4FEA
:101E6000C11544E0D40731F0802F912FAE014059C5
:101E70005B4FECCF8FE39DE0E3E081509040E0408A
:101E8000E1F700C0000060E070E0DFE7C0E0A0E044
:101E9000B2E10EC0FA01E80FF91FE491E095EC936E
:101EA0000197C0F760587F4F611544E0740731F027
:101EB0008D2F9C2FA901460F571FECCF8FE39DE07C
:101EC000E3E081509040E040E1F700C000004BC0EB
:101ED00083EC99E00197F1F700C00000C0E0D0E08A
:101EE0000FE710E0A0E0B2E160E770E00EC09B01F8
:101EF000FA01E80FF91FE491EC930197C0F7C0587D
:101F0000DF4FC11544E0D40731F0802F912FAE018F
:101F100040595F4FECCF8FE39DE0E3E0815090406C
:101F2000E040E1F700C0000060E070E0DFE7C0E003
:101F3000A0E0B2E10EC0FA01E80FF91FE491E095CC
:101F4000EC930197C0F760587F4F611544E0740728
:101F500051F08D2F9C2FAB01420F531FECCF8AE025
:101F600091E00E94BD0EDF91CF911F910F910895D6
:101F700081E08093500483E0809351040895CF92D0
:101F8000DF92EF92FF920F931F93CF93DF938C0119
:101F90007B01FC018081882349F0319620E030E00C
:101FA0002F5F3F4F81918111FBCF02C020E030E0D5
:101FB0004BEF4203C001439F900D112480589F4F67
:101FC000EC0199230CF42196D595C795DD2314F4E3
:101FD000C0E0D0E020E030E00F2EC12CF2E1DF2E97
:101FE000F02DE114F104A9F02A30310591F480912B
:101FF000500481110EC080EE92E00E94BD0E9C0143
:10200000220F331F220F331F820F931F9C01265F65
:102010003F4F2C173D0781F4C8010E94BD0E9C0163
:10202000220F331F220F331F820F931F9C01215059
:1020300031092C0F3D1F02C0F60110822F5F3F4F68
:102040002038310574F2DF91CF911F910F91FF90ED
:10205000EF90DF90CF9008950F931F93CF93DF936E
:102060008C0180914E04882389F1C0E0D0E00C17E8
:102070001D0799F480915004F80198E0899FE00DC4
:10208000F11D1124EE0FFF1FE251FC4F61E070E0E3
:10209000808191810E94BF0F12C080915004FE0187
:1020A00098E0899FE00DF11D1124EE0FFF1FE25112
:1020B000FC4F60E070E0808191810E94BF0F21960B
:1020C00020914E0430E0C217D3078CF2DF91CF91FC
:1020D0001F910F91089580915D04833079F4809170
:1020E000500481110EC00E94420681110DC081E092
:1020F00090E09093AF038093AE03089580E090E06A
:10210000089580E090E0089580E090E00895E0E098
:10211000F0E192E29083808360830895E0E0F0E153
:1021200091E29083808360830895880F991F880FC0
:10213000991F880F991F680F791FFB01EE0FFF1F72
:10214000E251FC4F518340830895EF92FF920F9329
:102150001F93CF93DF93C0E0D0E10F2EF2E2EF2E7A
:10216000F02DE88281E0888388830F2EF1E2FF2E34
:10217000F02DF8820EE0088312E7188383E393E0E2
:102180000E94BD0EE88283E088838883F8820883FA
:10219000188386E493E00E94BD0EDF91CF911F91DA
:1021A0000F91FF90EF900895880F991FFC01E25D59
:1021B000FB4F808191810E94BD0E0895880F991F69
:1021C000FC01E25DFB4F8081918108958093500472
:1021D0000895FF920F931F93CF93DF93CDB7DEB790
:1021E000C25DD1090FB6F894DEBF0FBECDBF8BE73D
:1021F000898381E08A83E0E0F0E182E2808382E00B
:102200008083808381E280838AE580838FE5808379
:102210004AE050E0BE01655F7F4F81E090E00E94A0
:102220002C0A90934D0480934C040E94BD0E81E0D3
:1022300090E00E94710C9F938F9388E593E09F93A9
:102240008F930E94FD130F900F900F900F90FF241B
:10225000F39445C00E9470070E9442068093ED03EC
:10226000909151048917D1F080915D048F5F809324
:102270005D040E944206823029F488E08F1570F0D8
:10228000F3940CC09091ED0380915104981731F0B4
:102290000E944206833011F4F110FA948091ED030C
:1022A0008093510409811A812F2D3C814D815E81DB
:1022B0006F81788589859A850E94D506892B91F74B
:1022C0004AE050E0BE01655F7F4F8F2D90E00E9495
:1022D0002C0A90934D0480934C040E94BD0E81E023
:1022E00090E00E94710C892B09F0B4CFCE52DF4FE1
:1022F0000FB6F894DEBF0FBECDBFDF91CF911F9117
:102300000F91FF9008950E9442068093ED03809103
:1023100050041F928F9382E693E09F938F930E94C5
:10232000FD1380915E0480934F040E9442060F903B
:102330000F900F900F90811104C085E793E00E94E9
:1023400011140E944206823061F028F48823D9F1EA
:10235000813079F108958330C1F0843009F473C07D
:1023600008958091ED0390915104891759F090914F
:102370005D049150933018F090935D0403C095E094
:1023800090935D048093510408958091ED039091A2
:102390005104891759F090915D049F5F963018F4AD
:1023A00090935D0403C093E090935D048093510487
:1023B00008958091ED039091510489131092500477
:1023C0008093510408950E9442061F928F938CE7D8
:1023D00093E09F938F930E94FD130F900F900F90A7
:1023E0000F909091ED0380915104981739F18091ED
:1023F000500490915204891709F1811112C0809103
:102400005D04843041F489E893E00E94111481E076
:102410008093500413C0853069F482E080935004A7
:102420000DC0833039F48FE893E00E9411140E94AC
:10243000E91004C08FE993E00E9411148091ED032C
:1024400080935104089584E08093510408950E947C
:1024500083110E946B1080915D0490E00E942C100B
:102460000895BC9A87B3806A87BB81E58DB90895CA
:102470008FB9779BFECF089582E08FB9779BFECF0F
:102480008FB108958130910511F4C4980895892B76
:1024900009F4C49A089582E885BF08955D9BFECF34
:1024A0008CB908955F9BFECF8CB1089590BD89B91A
:1024B00088E18AB962E572E18EE492E10E94B2138A
:1024C00080E480BD08950CD0EBC0E3D040F0DAD0BA
:1024D00030F021F45F3F19F0CCC0511115C1CFC0CD
:1024E000F0D098F39923C9F35523B1F3951B550BFD
:1024F000BB27AA2762177307840738F09F5F5F4FD7
:10250000220F331F441FAA1FA9F333D00E2E3AF017
:10251000E0E830D091505040E695001CCAF729D031
:10252000FE2F27D0660F771F881FBB1F2617370780
:102530004807AB07B0E809F0BB0B802DBF01FF27B0
:1025400093585F4F2AF09E3F510568F092C0DCC05F
:102550005F3FECF3983EDCF3869577956795B795EA
:10256000F7959F5FC9F7880F911D9695879597F905
:102570000895E1E0660F771F881FBB1F621773077E
:102580008407BA0720F0621B730B840BBA0BEE1F93
:1025900088F7E095089504D06894B111B5C0089506
:1025A00098D088F09F5790F0B92F9927B751A0F095
:1025B000D1F0660F771F881F991F1AF0BA95C9F7D7
:1025C00012C0B13081F09FD0B1E008959CC0672F58
:1025D000782F8827B85F39F0B93FCCF38695779587
:1025E0006795B395D9F73EF4909580957095619570
:1025F0007F4F8F4F9F4F0895E89409C097FB3EF49B
:1026000090958095709561957F4F8F4F9F4F99233F
:10261000A9F0F92F96E9BB279395F69587957795BD
:102620006795B795F111F8CFFAF4BB0F11F460FF7D
:102630001BC06F5F7F4F8F4F9F4F16C0882311F0D5
:1026400096E911C0772321F09EE8872F762F05C0E9
:10265000662371F096E8862F70E060E02AF09A9584
:10266000660F771F881FDAF7880F9695879597F979
:10267000089597F99F6780E870E060E008959FEF04
:1026800080EC089500240A94161617061806090609
:10269000089500240A9412161306140605060895D8
:1026A000092E0394000C11F4882352F0BB0F40F460
:1026B000BF2B11F460FF04C06F5F7F4F8F4F9F4FA0
:1026C000089557FD9058440F551F59F05F3F71F022
:1026D0004795880F97FB991F61F09F3F79F0879589
:1026E0000895121613061406551FF2CF4695F1DF12
:1026F00008C0161617061806991FF1CF86957105A2
:10270000610508940895E894BB2766277727CB01D5
:1027100097F9089597FB072E16F4009407D077FDDC
:1027200009D00E949E1307FC05D03EF49095819538
:102730009F4F0895709561957F4F0895AA1BBB1B0D
:1027400051E107C0AA1FBB1FA617B70710F0A61BB1
:10275000B70B881F991F5A95A9F780959095BC01D2
:10276000CD0108950F931F93CF93DF93EC018B015D
:10277000009731F46115710519F480E090E038C0DC
:102780006EE070E081E090E00E941016FC0100977E
:10279000A1F380E883830115110571F01387028787
:1027A00081E8838380915F0490916004892B21F4F8
:1027B000F0936004E0935F042097C9F0D187C0874D
:1027C0008381826083838091610490916204892B6C
:1027D00071F4F0936204E09361048091630490913A
:1027E0006404892B21F4F0936404E0936304CF0123
:1027F000DF91CF911F910F910895A0E0B0E0E3E049
:10280000F4E10C941018FE01359661917191AF01BD
:1028100080916104909162040E943E14E2E00C9465
:102820002C180F931F93CF93DF93E0916104F091E5
:102830006204238121FF1BC0EC0100E010E08991BC
:102840006091610470916204DB011896ED91FC9136
:102850001997882331F00995892B89F30FEF1FEF22
:10286000EECF8AE00995892B11F4C80102C08FEFE1
:102870009FEFDF91CF911F910F910895ACE0B0E0F1
:10288000E4E4F4E10C9400187C016B018A01FC0182
:1028900017821682838181FFBDC1CE0101964C0152
:1028A000F7019381F60193FD859193FF81916F016B
:1028B000882309F4ABC1853239F493FD859193FFE8
:1028C00081916F01853229F4B70190E00E94701761
:1028D000E7CF512C312C20E02032A0F48B3269F06C
:1028E00030F4803259F0833269F420612CC08D328B
:1028F00039F0803339F4216026C02260246023C07F
:10290000286021C027FD27C030ED380F3A3078F419
:1029100026FF06C0FAE05F9E300D1124532E13C02F
:102920008AE0389E300D1124332E20620CC08E3286
:1029300021F426FD6BC1206406C08C3611F420689A
:1029400002C0883641F4F60193FD859193FF819191
:102950006F018111C1CF982F9F7D9554933028F43A
:102960000C5F1F4FFFE3F9830DC0833631F08337CF
:1029700071F0833509F05BC022C0F8018081898342
:102980000E5F1F4F44244394512C540115C038014D
:10299000F2E06F0E711CF801A080B18026FF03C029
:1029A000652D70E002C06FEF7FEFC5012C870E949C
:1029B00065172C0183012C852F77222E17C0380133
:1029C000F2E06F0E711CF801A080B18026FF03C0F9
:1029D000652D70E002C06FEF7FEFC5012C870E946C
:1029E00053172C012C852068222E830123FC1BC049
:1029F000832D90E048165906B0F4B70180E290E0CC
:102A00000E9470173A94F4CFF50127FC859127FEB8
:102A100081915F01B70190E00E94701731103A94E4
:102A2000F1E04F1A51084114510471F7E5C08436A2
:102A300011F0893639F5F80127FF07C060817181EF
:102A4000828193810C5F1F4F08C06081718188274C
:102A500077FD8095982F0E5F1F4F2F76B22E97FF30
:102A600009C090958095709561957F4F8F4F9F4FCE
:102A70002068B22E2AE030E0A4010E94A217A82EFE
:102A8000A81844C0853729F42F7EB22E2AE030E002
:102A900025C0F22FF97FBF2E8F36C1F018F488358C
:102AA00079F0B4C0803719F0883721F0AFC02F2FEC
:102AB0002061B22EB4FE0DC08B2D8460B82E09C0EB
:102AC00024FF0AC09F2F9660B92E06C028E030E090
:102AD00005C020E130E002C020E132E0F801B7FE9D
:102AE00007C060817181828193810C5F1F4F06C096
:102AF0006081718180E090E00E5F1F4FA4010E9411
:102B0000A217A82EA818FB2DFF77BF2EB6FE0BC06C
:102B10002B2D2E7FA51450F4B4FE0AC0B2FC08C0C1
:102B20002B2D2E7E05C07A2C2B2D03C07A2C01C0B4
:102B3000752C24FF0DC0FE01EA0DF11D808180334C
:102B400011F4297E09C022FF06C07394739404C057
:102B5000822F867809F0739423FD13C020FF06C0EE
:102B60005A2C731418F4530C5718732C731468F4FC
:102B7000B70180E290E02C870E94701773942C8537
:102B8000F5CF731410F4371801C0312C24FF12C094
:102B9000B70180E390E02C870E9470172C8522FFFC
:102BA00017C021FF03C088E590E002C088E790E0ED
:102BB000B7010CC0822F867859F021FD02C080E257
:102BC00001C08BE227FD8DE2B70190E00E947017F3
:102BD000A51438F4B70180E390E00E9470175A946E
:102BE000F7CFAA94F401EA0DF11D8081B70190E0BE
:102BF0000E947017A110F5CF332009F451CEB70110
:102C000080E290E00E9470173A94F6CFF701868137
:102C1000978102C08FEF9FEF2C96E2E10C941C1875
:102C20000F931F93CF93DF93869F8001879F100D93
:102C3000969F100D1124C8010E942C16EC010097DC
:102C400029F0A80160E070E00E945E17CE01DF91DC
:102C5000CF911F910F910895CF93DF93823091050B
:102C600010F482E090E0E0916704F091680420E0C5
:102C700030E0A0E0B0E0309739F140815181481751
:102C80005907B8F04817590771F48281938110975A
:102C900029F013969C938E9312972CC090936804FE
:102CA0008093670427C02115310531F0421753077F
:102CB00018F0A901DB0101C0EF019A01BD01DF019C
:102CC0000280F381E02DD7CF21153105F9F0281BC3
:102CD000390B2430310580F48A819B81611571059F
:102CE00021F0FB019383828304C090936804809356
:102CF0006704FE01329644C0FE01E20FF31F819388
:102D0000919322503109398328833AC02091650478
:102D100030916604232B41F4209106013091070184
:102D200030936604209365042091040130910501DD
:102D30002115310541F42DB73EB74091080150915E
:102D40000901241B350BE0916504F0916604E2173C
:102D5000F307A0F42E1B3F0B2817390778F0AC01BE
:102D60004E5F5F4F2417350748F04E0F5F1F50939B
:102D70006604409365048193919302C0E0E0F0E023
:102D8000CF01DF91CF910895CF93DF93009709F49E
:102D900087C0FC01329713821282C0916704D091E0
:102DA0006804209781F420813181280F391F809198
:102DB0006504909166048217930779F5F093660491
:102DC000E09365046DC0DE0120E030E0AE17BF0780
:102DD00050F412964D915C9113979D014115510548
:102DE00009F1DA01F3CFB383A28340815181840FCB
:102DF000951F8A179B0771F48D919C911197840FF1
:102E0000951F02969183808312968D919C911397C2
:102E1000938382832115310529F4F0936804E093AC
:102E200067043EC0D9011396FC93EE9312974D911F
:102E30005D91A40FB51FEA17FB0779F4808191819A
:102E4000840F951F0296D90111969C938E938281CF
:102E5000938113969C938E931297E0E0F0E08A8121
:102E60009B81009719F0FE01EC01F9CFCE0102968B
:102E700028813981820F931F209165043091660467
:102E80002817390769F4309729F4109268041092D2
:102E9000670402C013821282D0936604C093650453
:102EA000DF91CF910895FC010590615070400110B1
:102EB000D8F7809590958E0F9F1F0895DC0101C073
:102EC0006D9341505040E0F70895FC01615070400F
:102ED00001900110D8F7809590958E0F9F1F08954F
:102EE0000F931F93CF93DF93182F092FEB018B8143
:102EF00081FD03C08FEF9FEF20C082FF10C04E8185
:102F00005F812C813D81421753077CF4E881F98170
:102F10009F012F5F3F4F39832883108306C0E885C8
:102F2000F985812F0995892B29F72E813F812F5F04
:102F30003F4F3F832E83812F902FDF91CF911F91A1
:102F40000F910895FA01AA27283051F1203181F11B
:102F5000E8946F936E7F6E5F7F4F8F4F9F4FAF4FA1
:102F6000B1E03ED0B4E03CD0670F781F891F9A1FB4
:102F7000A11D680F791F8A1F911DA11D6A0F711D68
:102F8000811D911DA11D20D009F468943F912AE074
:102F9000269F11243019305D3193DEF6CF0108955C
:102FA000462F4770405D4193B3E00FD0C9F7F6CF8D
:102FB000462F4F70405D4A3318F0495D31FD405255
:102FC000419302D0A9F7EACFB4E0A69597958795EB
:102FD00077956795BA95C9F70097610571050895CA
:102FE0009B01AC010A2E0694579547953795279576
:102FF000BA95C9F7620F731F841F951FA01D08950E
:103000002F923F924F925F926F927F928F929F92F8
:10301000AF92BF92CF92DF92EF92FF920F931F93E6
:10302000CF93DF93CDB7DEB7CA1BDB0B0FB6F89497
:10303000DEBF0FBECDBF09942A88398848885F84D7
:103040006E847D848C849B84AA84B984C884DF8048
:10305000EE80FD800C811B81AA81B981CE0FD11D2C
:103060000FB6F894DEBF0FBECDBFED010895F89402
:02307000FFCF90
:10307200010000000000690420004572726F7200B6
:103082004A6F79737469636B2063616C6962726100
:1030920074656420776974682063616C69625F7823
:1030A2003D256420616E642063616C69625F793DD5
:1030B20025640A0D005269676874004C65667400E5
:1030C200557000446F776E004E65757472616C00C6
:1030D200496E697469616C69736174696F6E2064A9
:1030E2006F6E650A0D004254004A53005345540066
:1030F20045786974004C69666573206C6566743A3C
:103102002000596F75722073636F72653A20006EEA
:10311200756D6265722069733A2025640A004C6FEE
:103122006F7365720057696E6E6572004E657264E8
:10313200005A6F6D626965004E6F204E616D6500C9
:10314200417765736F6D65206775790030003100D6
:1031520057656C636F6D6520746F2053776167509C
:103162006F6E672076312E3300506C617920676173
:103172006D65004869676873636F726573004162C9
:103182006F757400546F7020352073636F726573AE
:10319200004D4144452042593A20536869762C201B
:1031A2005567757200616E642056696C69757300AB
:1031B200434F5059524947485420494E464F0049BF
:1031C2006620796F7520636F7079206F7572207732
:1031D2006F726B0057652077696C6C207375652080
:1031E200796F752C0074616B6520796F7572207030
:1031F200616E74732C00616E6420796F7572207732
:103202006966650053455454494E475300434F4E37
:1032120054524F4C4C45523A204B703D0044494663
:10322200464943554C54593A204541535900534F4E
:10323200554E443A204F46460053484F57204C4F74
:10324200474F004C4F4144494E47002564002E0031
:103252002D2D3E00596F75722053636F7265206980
:10326200733A200025642C25640A004E65772048B5
:1032720069676873636F72652100577269746520AC
:10328200796F7572206E616D65206F6E20005567D3
:1032920075722773206D6F62696C6520646576694B
:1032A20063650050726573732053686F6F74206298
:1032B2007574746F6E00546F2063686F6F7365204E
:1032C20061206E616D6520004231206973202564A2
:1032D2000A004D656E75206E756D626572206973A8
:1032E2002025640A00524947485421004A6F792038
:1032F200646972202D25640A0047484765720047B9
:103302006F20746F204368616E6765204B500045E3
:083312006C7365657250000048
:00000001FF
